:1000000072C00000A0C000009EC000009CC00000A4
:100010009AC0000098C0000096C0000094C0000084
:1000200092C0000090C000008EC000008CC0000094
:100030008AC0000088C0000086C0000084C00000A4
:1000400082C0000080C000007EC000007CC00000B4
:100050007AC0000078C0000076C0000006C2000030
:1000600072C0000075C200004AC200006CC00000EF
:100070006AC0000068C0000066C0000064C00000E4
:1000800062C0000060C000005EC000005CC00000F4
:100090005AC0000058C0000056C0000054C0000004
:1000A00052C0000050C000004EC000004CC0000014
:1000B0004AC0000048C0000046C0000044C0000024
:1000C00042C0000040C000003EC000003CC0000034
:1000D0003AC0000038C0000036C0000034C0000044
:1000E00032C000003B0711241FBECFEFD1E2DEBFBC
:1000F000CDBF00E00CBF12E0A0E0B2E0EAE4F4E122
:1001000000E00BBF02C007900D92A232B107D9F7F1
:1001100023E0A2E2B2E001C01D92A432B207E1F7EF
:1001200010E0C3E7D0E000E006C021970109802F6E
:10013000FE010E94170AC237D10780E00807A9F71D
:100140003DD20C94230A5CCF863308F086539091FD
:100150007B00282F2870977F922B90937B008770CD
:10016000806480937C0080917A00806480937A0020
:1001700080917A0086FDFCCF8091780020917900F3
:1001800090E0922B08953FB7F8948091830290916C
:100190008402A0918502B091860226B5A89B05C075
:1001A0002F3F19F00196A11DB11D3FBFBA2FA92FF6
:1001B000982F8827820F911DA11DB11DBC01CD0173
:1001C00042E0660F771F881F991F4A95D1F708955F
:1001D000CF92DF92EF92FF920F931F93CF93DF9313
:1001E0006C017A018B01C0E0D0E0CE15DF0581F013
:1001F000D8016D918D01D601ED91FC910190F081B6
:10020000E02DC6011995892B11F02196EECF7E01C4
:10021000C701DF91CF911F910F91FF90EF90DF9079
:10022000CF900895089580E090E00895FC01538DEB
:10023000448D252F30E0842F90E0821B930B5417C0
:1002400010F0CF96089501970895FC01918D828D4D
:10025000981761F0828DDF01A80FB11D5D968C911A
:10026000928D9F5F9F73928F90E008958FEF9FEF25
:100270000895FC01918D828D981731F0828DE80FE1
:10028000F11D858D90E008958FEF9FEF0895FC019B
:10029000918D228D892F90E0805C9F4F821B910968
:1002A0008F739927089587E892E0F1DF21E0892B89
:1002B00009F420E0822F0895FC01848DDF01A80F4E
:1002C000B11DA35ABF4F2C91848D90E001968F737E
:1002D0009927848FA689B7892C93A089B1898C919D
:1002E000837080648C93938D848D981306C00288EC
:1002F000F389E02D80818F7D80830895EF92FF92B6
:100300000F931F93CF93DF93EC0181E0888F9B8D38
:100310008C8D981305C0E889F989808185FD25C0F9
:10032000F62E0B8D10E00F5F1F4F0F731127E02E7D
:100330008C8DE8120BC00FB607FCFACFE889F9895B
:10034000808185FFF5CFCE01B7DFF2CF8B8DFE0127
:10035000E80FF11DE35AFF4FF0829FB7F8940B8F1F
:10036000EA89FB89808180620AC09FB7F894EE8990
:10037000FF896083E889F989808183708064808344
:100380009FBF81E090E0DF91CF911F910F91FF908F
:10039000EF900895CF93DF93EC01888D8823C1F00F
:1003A000EA89FB89808185FD05C0A889B9898C917E
:1003B00086FD0EC00FB607FCF5CF808185FFF2CF1A
:1003C000A889B9898C9185FFEDCFCE0175DFE8CF83
:1003D000DF91CF91089580E090E0892B19F063DFE1
:1003E000811125C080E090E0892B41F080E090E011
:1003F000892B21F00E94000081111CC080E090E058
:10040000892B41F080E090E0892B21F00E940000D0
:10041000811113C080E090E0892BA1F080E090E092
:10042000892B81F00E94000081110AC008950E946A
:100430000000D8CF0E940000E1CF0E940000EACF68
:100440000C9400000895009761F0FC0101900020D9
:10045000E9F73197AF01481B590BBC0187E892E0DF
:10046000B7CE80E090E00895EAD71F920F920FB6C2
:100470000F9211242F933F938F939F93AF93BF932A
:1004800080917F0290918002A0918102B0918202BE
:1004900030917E0223E0230F2D3720F40196A11D19
:1004A000B11D05C026E8230F0296A11DB11D2093A2
:1004B0007E0280937F0290938002A0938102B0938A
:1004C00082028091830290918402A0918502B09172
:1004D00086020196A11DB11D809383029093840230
:1004E000A0938502B0938602BF91AF919F918F91A7
:1004F0003F912F910F900FBE0F901F9018951F9254
:100500000F920FB60F9211240BB60F922F933F93B9
:100510004F935F936F937F938F939F93AF93BF930B
:10052000EF93FF9387E892E0C7DEFF91EF91BF91D1
:10053000AF919F918F917F916F915F914F913F917B
:100540002F910F900BBE0F900FBE0F901F9018951C
:100550001F920F920FB60F9211240BB60F922F938A
:100560008F939F93EF93FF93E0919702F0919802FE
:100570008081E0919D02F0919E0282FD12C09081E7
:100580008091A0028F5F8F732091A102821751F09A
:10059000E091A002F0E0E957FD4F958F8093A00213
:1005A00001C08081FF91EF919F918F912F910F90CA
:1005B0000BBE0F900FBE0F901F901895CF93DF9337
:1005C000CDB7DEB7AD970FB6F894DEBF0FBECDBF87
:1005D000789484B5826084BD84B5816084BD85B51E
:1005E000826085BD85B5816085BD80916E0081602A
:1005F00080936E00109281008091810082608093D0
:1006000081008091810081608093810080918000D1
:100610008160809380008091B10084608093B100FC
:100620008091B00081608093B000809191008260E1
:1006300080939100809191008160809391008091DE
:1006400090008160809390008091A10082608093EF
:10065000A1008091A10081608093A1008091A00001
:1006600081608093A00080912101826080932101AC
:10067000809121018160809321018091200181601E
:100680008093200180917A00846080937A00809129
:100690007A00826080937A0080917A0081608093F2
:1006A0007A0080917A00806880937A001092C1006D
:1006B000E0919702F091980282E08083E0919302AA
:1006C000F09194021082E0919502F09196028FECE5
:1006D000808310929F02E0919B02F0919C0286E041
:1006E0008083E0919902F0919A02808180618083F9
:1006F000E0919902F0919A02808188608083E09174
:100700009902F0919A02808180688083E091990239
:10071000F0919A0280818F7D808386E390E09093B0
:100720003702809336028FE892E4AAE6B3E480931E
:100730003A0290933B02A0933C02B0933D028AE9B7
:1007400099E9A9EDBFE38093420290934302A093FD
:100750004402B093450280E090E0A0E0B4E48093CE
:10076000560290935702A0935802B093590221E089
:1007700030E0309339022093380243E353E36EEDC7
:1007800072E440933E0250933F02609340027093A4
:10079000410280935A0290935B02A0935C02B09353
:1007A0005D022EE520937C0080917B00877F809303
:1007B0007B00E9DC6B017C0122E0822E912CA12CD4
:1007C000B12CE1DCDC01CB018C199D09AE09BF091C
:1007D000883E9340A105B105A0F331E0831A91084A
:1007E000A108B10848EEC40E43E0D41EE11CF11C80
:1007F00081149104A104B10421F780917A008064EE
:1008000080937A0080917A0086FDFCCF80917800F9
:100810002091790030E0322F2227A901330F660B97
:10082000770B9A01AB01282B60E070E381E190E047
:10083000E2D52AA73BA74CA75DA78FB7F894809075
:100840007F0290908002A0908102B09082028FBFC0
:100850008091360279DC90937B0280937A02BC010E
:10086000990F880B990B33D46B017C012DEC3CEC78
:100870004CE054E492D387FF0AC011E026E636E646
:1008800046EE53E4C701B601D2D418160CF010E0BE
:100890002FB7F89480917F0290918002A0918102FD
:1008A000B09182022FBF88199909AA09BB09813D1D
:1008B0009740A105B10510F4112351F28FB7F894B8
:1008C00020917F02309180024091810250918202FA
:1008D0002EA33FA348A759A78FBF00E010E0212C0B
:1008E000312C2FB7F89480917F0290918002A091D3
:1008F0008102B09182022FBF2EA13FA148A559A528
:10090000821B930BA40BB50B803D9740A105B1054D
:1009100008F031C10F5F1F4F80914E0290914F023E
:10092000A0915002B091510280934A0290934B02E1
:10093000A0934C02B0934D028091360205DC909357
:1009400047028093460280913802FEDB7C0190933F
:1009500049028093480220914602309147023BA30E
:100960002AA3B901330F880B990BB1D34B015C015A
:100970004090560250905702609058027090590271
:10098000A3019201A5D220E030E040E85AE353D41D
:10099000A30192019ED29B01AC0160935602709319
:1009A00057028093580290935902C501B40190D226
:1009B0004B015C0160934E0270934F028093500292
:1009C00090935102B701FF0C880B990B80D36B01F8
:1009D0007C0140905A0250905B0260905C027090E3
:1009E0005D02A301920174D220E030E040E85AE3B6
:1009F00022D4A30192016DD29B01AC0160935A02F3
:100A000070935B0280935C0290935D02C701B60114
:100A10005FD26B017C01609352027093530280930A
:100A2000540290935502A5019401C501B40103D469
:100A30009B01AC0160936202709363028093640235
:100A400090936502609166027091670280916802DE
:100A5000909169023ED26093660270936702809320
:100A6000680290936902A7019601C701B601E3D31A
:100A70009B01AC0160936A0270936B0280936C02DD
:100A800090936D0260916E0270916F02809170027E
:100A9000909171021ED260936E0270936F028093E8
:100AA00070029093710240904A0250904B02609005
:100AB0004C0270904D02A3019201C501B40108D20D
:100AC00020914202309143024091440250914502EC
:100AD000B2D3A3019201FDD19B01AC0160935E02F0
:100AE00070935F028093600290936102C701B60128
:100AF000A2D39B01AC016093720270937302809346
:100B000074029093750260917602709177028091E1
:100B1000780290917902DDD160937602709377022A
:100B2000809378029093790280917D0280937C0279
:100B300080917A0290917B024AA15BA1841795076C
:100B400024F441E040937D0202C010927D02809126
:100B50007D020130110511F480937C0290917C029A
:100B6000981305C034E12316310428F4BACE5FEFA0
:100B7000251A350AF7CFAAA5BBA5BD01BB0F880B67
:100B8000990BA5D220E030E04AE754E40AD220E0F5
:100B900030E040E85AE34FD34B015C0120913A0228
:100BA00030913B0240913C0250913D0244D36EA3F0
:100BB0007FA388A799A7B80180E090E086D22B0197
:100BC0003C019B01AC0160916602709167028091CB
:100BD000680290916902E5D195D39B01AC016EA1A9
:100BE0007FA188A599A527D36B017C016AA37BA36C
:100BF0008CA39DA360932E0270932F0280933002EA
:100C00009093310220913E0230913F024091400288
:100C100050914102C501B4010ED36AA77BA78CA7EE
:100C20009DA7A301920160916E0270916F02809165
:100C3000700290917102B5D165D39B01AC016AA598
:100C40007BA58CA59DA5F7D24B015C016093320278
:100C50007093330280933402909335022AA53BA50A
:100C60004CA55DA56EA17FA188A599A5E4D2209190
:100C70007602309177024091780250917902DBD26E
:100C8000A30192018ED12B013C016093220270934B
:100C900023028093240290932502A5019401C701A9
:100CA000B601C9D29B01AC01609326027093270262
:100CB0008093280290932902C301B20172D16093FC
:100CC0002A0270932B0280932C0290932D02109293
:100CD00066021092670210926802109269021092E6
:100CE0006E0210926F0210927002109271021092B6
:100CF0007602109277021092780210927902A70180
:100D00009601C701B6013CD3882319F082E192E035
:100D100018C046015701E894B7F82FEF3FEF4FE7AF
:100D20005FE7C501B4012CD381110DC02FEF3FEF58
:100D30004FE75FE7C501B40130D1181624F486E10E
:100D400092E081DB93C02FEF3FEF4FE75FE4C701F5
:100D5000B6016DD218161CF48AE192E0F2CF2FEFA3
:100D60003FEF4FE75FECC701B60117D187FDF4CF26
:100D700020E030E0A901C701B6010FD187FF0BC009
:100D80006DE287E892E0BADAD701C601B0588AA3CB
:100D90009BA3ACA3BDA32AE037ED43EA5BE36AA1C2
:100DA0007BA18CA19DA195D04B015C0162D16B010F
:100DB0007C018BD19B01AC01C501B40189D04B01F1
:100DC0005C0119A28E010F5D1F4F702E612EC701AD
:100DD000B6012AE030E040E050E0EBD269017A0150
:100DE000605DD8016E938D01232B242B252B79F781
:100DF000CD0129DB6EE287E892E080DA83E0F82E0D
:100E0000FA94FF2099F120E030E040E251E4C5017E
:100E1000B40111D24B015C012CD19B0140E050E0A8
:100E200019A2072D162D562EC32ED42EE52ECA013B
:100E3000B9012AE030E040E050E0BBD2605DF8014B
:100E400062938F01211531054105510581F7CF01CD
:100E5000FADA652D7C2D8D2D9E2D37D19B01AC01AD
:100E6000C501B40135D04B015C01CACF8EE192E0DF
:100E7000EADAB1DA96CCE7E8F2E01382128288EE81
:100E800093E0A0E0B0E084839583A683B78384E0F9
:100E900092E09183808385EC90E09587848784EC51
:100EA00090E09787868780EC90E0918B808B81EC37
:100EB00090E0938B828B82EC90E0958B848B86EC18
:100EC00090E0978B868B118E128E138E148E089560
:100ED0005058BB27AA270ED070C161D130F066D11F
:100EE00020F031F49F3F11F41EF456C10EF4E0954A
:100EF000E7FB4CC1E92F72D180F3BA176207730781
:100F00008407950718F071F49EF58AC10EF4E095F8
:100F10000B2EBA2FA02D0B01B90190010C01CA01B3
:100F2000A0011124FF27591B99F0593F50F4503E5E
:100F300068F11A16F040A22F232F342F4427585F50
:100F4000F3CF469537952795A795F0405395C9F768
:100F50007EF41F16BA0B620B730B840BBAF0915020
:100F6000A1F0FF0FBB1F661F771F881FC2F70EC0BF
:100F7000BA0F621F731F841F48F487957795679592
:100F8000B795F7959E3F08F0B3CF9395880F08F07B
:100F90009927EE0F979587950895D4D008F481E0AE
:100FA00008950CD00AC102D140F0F9D030F021F4FC
:100FB0005F3F19F0EBC0511134C1EEC00FD198F36F
:100FC0009923C9F35523B1F3951B550BBB27AA27CA
:100FD00062177307840738F09F5F5F4F220F331F3C
:100FE000441FAA1FA9F333D00E2E3AF0E0E830D008
:100FF00091505040E695001CCAF729D0FE2F27D00B
:10100000660F771F881FBB1F261737074807AB07D8
:10101000B0E809F0BB0B802DBF01FF2793585F4F4D
:101020002AF09E3F510568F0B1C0FBC05F3FECF372
:10103000983EDCF3869577956795B795F7959F5F12
:10104000C9F7880F911D9695879597F90895E1E066
:10105000660F771F881FBB1F621773078407BA07C5
:1010600020F0621B730B840BBA0BEE1F88F7E09520
:101070000895BCD088F09F5790F0B92F9927B751A9
:10108000A0F0D1F0660F771F881F991F1AF0BA954C
:10109000C9F712C0B13081F0C3D0B1E00895C0C02B
:1010A000672F782F8827B85F39F0B93FCCF3869542
:1010B00077956795B395D9F73EF49095809570959F
:1010C00061957F4F8F4F9F4F0895E89409C097FB1C
:1010D0003EF490958095709561957F4F8F4F9F4F0F
:1010E0009923A9F0F92F96E9BB279395F695879553
:1010F00077956795B795F111F8CFFAF4BB0F11F416
:1011000060FF1BC06F5F7F4F8F4F9F4F16C08823BC
:1011100011F096E911C0772321F09EE8872F762FF2
:1011200005C0662371F096E8862F70E060E02AF033
:101130009A95660F771F881FDAF7880F969587951F
:1011400097F90895990F0008550FAA0BE0E8FEEFF4
:1011500016161706E807F907C0F012161306E4077B
:10116000F50798F0621B730B840B950B39F40A2674
:1011700061F0232B242B252B21F408950A2609F452
:10118000A140A6958FEF811D811D089597F99F6756
:1011900080E870E060E008959FEF80EC08950024FF
:1011A0000A941616170618060906089500240A94CC
:1011B00012161306140605060895092E0394000C52
:1011C00011F4882352F0BB0F40F4BF2B11F460FFE1
:1011D00004C06F5F7F4F8F4F9F4F089557FD90580A
:1011E000440F551F59F05F3F71F04795880F97FBEB
:1011F000991F61F09F3F79F08795089512161306A5
:101200001406551FF2CF4695F1DF08C016161706D3
:101210001806991FF1CF8695710561050894089508
:10122000E894BB2766277727CB0197F908958ADFD3
:1012300008F48FEF08950BD0C0CFB1DF28F0B6DFF0
:1012400018F0952309F0A2CFA7CF1124EACFC6DF6B
:10125000A0F3959FD1F3950F50E0551F629FF001C9
:10126000729FBB27F00DB11D639FAA27F00DB11D22
:10127000AA1F649F6627B00DA11D661F829F2227AB
:10128000B00DA11D621F739FB00DA11D621F839F32
:10129000A00D611D221F749F3327A00D611D231F08
:1012A000849F600D211D822F762F6A2F11249F5756
:1012B00050408AF0E1F088234AF0EE0FFF1FBB1F79
:1012C000661F771F881F91505040A9F79E3F510518
:1012D00070F05CCFA6CF5F3FECF3983EDCF38695D1
:1012E00077956795B795F795E7959F5FC1F7FE2BC3
:1012F000880F911D9695879597F9089511F40EF42E
:101300004BCF42C073DFD0F39923D9F3CEF39F576D
:10131000550B87FF47D00024A0E640EA9001805893
:101320005695979528F4805C660F771F881F20F0EC
:1013300026173707480730F4621B730B840B2029EC
:1013400031294A2BA69517940794202531254A2741
:1013500058F7660F771F881F20F0261737074807B2
:1013600030F4620B730B840B200D311D411DA095D1
:1013700081F7B901842F9158880F96958795089524
:10138000E1DE880B990B08959F3F31F0915020F4D6
:10139000879577956795B795880F911D9695879551
:1013A00097F9089591505040660F771F881FD2F724
:1013B0000895A1E21A2EAA1BBB1BFD010DC0AA1F96
:1013C000BB1FEE1FFF1FA217B307E407F50720F0AE
:1013D000A21BB30BE40BF50B661F771F881F991F29
:1013E0001A9469F760957095809590959B01AC0172
:1013F000BD01CF010895052E97FB16F400940FD080
:1014000057FD05D0D6DF07FC02D046F408C0509542
:101410004095309521953F4F4F4F5F4F08959095E0
:101420008095709561957F4F8F4F9F4F0895EE0F78
:10143000FF1F881F8BBF0790F691E02D199481E064
:0A14400090E0F89400C0F894FFCF8C
:10144A00000000007E01E8001601CA0147012501DB
:10145A0039016E616E00696E66006F7666000D0A6C
:02146A00000080
:00000001FF
