:100000000C9458000C9480000C9480000C94800098
:100010000C9480000C9480000C9480000C94800060
:100020000C9480000C9480000C9480000C94800050
:100030000C9480000C9480000C9480000C94800040
:100040000C94A8020C9480000C9418030C94F202F7
:100050000C9480000C9480000C9480000C94800020
:100060000C9480000C948000000000002500280003
:100070002B00040404040404040402020202020229
:10008000030303030303010204081020408001025C
:1000900004081020010204081020000000080002DB
:1000A00001000003040700000000000000004A03F4
:1000B00011241FBECFEFD8E0DEBFCDBF11E0A0E01E
:1000C000B1E0E4E3F0E102C005900D92A23AB1077D
:1000D000D9F722E0A2EAB1E001C01D92A835B2072B
:1000E000E1F710E0C8E5D0E004C02197FE010E94CE
:1000F0000D08C735D107C9F70E94A0030C94180852
:100100000C94000090E0FC01E656FF4F2491FC01A6
:10011000EA57FF4F3491FC01EE58FF4FE491EE2374
:1001200009F43CC0222339F1233091F038F4213016
:10013000A9F0223001F584B58F7D12C0273091F0EF
:100140002830A1F02430B9F4809180008F7D03C065
:10015000809180008F77809380000DC084B58F7769
:1001600084BD09C08091B0008F7703C08091B0003A
:100170008F7D8093B000F0E0EE0FFF1FE859FF4F36
:10018000A591B4919FB7F894611104C08C913095FA
:10019000382302C0EC913E2B3C939FBF08953FB79C
:1001A000F8948091A7019091A801A091A901B09124
:1001B000AA0126B5A89B05C02F3F19F00196A11DE5
:1001C000B11D3FBFBA2FA92F982F8827820F911DED
:1001D000A11DB11DBC01CD0142E0660F771F881F34
:1001E000991F4A95D1F70895CF92DF92EF92FF922F
:1001F0000F931F93CF93DF936C017A018B01C0E0C3
:10020000D0E0CE15DF0581F0D8016D918D01D601CA
:10021000ED91FC910190F081E02DC6010995892BAB
:1002200011F02196EECF7E01C701DF91CF911F9192
:100230000F91FF90EF90DF90CF900895089580E0A8
:1002400090E00895FC01538D448D252F30E0842FDC
:1002500090E0821B930B541710F0CF9608950197EE
:100260000895FC01918D828D981761F0828DDF01D8
:10027000A80FB11D5D968C91928D9F5F9F73928F99
:1002800090E008958FEF9FEF0895FC01918D828D8E
:10029000981731F0828DE80FF11D858D90E008955B
:1002A0008FEF9FEF0895FC01918D228D892F90E0B3
:1002B000805C9F4F821B91098F73992708958BEA69
:1002C00091E00E94530121E0892B09F420E0822F64
:1002D0000895FC01848DDF01A80FB11DA35ABF4F03
:1002E0002C91848D90E001968F739927848FA68935
:1002F000B7892C93A089B1898C91837080648C9389
:10030000938D848D981306C00288F389E02D808137
:100310008F7D80830895EF92FF920F931F93CF9369
:10032000DF93EC0181E0888F9B8D8C8D981305C045
:10033000E889F989808185FD26C0F62E0B8D10E0B5
:100340000F5F1F4F0F731127E02E8C8DE8120CC02A
:100350000FB607FCFACFE889F989808185FFF5CFD0
:10036000CE010E946901F1CF8B8DFE01E80FF11DD6
:10037000E35AFF4FF0829FB7F8940B8FEA89FB890D
:10038000808180620AC09FB7F894EE89FF896083FC
:10039000E889F98980818370806480839FBF81E0D0
:1003A00090E0DF91CF911F910F91FF90EF90089512
:1003B000CF93DF93EC01888D8823C9F0EA89FB890C
:1003C000808185FD05C0A889B9898C9186FD0FC003
:1003D0000FB607FCF5CF808185FFF2CFA889B989D8
:1003E0008C9185FFEDCFCE010E946901E7CFDF91AF
:1003F000CF91089580E090E0892B29F00E945F0161
:1004000081110C9400000895009769F0FC0101909F
:100410000020E9F73197AF01481B590BBC018BEA6B
:1004200091E00C94F40080E090E00895CF93DF9386
:10043000CDB7DEB760970FB6F894DEBF0FBECDBF65
:10044000FE01319620E1DF011D922A95E9F78F3FE9
:10045000910589F084F082E191E00E9404028CE52C
:1004600091E060960FB6F894DEBF0FBECDBFDF916E
:10047000CF910C9404021816190644F49C012170C3
:1004800033272193319395958795F5CF89819A816B
:10049000019711F461E001C060E0809148020E9480
:1004A00082008B819C81019711F461E001C060E0C2
:1004B00080914A020E9482008D819E81019711F4F1
:1004C00061E001C060E080914C020E9482008F8157
:1004D0009885019711F461E001C060E080914E02BF
:1004E0000E94820089859A85019711F461E001C01C
:1004F00060E0809150020E9482008B859C8501976C
:1005000011F461E001C060E0809152020E9482001B
:100510008D859E85019711F461E001C060E08091B6
:1005200054020E9482008F859889019711F461E03E
:1005300001C060E08091560260960FB6F894DEBF6D
:100540000FBECDBFDF91CF910C9482000E941308A3
:100550001F920F920FB60F9211242F933F938F93F8
:100560009F93AF93BF938091A3019091A401A09119
:10057000A501B091A6013091A20123E0230F2D37F0
:1005800020F40196A11DB11D05C026E8230F029697
:10059000A11DB11D2093A2018093A3019093A401FA
:1005A000A093A501B093A6018091A7019091A80105
:1005B000A091A901B091AA010196A11DB11D80933E
:1005C000A7019093A801A093A901B093AA01BF919C
:1005D000AF919F918F913F912F910F900FBE0F90F0
:1005E0001F9018951F920F920FB60F9211242F9300
:1005F0003F934F935F936F937F938F939F93AF93AB
:10060000BF93EF93FF938BEA91E00E946901FF9102
:10061000EF91BF91AF919F918F917F916F915F917A
:100620004F913F912F910F900FBE0F901F901895F3
:100630001F920F920FB60F9211242F938F939F93B7
:10064000EF93FF93E091BB01F091BC018081E091B9
:10065000C101F091C20182FD12C090818091C4015C
:100660008F5F8F732091C501821751F0E091C40113
:10067000F0E0E555FE4F958F8093C40101C0808165
:10068000FF91EF919F918F912F910F900FBE0F903F
:100690001F901895EBEAF1E01382128288EE93E046
:1006A000A0E0B0E084839583A683B78384E091E0E3
:1006B0009183808385EC90E09587848784EC90E03B
:1006C0009787868780EC90E0918B808B81EC90E01F
:1006D000938B828B82EC90E0958B848B86EC90E000
:1006E000978B868B118E128E138E148EE8E4F2E0B7
:1006F00082E090E09183808383E090E09383828323
:1007000084E090E09583848385E090E097838683FE
:1007100086E090E09187808787E090E093878287EA
:1007200088E090E09587848789E090E097878687C6
:100730008FE591E00E9404028CE591E00C940402A4
:10074000CF93DF93CDB7DEB7A3970FB6F894DEBF94
:100750000FBECDBF789484B5826084BD84B58160BE
:1007600084BD85B5826085BD85B5816085BD80917C
:100770006E00816080936E001092810080918100F4
:1007800082608093810080918100816080938100EC
:10079000809180008160809380008091B1008460AE
:1007A0008093B1008091B00081608093B00080910F
:1007B0007A00846080937A0080917A0082608093CE
:1007C0007A0080917A00816080937A0080917A002B
:1007D000806880937A001092C100E091BB01F09193
:1007E000BC0182E08083E091B701F091B8011082F2
:1007F000E091B901F091BA018FEC80831092C301AE
:10080000E091BF01F091C00186E08083E091BD01DD
:10081000F091BE01808180618083E091BD01F09103
:10082000BE01808188608083E091BD01F091BE01AE
:10083000808180688083E091BD01F091BE0180815C
:100840008F7D80838FEF90E00E9416020E94CF0080
:100850002B013C0124EFC22EDD24D394E12CF12C9A
:100860000E94CF00DC01CB0184199509A609B709C4
:10087000883E9340A105B10598F321E0C21AD10842
:10088000E108F10888EE480E83E0581E611C711CD7
:10089000C114D104E104F10419F780E090E00E9452
:1008A000160280E4382E9AE0492E512C612C712CCE
:1008B00030927C0080917A00806480937A008091ED
:1008C0007A0086FDFCCF609178008091790070E01D
:1008D000782B072E000C880B990B0E94F2062CEE49
:1008E00031E548E75FE30E9456070E94BA066B01B4
:1008F0007C017BA36AA34B01770FAA08BB08B7FE54
:1009000020C06DE28BEA91E00E948B012227332701
:10091000A901281939094A095B0919A28E010F5D3D
:100920001F4FCA01B901A30192010E94EB07605D4C
:10093000F80162938F01211531054105510589F7B1
:1009400015C0A501940119A28E010F5D1F4FCA01A8
:10095000B901A30192010E94EB07605DF801629367
:100960008F01211531054105510589F7C8010E9404
:1009700004028CE591E00E9404028AA19BA1883BBD
:1009800093401CF08FE390E0F0C1C601885A934079
:10099000409718F48EE390E0E8C1C601885993406F
:1009A000409718F48DE390E0E0C1C6018958934068
:1009B0000F9718F48CE390E0D8C1C6018A57934092
:1009C0000F9718F48BE390E0D0C1C6018B5693408B
:1009D0000F9718F48AE390E0C8C1C6018B55934085
:1009E000409718F489E390E0C0C1C6018C5493404D
:1009F0000F9718F488E390E0B8C1C6018D53934077
:100A00000F9718F487E390E0B0C1C6018E5293406F
:100A10000F9718F486E390E0A8C1C6018E51934069
:100A2000409718F485E390E0A0C1C6018F50934031
:100A30000F9718F484E390E098C1C6019350409753
:100A400018F483E390E091C1C601815F92400F9753
:100A500018F482E390E089C1C601825E92400F974C
:100A600018F481E390E081C1C601805D9240429715
:100A700018F480E390E079C1C601835C92400D9741
:100A800018F48FE290E071C1C601845B92400F9729
:100A900018F48EE290E069C1C601855A92400F9722
:100AA00018F48DE290E061C1C601865992400F971B
:100AB00018F48CE290E059C1C601875892400F9714
:100AC00018F48BE290E051C1C601885792400F970D
:100AD00018F48AE290E049C1C601885692404097D6
:100AE00018F489E290E041C1C601895592400F9700
:100AF00018F488E290E039C1C6018A5492400F97F9
:100B000018F487E290E031C1C6018B5392400F97F1
:100B100018F486E290E029C1C6018B5292404097BA
:100B200018F485E290E021C1C6018C5192400F97E4
:100B300018F484E290E019C1C6018D5092400F97DD
:100B400018F483E290E011C1C6018E5F91400F97C7
:100B500018F482E290E009C1C6018E5E9140409790
:100B600018F481E290E001C1C601815E91400D97C9
:100B700018F480E290E0F9C0C601815D9140409791
:100B800018F48FE190E0F1C0C601815C914040977C
:100B900018F48EE190E0E9C0C601815B9140409776
:100BA00018F48DE190E0E1C0C601835A91400E97A0
:100BB00018F48CE190E0D9C0C60183599140409768
:100BC00018F48BE190E0D1C0C601845891400F9792
:100BD00018F48AE190E0C9C0C601855791400F978B
:100BE00018F489E190E0C1C0C601865691400F9784
:100BF00018F488E190E0B9C0C601875591400F977D
:100C000018F487E190E0B1C0C601885491400F9775
:100C100018F486E190E0A9C0C6018853914040973E
:100C200018F485E190E0A1C0C601895291400F9768
:100C300018F484E190E099C0C6018A5191400F9761
:100C400018F483E190E091C0C6018A50914040972A
:100C500018F482E190E089C0C6018B5F91090F977B
:100C600018F481E190E081C0C6018C5E91090F9774
:100C700018F480E190E079C0C6018D5D91090F976D
:100C800018F48FE090E071C0C6018E5C91090F9757
:100C900018F48EE090E069C0C6018F5B91090F9750
:100CA00018F48DE090E061C0C601805B91090F9758
:100CB00018F48CE090E059C0C601815A91090F9751
:100CC00018F48BE090E051C0C6018159910940971A
:100CD00018F48AE090E049C0C601825891090F9744
:100CE00018F489E090E041C0C6018257910940970D
:100CF00018F488E090E039C0C601835691090F9737
:100D000018F487E090E031C0C601845591090F972F
:100D100018F486E090E029C0C601855491090F9728
:100D200018F485E090E021C0C601C6970F9718F42B
:100D300084E090E01AC0C6018697409718F483E0DB
:100D400090E013C0C60148970E9718F482E090E037
:100D50000CC0F1E0CF1AD10827E1C216D10418F473
:100D600081E090E002C080E090E00E9416020E94C4
:100D7000FA019ECD0E94C1066894B1110C945007EF
:100D800008950E94350788F09F5798F0B92F99274A
:100D9000B751B0F0E1F0660F771F881F991F1AF066
:100DA000BA95C9F714C0B13091F00E944F07B1E075
:100DB00008950C944F07672F782F8827B85F39F074
:100DC000B93FCCF3869577956795B395D9F73EF4FF
:100DD00090958095709561957F4F8F4F9F4F0895A7
:100DE000E89409C097FB3EF49095809570956195C5
:100DF0007F4F8F4F9F4F9923A9F0F92F96E9BB277B
:100E00009395F695879577956795B795F111F8CFF6
:100E1000FAF4BB0F11F460FF1BC06F5F7F4F8F4F61
:100E20009F4F16C0882311F096E911C0772321F057
:100E30009EE8872F762F05C0662371F096E8862FEF
:100E400070E060E02AF09A95660F771F881FDAF746
:100E5000880F9695879597F9089557FD9058440FF8
:100E6000551F59F05F3F71F04795880F97FB991F09
:100E700061F09F3F79F087950895121613061406C6
:100E8000551FF2CF4695F1DF08C016161706180653
:100E9000991FF1CF86957105610508940895E8942E
:100EA000BB2766277727CB0197F908950E9469072A
:100EB0000C94DA070E94CC0738F00E94D30720F088
:100EC000952311F00C94C3070C94C90711240C94BA
:100ED00050070E942D0770F3959FC1F3950F50E0C6
:100EE000551F629FF001729FBB27F00DB11D639FDC
:100EF000AA27F00DB11DAA1F649F6627B00DA11D82
:100F0000661F829F2227B00DA11D621F739FB00D27
:100F1000A11D621F839FA00D611D221F749F332797
:100F2000A00D611D231F849F600D211D822F762F30
:100F30006A2F11249F5750409AF0F1F088234AF00D
:100F4000EE0FFF1FBB1F661F771F881F9150504079
:100F5000A9F79E3F510580F00C94C3070C945007ED
:100F60005F3FE4F3983ED4F3869577956795B79500
:100F7000F795E7959F5FC1F7FE2B880F911D96951A
:100F8000879597F9089597F99F6780E870E060E08A
:100F900008959FEF80EC089500240A941616170612
:100FA00018060906089500240A941216130614065A
:100FB00005060895092E0394000C11F4882352F0BD
:100FC000BB0F40F4BF2B11F460FF04C06F5F7F4F75
:100FD0008F4F9F4F0895A1E21A2EAA1BBB1BFD0144
:100FE0000DC0AA1FBB1FEE1FFF1FA217B307E40708
:100FF000F50720F0A21BB30BE40BF50B661F771F60
:10100000881F991F1A9469F760957095809590953F
:101010009B01AC01BD01CF010895EE0FFF1F0590AC
:10102000F491E02D099481E090E0F8940C94180874
:04103000F894FFCF62
:10103400000000008B01F4002201D80153013101AA
:1010440045014572726F722120596F752061726576
:1010540020747279696E6720746F2073656E6420E2
:101064006461746120686176696E672076616C756D
:10107400652067726561746572207468616E2038DA
:101084002D62697420283E32353529000D0A004549
:1010940072726F72212054686520646174612064E7
:1010A4006972656374696F6E2028496E7075742F58
:1010B4004F75747075742920666F7220706F727426
:1010C400206973206E6F742073656C656374656446
:0210D40000001A
:00000001FF
