:100000000C945D000C9485000C9485000C94850084
:100010000C9485000C9485000C9485000C9485004C
:100020000C9485000C9485000C9485000C9485003C
:100030000C9485000C9485000C9485000C9485002C
:100040000C9417020C9485000C9487020C946102A6
:100050000C9485000C9485000C9485000C9485000C
:100060000C9485000C94850000000008000201003B
:100070000003040700000000000000000000000072
:10008000250028002B0000000000240027002A0083
:10009000040404040404040402020202020203032E
:1000A0000303030301020408102040800102040836
:1000B0001020010204081020F70311241FBECFEF07
:1000C000D8E0DEBFCDBF11E0A0E0B1E0E8E0FBE0AA
:1000D00002C005900D92A632B107D9F721E0A6E241
:1000E000B1E001C01D92AC3CB207E1F710E0CDE5F4
:1000F000D0E004C02197FE010E947705CC35D107DE
:10010000C9F70E94B9020C9482050C94000090E09B
:10011000FC01EC55FF4F2491FC01E057FF4F849107
:10012000882399F090E0880F991FFC01EA57FF4F50
:10013000A591B491FC01E458FF4F859194918FB73C
:10014000F894EC91E22BEC938FBF089590E0FC01C2
:10015000E859FF4F2491FC01EC55FF4F3491FC010D
:10016000E057FF4FE491EE2309F43CC0222339F11C
:10017000233091F038F42130A9F0223001F584B514
:100180008F7D12C0273091F02830A1F02430B9F4CF
:10019000809180008F7D03C0809180008F77809355
:1001A00080000DC084B58F7784BD09C08091B000F8
:1001B0008F7703C08091B0008F7D8093B000F0E016
:1001C000EE0FFF1FE458FF4FA591B4919FB7F8942D
:1001D000611104C08C913095382302C0EC913E2B04
:1001E0003C939FBF0895CF92DF92EF92FF920F93BF
:1001F0001F93CF93DF936C017A018B01C0E0D0E0B5
:10020000CE15DF0581F0D8016D918D01D601ED91FC
:10021000FC910190F081E02DC6010995892B11F028
:100220002196EECF7E01C701DF91CF911F910F91F3
:10023000FF90EF90DF90CF900895089580E090E0D8
:100240000895FC01538D448D252F30E0842F90E0DC
:10025000821B930B541710F0CF96089501970895C1
:10026000FC01918D828D981761F0828DDF01A80FBE
:10027000B11D5D968C91928D9F5F9F73928F90E0E0
:1002800008958FEF9FEF0895FC01918D828D98174F
:1002900031F0828DE80FF11D858D90E008958FEF8C
:1002A0009FEF0895FC01918D228D892F90E0805C55
:1002B0009F4F821B91098F73992708958FE291E0D8
:1002C0000E94520121E0892B09F420E0822F089539
:1002D000FC01848DDF01A80FB11DA35ABF4F2C91E3
:1002E000848D90E001968F739927848FA689B789B2
:1002F0002C93A089B1898C91837080648C93938DA9
:10030000848D981306C00288F389E02D80818F7D4B
:1003100080830895EF92FF920F931F93CF93DF9303
:10032000EC0181E0888F9B8D8C8D981305C0E88946
:10033000F989808185FD26C0F62E0B8D10E00F5FB8
:100340001F4F0F731127E02E8C8DE8120CC00FB6D3
:1003500007FCFACFE889F989808185FFF5CFCE01C6
:100360000E946801F1CF8B8DFE01E80FF11DE35A69
:10037000FF4FF0829FB7F8940B8FEA89FB89808149
:1003800080620AC09FB7F894EE89FF896083E8898C
:10039000F98980818370806480839FBF81E090E0D1
:1003A000DF91CF911F910F91FF90EF900895CF9320
:1003B000DF93EC01888D8823C9F0EA89FB8980816D
:1003C00085FD05C0A889B9898C9186FD0FC00FB63F
:1003D00007FCF5CF808185FFF2CFA889B9898C9180
:1003E00085FFEDCFCE010E946801E7CFDF91CF916D
:1003F000089580E090E0892B29F00E945E01811130
:100400000C9400000895009769F0FC010190002011
:10041000E9F73197AF01481B590BBC018FE291E01E
:100420000C94F30080E090E008950E947D051F92F7
:100430000F920FB60F9211242F933F938F939F9398
:10044000AF93BF9380912B0190912C01A0912D012E
:10045000B0912E0130912A0123E0230F2D3720F493
:100460000196A11DB11D05C026E8230F0296A11D0E
:10047000B11D20932A0180932B0190932C01A0930E
:100480002D01B0932E018091260190912701A0911A
:100490002801B09129010196A11DB11D809326016B
:1004A00090932701A0932801B0932901BF91AF91A8
:1004B0009F918F913F912F910F900FBE0F901F90A2
:1004C00018951F920F920FB60F9211242F933F93FE
:1004D0004F935F936F937F938F939F93AF93BF934C
:1004E000EF93FF938FE291E00E946801FF91EF91FB
:1004F000BF91AF919F918F917F916F915F914F913C
:100500003F912F910F900FBE0F901F9018951F9243
:100510000F920FB60F9211242F938F939F93EF9307
:10052000FF93E0913F01F09140018081E09145010E
:10053000F091460182FD12C09081809148018F5F49
:100540008F7320914901821751F0E0914801F0E04A
:10055000E15DFE4F958F8093480101C08081FF913E
:10056000EF919F918F912F910F900FBE0F901F9041
:100570001895CF93DF93CDB7DEB7A1970FB6F89458
:10058000DEBF0FBECDBF789484B5826084BD84B5D4
:10059000816084BD85B5826085BD85B5816085BD7E
:1005A00080916E00816080936E0010928100809136
:1005B00081008260809381008091810081608093BE
:1005C0008100809180008160809380008091B100E3
:1005D00084608093B1008091B00081608093B0000E
:1005E00080917A00846080937A0080917A008260A2
:1005F00080937A0080917A00816080937A00809164
:100600007A00806880937A001092C100E0913F01E7
:10061000F091400182E08083E0913B01F0913C0148
:100620001082E0913D01F0913E018FEC80831092A9
:100630004701E0914301F091440186E08083E0911D
:100640004101F0914201808180618083E09141010C
:10065000F0914201808188608083E0914101F091B6
:100660004201808180688083E0914101F0914201E4
:1006700080818F7D808389E00E94870088E00E94CE
:10068000870087E00E94870086E00E94870085E05F
:100690000E94870084E00E94870080E4382E9AE060
:1006A000892E912CA12CB12C30927C0080917A0063
:1006B000806480937A0080917A0086FDFCCF6091FF
:1006C00078008091790070E0782B072E000C880B61
:1006D000990B0E945C042CEE31E548E75FE30E9431
:1006E000C0040E9424046B017C0182E191E00E941D
:1006F000030226010D2C000C6608770877FE20C047
:100700006DE28FE291E00E948A0122273327A9013E
:10071000241935094609570919A28E010F5D1F4F8B
:10072000CA01B901A50194010E945505605DF80157
:1007300062938F01211531054105510589F715C0D7
:10074000A301920119A28E010F5D1F4FCA01B901C9
:10075000A50194010E945505605DF80162938F0127
:10076000211531054105510589F7C8010E94030291
:1007700080E291E00E94030282E291E00E94030283
:10078000C6010197479710F461E001C060E089E07D
:100790000E94A600C60148970E9710F461E001C0C0
:1007A00060E088E00E94A600C6018697409730F47A
:1007B00061E089E00E94A60061E005C060E089E098
:1007C0000E94A60060E088E00E94A600F5EFCF1A24
:1007D000F1E0DF0A84E6C816D10410F461E001C03C
:1007E00060E086E00E94A6000E94F9015DCFEFE282
:1007F000F1E01382128288EE93E0A0E0B0E08483FF
:100800009583A683B78384E091E09183808385EC10
:1008100090E09587848784EC90E09787868780ECCA
:1008200090E0918B808B81EC90E0938B828B82ECBB
:1008300090E0958B848B86EC90E0978B868B118E65
:10084000128E138E148E08950E942B046894B11199
:100850000C94BA0408950E949F0488F09F5798F062
:10086000B92F9927B751B0F0E1F0660F771F881FB5
:10087000991F1AF0BA95C9F714C0B13091F00E94CF
:10088000B904B1E008950C94B904672F782F882734
:10089000B85F39F0B93FCCF3869577956795B395F6
:1008A000D9F73EF490958095709561957F4F8F4F65
:1008B0009F4F0895E89409C097FB3EF4909580956A
:1008C000709561957F4F8F4F9F4F9923A9F0F92F16
:1008D00096E9BB279395F695879577956795B79594
:1008E000F111F8CFFAF4BB0F11F460FF1BC06F5F7A
:1008F0007F4F8F4F9F4F16C0882311F096E911C08C
:10090000772321F09EE8872F762F05C0662371F0AC
:1009100096E8862F70E060E02AF09A95660F771FC0
:10092000881FDAF7880F9695879597F9089557FDF0
:100930009058440F551F59F05F3F71F04795880F4D
:1009400097FB991F61F09F3F79F0879508951216E4
:1009500013061406551FF2CF4695F1DF08C0161690
:1009600017061806991FF1CF869571056105089441
:100970000895E894BB2766277727CB0197F9089558
:100980000E94D3040C9444050E94360538F00E945E
:100990003D0520F0952311F00C942D050C943305A2
:1009A00011240C94BA040E94970470F3959FC1F32C
:1009B000950F50E0551F629FF001729FBB27F00D0D
:1009C000B11D639FAA27F00DB11DAA1F649F662762
:1009D000B00DA11D661F829F2227B00DA11D621FB1
:1009E000739FB00DA11D621F839FA00D611D221F6B
:1009F000749F3327A00D611D231F849F600D211D4F
:100A0000822F762F6A2F11249F5750409AF0F1F0D1
:100A100088234AF0EE0FFF1FBB1F661F771F881F3A
:100A200091505040A9F79E3F510580F00C942D0540
:100A30000C94BA045F3FE4F3983ED4F3869577951F
:100A40006795B795F795E7959F5FC1F7FE2B880FE0
:100A5000911D9695879597F9089597F99F6780E876
:100A600070E060E008959FEF80EC089500240A9400
:100A70001616170618060906089500240A94121679
:100A80001306140605060895092E0394000C11F4AC
:100A9000882352F0BB0F40F4BF2B11F460FF04C059
:100AA0006F5F7F4F8F4F9F4F0895A1E21A2EAA1BB1
:100AB000BB1BFD010DC0AA1FBB1FEE1FFF1FA2170E
:100AC000B307E407F50720F0A21BB30BE40BF50B0B
:100AD000661F771F881F991F1A9469F76095709594
:100AE000809590959B01AC01BD01CF010895EE0F5B
:100AF000FF1F0590F491E02D099481E090E0F894B7
:080B00000C948205F894FFCF6C
:100B0800000000008A01F3002101D70152013001E1
:100B1800440164617961207265616B746966203D86
:060B280020000D0A000090
:107E0000112484B714BE81FFF0D085E080938100F7
:107E100082E08093C00088E18093C10086E0809377
:107E2000C20080E18093C4008EE0C9D0259A86E02C
:107E300020E33CEF91E0309385002093840096BBD3
:107E4000B09BFECF1D9AA8958150A9F7CC24DD24C4
:107E500088248394B5E0AB2EA1E19A2EF3E0BF2EE7
:107E6000A2D0813461F49FD0082FAFD0023811F036
:107E7000013811F484E001C083E08DD089C08234E0
:107E800011F484E103C0853419F485E0A6D080C0E4
:107E9000853579F488D0E82EFF2485D0082F10E0AE
:107EA000102F00270E291F29000F111F8ED06801E7
:107EB0006FC0863521F484E090D080E0DECF843638
:107EC00009F040C070D06FD0082F6DD080E0C81688
:107ED00080E7D80618F4F601B7BEE895C0E0D1E017
:107EE00062D089930C17E1F7F0E0CF16F0E7DF06D8
:107EF00018F0F601B7BEE89568D007B600FCFDCFD4
:107F0000A601A0E0B1E02C9130E011968C91119780
:107F100090E0982F8827822B932B1296FA010C0160
:107F200087BEE89511244E5F5F4FF1E0A038BF0790
:107F300051F7F601A7BEE89507B600FCFDCF97BE46
:107F4000E89526C08437B1F42ED02DD0F82E2BD052
:107F50003CD0F601EF2C8F010F5F1F4F84911BD097
:107F6000EA94F801C1F70894C11CD11CFA94CF0C13
:107F7000D11C0EC0853739F428D08EE10CD085E9AC
:107F80000AD08FE07ACF813511F488E018D01DD067
:107F900080E101D065CF982F8091C00085FFFCCF94
:107FA0009093C60008958091C00087FFFCCF809118
:107FB000C00084FD01C0A8958091C6000895E0E648
:107FC000F0E098E1908380830895EDDF803219F02E
:107FD00088E0F5DFFFCF84E1DECF1F93182FE3DFCA
:107FE0001150E9F7F2DF1F91089580E0E8DFEE27F6
:047FF000FF270994CA
:027FFE00040479
:0400000300007E007B
:00000001FF
