:10000000D2C00000FEC00000FCC00000FAC000002A
:10001000F8C00000F6C00000F4C00000F2C000000C
:10002000F0C00000EEC00000ECC00000EAC000001C
:10003000E8C00000E6C00000E4C00000E2C000002C
:10004000E0C00000DEC00000DCC00000DAC000003C
:10005000D8C00000D6C00000D4C000005FC20000BD
:10006000D0C00000CEC20000A3C20000CAC0000081
:10007000C8C00000C6C00000C4C00000C2C000006C
:10008000C0C00000BEC00000BCC00000BAC000007C
:10009000B8C00000B6C00000B4C00000B2C000008C
:1000A000B0C00000AEC00000ACC00000AAC000009C
:1000B000A8C00000A6C00000A4C00000A2C00000AC
:1000C000A0C000009EC000009CC000009AC00000BC
:1000D00098C0000096C0000094C0000092C00000CC
:1000E00090C0000000002200250028002B002E00F8
:1000F0003100340002010000050108010B0100007D
:100100002100240027002A002D00300033000101C7
:100110000000040107010A01050505050705080897
:100120000808020202020A0A080804040404010181
:100130000101010101010303030303030303040796
:1001400007070C0C0C0C0C0C0C0C0202020206062D
:100150000606060606060B0B0B0B0B0B0B0B010220
:1001600010202008081020401020408002010201C9
:100170000804020101020408102040808040201081
:1001800008040201800402018040201008040201DA
:100190000804020101020408102040800102040842
:1001A00010204080DF0411241FBECFEFD1E2DEBF5C
:1001B000CDBF00E00CBF12E0A0E0B2E0ECEDFDE04E
:1001C00000E00BBF02C007900D92A434B107D9F72D
:1001D00022E0A4E4B2E001C01D92A03FB207E1F723
:1001E00010E0C3EDD0E000E005C021970109802FA9
:1001F000FE01E6D5C23DD10780E00807B1F737D24E
:10020000EBC5FECECF92DF92EF92FF920F931F933A
:10021000CF93DF936C017A018B01C0E0D0E0CE1563
:10022000DF0581F0D8016D918D01D601ED91FC9132
:100230000190F081E02DC6011995892B11F02196CE
:10024000EECF7E01C701DF91CF911F910F91FF90FB
:10025000EF90DF90CF900895089580E090E00895AA
:10026000FC01538D448D252F30E0842F90E0821BBC
:10027000930B541710F0CF96089501970895FC0141
:10028000918D828D981761F0828DDF01A80FB11DCD
:100290005D968C91928D9F5F9F73928F90E00895F1
:1002A0008FEF9FEF0895FC01918D828D981731F0AB
:1002B000828DE80FF11D858D90E008958FEF9FEFFF
:1002C0000895FC01918D228D892F90E0805C9F4FD5
:1002D000821B91098F739927089583E592E0F1DFDE
:1002E00021E0892B09F420E0822F0895FC01848D00
:1002F000DF01A80FB11DA35ABF4F2C91848D90E050
:1003000001968F739927848FA689B7892C93A0892A
:10031000B1898C91837080648C93938D848D9813B4
:1003200006C00288F389E02D80818F7D8083089547
:10033000EF92FF920F931F93CF93DF93EC0181E035
:10034000888F9B8D8C8D981305C0E889F9898081F1
:1003500085FD25C0F62E0B8D10E00F5F1F4F0F732C
:100360001127E02E8C8DE8120BC00FB607FCFACFD8
:10037000E889F989808185FFF5CFCE01B7DFF2CF1B
:100380008B8DFE01E80FF11DE35AFF4FF0829FB7FE
:10039000F8940B8FEA89FB89808180620AC09FB73D
:1003A000F894EE89FF896083E889F98980818370F8
:1003B000806480839FBF81E090E0DF91CF911F91A7
:1003C0000F91FF90EF900895CF93DF93EC01888D0C
:1003D0008823C1F0EA89FB89808185FD05C0A88951
:1003E000B9898C9186FD0EC00FB607FCF5CF8081D0
:1003F00085FFF2CFA889B9898C9185FFEDCFCE0119
:1004000075DFE8CFDF91CF91089580E090E0892BF0
:1004100019F063DF811125C080E090E0892B41F065
:1004200080E090E0892B21F00E94000081111CC027
:1004300080E090E0892B41F080E090E0892B21F072
:100440000E940000811113C080E090E0892BA1F090
:1004500080E090E0892B81F00E94000081110AC0A9
:1004600008950E940000D8CF0E940000E1CF0E94B2
:100470000000EACF0C9400000895009761F0FC01A1
:1004800001900020E9F73197AF01481B590BBC01DF
:1004900083E592E0B7CE80E090E008958F929F923E
:1004A000AF92BF920F931F93CF93DF93CDB7DEB779
:1004B000A1970FB6F894DEBF0FBECDBF19A2423090
:1004C00008F44AE08E010F5D1F4F842E912CA12C61
:1004D000B12CA501940152D4E62FB901CA010150F3
:1004E0001109EA3014F4E05D01C0E95CD801EC9335
:1004F000232B242B252B69F7C801BFDFA1960FB64C
:10050000F894DEBF0FBECDBFDF91CF911F910F9149
:10051000BF90AF909F908F9008955AD41F920F92E2
:100520000FB60F9211242F933F938F939F93AF9306
:10053000BF9380914F0290915002A0915102B091CF
:10054000520230914E0223E0230F2D3720F4019602
:10055000A11DB11D05C026E8230F0296A11DB11DE6
:1005600020934E0280934F0290935002A093510229
:10057000B093520280914A0290914B02A0914C029A
:10058000B0914D020196A11DB11D80934A02909336
:100590004B02A0934C02B0934D02BF91AF919F913B
:1005A0008F913F912F910F900FBE0F901F90189534
:1005B0001F920F920FB60F9211240BB60F922F932A
:1005C0003F934F935F936F937F938F939F93AF93DB
:1005D000BF93EF93FF9383E592E088DEFF91EF9165
:1005E000BF91AF919F918F917F916F915F914F914B
:1005F0003F912F910F900BBE0F900FBE0F901F9049
:1006000018951F920F920FB60F9211240BB60F92EE
:100610002F938F939F93EF93FF93E0916302F09159
:1006200064028081E0916902F0916A0282FD12C049
:10063000908180916C028F5F8F7320916D02821781
:1006400051F0E0916C02F0E0ED5AFD4F958F8093F0
:100650006C0201C08081FF91EF919F918F912F914A
:100660000F900BBE0F900FBE0F901F9018957894AF
:1006700084B5826084BD84B5816084BD85B58260A7
:1006800085BD85B5816085BD80916E008160809358
:100690006E001092810080918100826080938100C1
:1006A00080918100816080938100809180008160D1
:1006B000809380008091B10084608093B10080912C
:1006C000B00081608093B00080919100826080933F
:1006D00091008091910081608093910080919000C1
:1006E0008160809390008091A10082608093A1003E
:1006F0008091A10081608093A1008091A000816021
:100700008093A000809121018260809321018091DB
:10071000210181608093210180912001816080937B
:10072000200180917A00846080937A0080917A0021
:10073000826080937A0080917A00816080937A0051
:1007400080917A00806880937A001092C100E4E979
:10075000F1E02491EEE4F1E084918823C1F090E08F
:10076000880F991FFC01E250FF4FC591D491FC0105
:10077000EC51FF4FA591B4919FB7F8948881E22F77
:10078000E0958E2388838C91E823EC939FBFE091C2
:100790006302F091640282E08083E0915F02F09155
:1007A00060021082E0916102F09162028FEC80831E
:1007B00010926B02E0916702F091680286E08083FC
:1007C000E0916502F0916602808180618083E09112
:1007D0006502F0916602808188608083E091650205
:1007E000F0916602808180688083E0916502F091DB
:1007F000660280818F7D8083C0E480917B00877F4B
:1008000080937B00C0937C0080917A008064809309
:100810007A0080917A0086FDFCCF6091780080910B
:10082000790070E0782B7093490260934802072E9C
:10083000000C880B990B87D126E13DEB4BE95EE379
:1008400036D260934402709345028093460290939F
:10085000470282E192E011DEC0904802D090490246
:100860000D2C000CEE08FF08F7FE0DC06DE283E5CD
:1008700092E05EDD66277727CB016C197D098E0932
:100880009F094AE003C04AE0C701B60107DE85E2DE
:1008900092E0F3DDC0904402D0904502E090460221
:1008A000F0904702A7019601C701B60163D28823E1
:1008B00019F085E392E018C046015701E894B7F8B3
:1008C0002FEF3FEF4FE75FE7C501B40153D281112E
:1008D0000DC02FEF3FEF4FE75FE7C501B40101D136
:1008E000181624F489E392E0C8DD64C02FEF3FEFCF
:1008F0004FE75FE4C701B601D6D118161CF48DE3AB
:1009000092E0F2CF2FEF3FEF4FE75FECC701B60168
:10091000E8D087FDF4CF20E030E0A901C701B6019F
:10092000E0D087FF08C06DE283E592E001DDF7FAD1
:10093000F094F7F8F0942AE037ED43EA5BE3C7015F
:10094000B6016BD04B015C01D0D06B017C01F9D0BA
:100950009B01AC01C501B4015FD04B015C014AE0D1
:10096000C701B6019BDD6EE283E592E0E1DC20E0A9
:1009700030E040E251E4C501B40199D14B015C0182
:10098000B4D06B01E12CF12C4AE0C701B60186DD41
:10099000C701B601D6D09B01AC01C501B4013CD062
:1009A00020E030E040E251E482D19FD080E090E04E
:1009B0004AE074DD81E492E060DD27DD1ECFE3E5EF
:1009C000F2E01382128288EE93E0A0E0B0E084832C
:1009D0009583A683B78384E092E09183808385EC3E
:1009E00090E09587848784EC90E09787868780ECF9
:1009F00090E0918B808B81EC90E0938B828B82ECEA
:100A000090E0958B848B86EC90E0978B868B118E93
:100A1000128E138E148E08955058BB27AA270ED01D
:100A200008C1F9D030F0FED020F031F49F3F11F42E
:100A30001EF4EEC00EF4E095E7FBE4C0E92F0AD106
:100A400080F3BA17620773078407950718F071F4EB
:100A50009EF522C10EF4E0950B2EBA2FA02D0B01AE
:100A6000B90190010C01CA01A0011124FF27591BF3
:100A700099F0593F50F4503E68F11A16F040A22FF9
:100A8000232F342F4427585FF3CF4695379527956A
:100A9000A795F0405395C9F77EF41F16BA0B620B69
:100AA000730B840BBAF09150A1F0FF0FBB1F661FB0
:100AB000771F881FC2F70EC0BA0F621F731F841FF3
:100AC00048F4879577956795B795F7959E3F08F019
:100AD000B3CF9395880F08F09927EE0F97958795D8
:100AE00008956CD008F481E00895BCD088F09F5739
:100AF00090F0B92F9927B751A0F0D1F0660F771F6A
:100B0000881F991F1AF0BA95C9F712C0B13081F049
:100B1000C3D0B1E00895C0C0672F782F8827B85F91
:100B200039F0B93FCCF3869577956795B395D9F7AA
:100B30003EF490958095709561957F4F8F4F9F4FB4
:100B40000895E89409C097FB3EF4909580957095C0
:100B500061957F4F8F4F9F4F9923A9F0F92F96E909
:100B6000BB279395F695879577956795B795F1117E
:100B7000F8CFFAF4BB0F11F460FF1BC06F5F7F4F1B
:100B80008F4F9F4F16C0882311F096E911C077232D
:100B900021F09EE8872F762F05C0662371F096E836
:100BA000862F70E060E02AF09A95660F771F881F05
:100BB000DAF7880F9695879597F90895990F0008A9
:100BC000550FAA0BE0E8FEEF16161706E807F9071F
:100BD000C0F012161306E407F50798F0621B730BBA
:100BE000840B950B39F40A2661F0232B242B252B3B
:100BF00021F408950A2609F4A140A6958FEF811DDE
:100C0000811D089597F99F6780E870E060E008957E
:100C10009FEF80EC089500240A9416161706180614
:100C20000906089500240A941216130614060506F0
:100C30000895092E0394000C11F4882352F0BB0F81
:100C400040F4BF2B11F460FF04C06F5F7F4F8F4FE4
:100C50009F4F089557FD9058440F551F59F05F3F1F
:100C600071F04795880F97FB991F61F09F3F79F0CE
:100C700087950895121613061406551FF2CF469550
:100C8000F1DF08C0161617061806991FF1CF8695D2
:100C90007105610508940895E894BB2766277727B6
:100CA000CB0197F908958ADF08F48FEF08950BD0F0
:100CB000C0CFB1DF28F0B6DF18F0952309F0A2CF3E
:100CC000A7CF1124EACFC6DFA0F3959FD1F3950FEC
:100CD00050E0551F629FF001729FBB27F00DB11DC0
:100CE000639FAA27F00DB11DAA1F649F6627B00D50
:100CF000A11D661F829F2227B00DA11D621F739F39
:100D0000B00DA11D621F839FA00D611D221F749F46
:100D10003327A00D611D231F849F600D211D822F8D
:100D2000762F6A2F11249F5750408AF0E1F08823D4
:100D30004AF0EE0FFF1FBB1F661F771F881F9150E1
:100D40005040A9F79E3F510570F05CCFA6CF5F3FA2
:100D5000ECF3983EDCF3869577956795B795F79514
:100D6000E7959F5FC1F7FE2B880F911D969587959C
:100D700097F9089523DF880B990B0895A1E21A2EA5
:100D8000AA1BBB1BFD010DC0AA1FBB1FEE1FFF1F2F
:100D9000A217B307E407F50720F0A21BB30BE40B7F
:100DA000F50B661F771F881F991F1A9469F76095C6
:100DB0007095809590959B01AC01BD01CF01089580
:100DC000EE0FFF1F881F8BBF0790F691E02D19943F
:0C0DD00081E090E0F89400C0F894FFCFA0
:100DDC0000000000980102013001E40161013F01B3
:100DEC005301202020616E616C616F6720696E7009
:100DFC007574202000202020616320766F6C746154
:100E0C0067652020006E616E00696E66006F766605
:040E1C00000D0A00BB
:020000023000CC
:10E000000D9489F10D94B2F10D94B2F10D94B2F129
:10E010000D94B2F10D94B2F10D94B2F10D94B2F1F0
:10E020000D94B2F10D94B2F10D94B2F10D94B2F1E0
:10E030000D94B2F10D94B2F10D94B2F10D94B2F1D0
:10E040000D94B2F10D94B2F10D94B2F10D94B2F1C0
:10E050000D94B2F10D94B2F10D94B2F10D94B2F1B0
:10E060000D94B2F10D94B2F10D94B2F10D94B2F1A0
:10E070000D94B2F10D94B2F10D94B2F10D94B2F190
:10E080000D94B2F10D94B2F10D94B2F10D94B2F180
:10E090000D94B2F10D94B2F10D94B2F10D94B2F170
:10E0A0000D94B2F10D94B2F10D94B2F10D94B2F160
:10E0B0000D94B2F10D94B2F10D94B2F10D94B2F150
:10E0C0000D94B2F10D94B2F10D94B2F10D94B2F140
:10E0D0000D94B2F10D94B2F10D94B2F10D94B2F130
:10E0E0000D94B2F141546D656761323536300041AF
:10E0F000726475696E6F206578706C6F72657220DE
:10E1000073746B3530305632206279204D4C530099
:10E11000426F6F746C6F616465723E004875683F52
:10E1200000436F6D70696C6564206F6E203D200048
:10E130004350552054797065202020203D20005FF9
:10E140005F4156525F415243485F5F3D2000415658
:10E1500052204C696243205665723D20004743437C
:10E160002056657273696F6E203D20004350552024
:10E1700049442020202020203D20004C6F7720663D
:10E18000757365202020203D20004869676820665F
:10E190007573652020203D200045787420667573D6
:10E1A00065202020203D20004C6F636B2066757336
:10E1B000652020203D20004D617220203720323024
:10E1C000313300312E362E3800342E332E350056A2
:10E1D00023202020414444522020206F7020636F70
:10E1E00064652020202020696E73747275637469E1
:10E1F0006F6E2061646472202020496E74657272B3
:10E20000757074006E6F20766563746F7200726A49
:10E210006D702020006A6D70200057686174207056
:10E220006F72743A00506F7274206E6F7420737541
:10E2300070706F72746564004D7573742062652030
:10E2400061206C6574746572002000577269747483
:10E25000696E672045450052656164696E672045B7
:10E26000450045452065727220636E743D00504F35
:10E27000525400303D5A65726F2061646472003FF1
:10E280003D43505520737461747300403D454550C3
:10E29000524F4D207465737400423D426C696E6B41
:10E2A000204C454400453D44756D70204545505215
:10E2B0004F4D00463D44756D7020464C415348001B
:10E2C000483D48656C70004C3D4C69737420492F83
:10E2D0004F20506F72747300513D51756974005234
:10E2E0003D44756D702052414D00563D73686F7707
:10E2F00020696E7465727275707420566563746FF0
:10E30000727300593D506F727420626C696E6B00BD
:10E310002A0011241FBECFEFD1E2DEBFCDBF01E046
:10E320000CBF12E0A0E0B2E0EEE1FDEF03E00BBFB6
:10E3300002C007900D92A030B107D9F712E0A0E01B
:10E34000B2E001C01D92AE30B107E1F70F9460F367
:10E350000D948DFE01E20EBF0FEF0DBF11241FBE05
:10E360000D9460F30D9400F020E030E040ED57E0B4
:10E3700005C0FA013197F1F72F5F3F4F2817390792
:10E38000C0F308959C01260F311DC901A0E0B0E043
:10E390002F5F3F4FABBFFC018791882361F08093D3
:10E3A000C6008091C00086FFFCCF8091C0008064D1
:10E3B0008093C000EACF08958DE08093C6008091DD
:10E3C000C00086FFFCCF8091C00080648093C000B5
:10E3D0008AE08093C6008091C00086FFFCCF8091C8
:10E3E000C00080648093C00008950F94C2F10F9420
:10E3F000DCF10895FC019081992359F09093C600B7
:10E400008091C00086FFFCCF8091C0008064809323
:10E41000C0003196992379F70895282F982F929567
:10E420009F70892F805D8A3308F0895F8093C600D2
:10E430008091C00086FFFCCF8091C00080648093F3
:10E44000C000822F8F70982F905D9A3308F0995FEB
:10E450009093C6008091C00086FFFCCF8091C000E1
:10E4600080648093C00008959C01FB01853691056E
:10E470001CF46330710594F0C90164E670E00F94F8
:10E480002EFE605D7F4F6093C6008091C00086FFC6
:10E49000FCCF8091C00080648093C0002B30310598
:10E4A00014F43297B4F0C90164E670E00F942EFEC4
:10E4B0006AE070E00F942EFE605D7F4F6093C600AF
:10E4C0008091C00086FFFCCF8091C0008064809363
:10E4D000C000C9016AE070E00F942EFEC0968093E0
:10E4E000C6008091C00086FFFCCF8091C000806490
:10E4F0008093C00008951F93182F8EE692EE60E07F
:10E500000F94C2F11093C6008091C00086FFFCCF2B
:10E510008091C00080648093C0000F94DCF11F9153
:10E5200008952F923F924F925F926F927F928F92B7
:10E530009F92AF92BF92CF92DF92EF92FF920F9392
:10E540001F93DF93CF93CDB7DEB762970FB6F894E2
:10E55000DEBF0FBECDBF382E622ECA01DB015C01CB
:10E560006D01772420E2222E2E010894411C511CBB
:10E570008BC081E0A81680E0B80681E0C80680E084
:10E58000D80628F0C601AA27BB270F940DF2BB2797
:10E59000AD2D9C2D8B2D0F940DF28A2D0F940DF225
:10E5A0002092C6008091C00086FFFCCF8091C00001
:10E5B00080648093C0009DE29093C6008091C0006B
:10E5C00086FFFCCF8091C00080648093C0002092C1
:10E5D000C6008091C00086FFFCCF8091C00080649F
:10E5E0008093C00019828601750188249924A1E0D6
:10E5F0003A1651F03A1620F0B2E03B1661F409C029
:10E600000BBFF701779007C0C7010F9477FE782EF4
:10E6100002C0F7017080872D0F940DF22092C60082
:10E620008091C00086FFFCCF8091C0008064809301
:10E63000C000872D8052F401EF70F0708F3520F408
:10E64000E40DF51D708204C0E40DF51D8EE280839B
:10E650000894E11CF11C011D111D0894811C911CE2
:10E6600090E18916910409F0C2CF80E190E0A0E02A
:10E67000B0E0A80EB91ECA1EDB1E198AC2010F9493
:10E68000FAF10F94DCF16A94662009F072CF629679
:10E690000FB6F894DEBF0FBECDBFCF91DF911F91B3
:10E6A0000F91FF90EF90DF90CF90BF90AF909F9031
:10E6B0008F907F906F905F904F903F902F90089534
:10E6C0002F923F924F925F926F927F928F929F9282
:10E6D000AF92BF92CF92DF92EF92FF920F931F9370
:10E6E000DF93CF93CDB7DEB7CD53D1400FB6F894BB
:10E6F000DEBF0FBECDBF01E20EBF0FEF0DBF94B75F
:10E70000F894A89514BE80916000886180936000A1
:10E7100010926000789493FF05C0E0910002F091A0
:10E7200001021995279A2F9A8091C00082608093E8
:10E73000C00080E18093C40088E18093C1000000A4
:10E74000EE24FF24870144E0A42EB12CCC24DD2448
:10E7500024C0C5010197F1F70894E11CF11C011DCB
:10E76000111D21E2E2162EE4F20620E0020720E06D
:10E77000120718F031E0C32ED12CC801B70127ECE5
:10E780003BE140E050E00F9441FE611571058105C9
:10E79000910519F485B1805885B98091C00087FD35
:10E7A00003C0C114D104A9F2A6014F5F5F4FC25E3E
:10E7B000DE4F59834883CE51D140C25EDE4F8881FF
:10E7C0009981CE51D140019711F00D9410FEC05D9A
:10E7D000DE4F19821882C053D14060E0C15DDE4F28
:10E7E0001882CF52D14088249924C35DDE4F19820C
:10E7F0001882CD52D140C05EDE4F188219821A8233
:10E800001B82C052D140CE5CDE4F188219821A8220
:10E810001B82C253D140EE24FF2487010BBFF701B6
:10E8200007911691C45CDE4F19830883CC53D14005
:10E830000D940BFEC25EDE4F28813981CE51D1404E
:10E840002130310509F52091C600C25EDE4F1982E4
:10E850001882CE51D14022C02F5F3F4F4F4F5F4FA4
:10E86000213082E138078AE7480780E0580780F0C6
:10E87000C45CDE4FE881F981CC53D140EF5FFF4F9C
:10E8800019F0EE27FF27099420E030E040E050E047
:10E890008091C00087FFE0CF2091C600C35DDE4FAE
:10E8A00048815981CD52D1404F5F5F4FC35DDE4FEC
:10E8B00059834883CD52D140213209F063C64A3092
:10E8C000510508F05FC60894811C911C53E0851621
:10E8D000910409F059C600E010E018C081E280936D
:10E8E000C6008091C00086FFFCCF8091C00080648C
:10E8F0008093C0002F5F3F4F2931310579F70F9486
:10E90000DCF10F5F1F4F0530110519F020E030E0FA
:10E91000E5CF10920A0210920B0210920C02109294
:10E920000D02109206021092070210920802109235
:10E930000902109202021092030210920402109235
:10E9400005028FEE90EE60E00F94F5F180E191EE1C
:10E9500060E00F94C2F18091C00087FFFCCF9091DE
:10E96000C600903608F09F759032B8F09093C600BC
:10E970008091C00086FFFCCF8091C00080648093AE
:10E98000C000A0E2A093C6008091C00086FFFCCF2B
:10E990008091C00080648093C000983409F4D7C18E
:10E9A0009934B8F4923409F459C1933458F490333B
:10E9B00019F1903308F4E3C59F33A1F1903409F0C5
:10E9C000DEC5BDC0953409F470C1963409F0D7C5D1
:10E9D00098C1923509F42BC2933538F49C3409F46C
:10E9E000F5C1913509F0CBC518C2963509F445C279
:10E9F000993509F0C4C567C483E792EE62E00F94CD
:10EA0000F5F110920602109207021092080210927D
:10EA1000090210920A0210920B0210920C0210923C
:10EA20000D0213C18FE792EE62E00F94F5F18FEEC5
:10EA300090EE60E00F94F5F181E291EE60E00F94CA
:10EA4000C2F187EB91EE60E00F94F5F180E391EE77
:10EA500060E00F94C2F184EE90EE60E00F94F5F167
:10EA60008FE391EE60E00F94C2F186E090E061E008
:10EA700070E00F9434F20F94DCF18DE591EE60E0DC
:10EA80000F94C2F189EC91EE60E00F94F5F18EE401
:10EA900091EE60E00F94C2F183EC91EE60E00F9490
:10EAA000F5F18CE691EE60E00F94C2F18EE10F94E7
:10EAB0000DF288E90F940DF281E00F940DF20F949E
:10EAC000DCF18BE791EE60E00F94C2F119E0E0E039
:10EAD000F0E010935700E4918E2F0F940DF20F94F5
:10EAE000DCF18AE891EE60E00F94C2F1E3E0F0E03F
:10EAF00010935700E4918E2F0F940DF20F94DCF1D8
:10EB000089E991EE60E00F94C2F1E2E0F0E0109349
:10EB10005700E4918E2F0F940DF20F94DCF188EAE8
:10EB200091EE60E00F94C2F1E1E0F0E01093570045
:10EB30001491812F0F940DF20F94DCF107CF8BE825
:10EB400092EE62E00F94F5F18BE492EE60E00F94A8
:10EB5000F5F10F94DCF100E010E019C0C8016F2D51
:10EB60000F947FFEFF2031F489E492EE60E00F9471
:10EB7000C2F10BC0F092C6008091C00086FFFCCFAE
:10EB80008091C00080648093C0000F5F1F4FC80158
:10EB900081519F41A0E0B0E0ABBFFC01F790BAE229
:10EBA000FB1621F0E2E000301E07C1F60F94DCF105
:10EBB0000F94DCF187E592EE60E00F94F5F10F948D
:10EBC000DCF1CC24DD2400E010E01EC0C8010F946D
:10EBD00077FEF82E882331F489E492EE60E00F94FA
:10EBE000C2F10BC08093C6008091C00086FFFCCFAD
:10EBF0008091C00080648093C000FE1419F00894D6
:10EC0000C11CD11C0F5F1F4FC80181519F41A0E063
:10EC1000B0E0ABBFFC01E790FAE2EF1621F022E092
:10EC20000030120799F60F94DCF10F94DCF182E6C4
:10EC300092EE60E00F94C2F1C60161E070E00F94C3
:10EC400034F20F94DCF10F94DCF110920202109276
:10EC50000302109204021092050278CE89E992EE26
:10EC600062E00F94F5F1279A2F9A16C02F9880E052
:10EC700090E0E0EDF7E03197F1F7019684369105E9
:10EC8000C1F72F9A80E090E0E0EDF7E03197F1F7DF
:10EC9000019684369105C1F78091C00087FFE6CFC9
:10ECA0008091C00087FFFCCF64C485EA92EE62E0E9
:10ECB0000F94F5F140910202509103026091040219
:10ECC0007091050281E020E10F9491F2809102029F
:10ECD00090910302A0910402B091050280509F4FD1
:10ECE000AF4FBF4F8093020290930302A0930402A0
:10ECF000B093050280509041A040B04008F426CE69
:10ED0000A4CF83EB92EE62E00F94F5F140910602FE
:10ED100050910702609108027091090280E020E1A1
:10ED20000F9491F28091060290910702A09108023F
:10ED3000B091090280509F4FAF4FBF4F80930602A2
:10ED400090930702A0930802B0930902FFCD80ECD4
:10ED500092EE62E00F94F5F183E792EE60E00F949B
:10ED6000F5F18FE792EE60E00F94F5F18BE892EE0B
:10ED700060E00F94F5F189E992EE60E00F94F5F10F
:10ED800085EA92EE60E00F94F5F183EB92EE60E09D
:10ED90000F94F5F180EC92EE60E00F94F5F187ECC2
:10EDA00092EE60E00F94F5F188ED92EE60E00F9442
:10EDB000F5F18FED92EE60E00F94F5F18AEE92EEB0
:10EDC00060E00F94F5F183E093EEBDCD87EC92EE19
:10EDD00062E00F94F5F181E40F947BF282E40F94EA
:10EDE0007BF283E40F947BF284E40F947BF285E45E
:10EDF0000F947BF286E40F947BF287E40F947BF20E
:10EE000088E40F947BF28AE40F947BF28BE40F94F6
:10EE10007BF28CE40F947BF299CD88ED92EE62E068
:10EE20000F94F5F1772473948824992409C48FED05
:10EE300092EE62E00F94F5F140910A0250910B02BC
:10EE400060910C0270910D0282E020E10F9491F22A
:10EE500080910A0290910B02A0910C02B0910D02D8
:10EE600080509F4FAF4FBF4F80930A0290930B0289
:10EE7000A0930C02B0930D0269CD8AEE92EE62E08F
:10EE80000F94F5F184EE90EE60E00F94F5F18FECC5
:10EE900091EE60E00F94F5F1662477244301CC5D98
:10EEA000DE4F19821882C452D140D401C301B695F5
:10EEB000A79597958795CA5DDE4F88839983AA8326
:10EEC000BB83C652D140CC5DDE4FA881B981C4520C
:10EED000D1401196CC5DDE4FB983A883C452D14096
:10EEE000CD0162E070E00F9434F2B0E2B093C6005E
:10EEF0008091C00086FFFCCF8091C0008064809329
:10EF0000C000EDE2E093C6008091C00086FFFCCF18
:10EF10008091C00080648093C000F0E2F093C6004E
:10EF20008091C00086FFFCCF8091C00080648093F8
:10EF3000C000CA5DDE4FE880F9800A811B81C6529D
:10EF4000D140BB27A12F902F8F2D0F940DF2CA5DBA
:10EF5000DE4F8881C652D1400F940DF2B0E2FB2EF5
:10EF6000F092C6008091C00086FFFCCF8091C00067
:10EF700080648093C0000DE30093C6008091C000C0
:10EF800086FFFCCF8091C00080648093C00010E2B7
:10EF90001093C6008091C00086FFFCCF8091C00016
:10EFA00080648093C0008BBEF3012791C65DDE4F65
:10EFB0002883CA52D140A22EBB24CC24DD2408943D
:10EFC000611C711C811C911C8BBEF3018791282E42
:10EFD0003324442455240894611C711C811C911C09
:10EFE0008BBEF3013791C55DDE4F3883CB52D140E4
:10EFF0000894611C711C811C911C8BBEF30147910C
:10F00000C45DDE4F4883CC52D140ADEFEA2EAFEF66
:10F01000FA2EAFEF0A2FAFEF1A2F6E0C7F1C801E57
:10F02000911E142D032DF22CEE24EA0CFB1C0C1D5A
:10F030001D1D0F940DF220E22093C6008091C000A8
:10F0400086FFFCCF8091C00080648093C000C65DC5
:10F05000DE4F8881CA52D1400F940DF230E23093D6
:10F06000C6008091C00086FFFCCF8091C000806404
:10F070008093C000C45DDE4F8881CC52D1400F9494
:10F080000DF240E24093C6008091C00086FFFCCFA5
:10F090008091C00080648093C000C55DDE4F888190
:10F0A000CB52D1400F940DF250E25093C6008091A4
:10F0B000C00086FFFCCF8091C00080648093C000B8
:10F0C0008FEFE8168FEFF80680E0080780E018075A
:10F0D00031F484E092EE60E00F94C2F1DFC0D80119
:10F0E000C7018070907CA070B0708050904CA040A0
:10F0F000B040D1F52FEF3FE340E050E0E222F322B1
:10F1000004231523CA5DDE4FA880B980CA80DB8046
:10F11000C652D140AE0CBF1CC01ED11EAA0CBB1CD7
:10F12000CC1CDD1C8EE092EE60E00F94C2F1BB2798
:10F13000A12F902F8F2D0F940DF28E2D0F940DF285
:10F1400030E23093C6008091C00086FFFCCF8091F2
:10F15000C00080648093C0004EE34093C60080915D
:10F16000C00086FFFCCF87C08EE09EEFA0E0B0E03D
:10F17000E822F9220A231B239CE0E91694E9F90608
:10F1800090E0090790E0190709F088C0C45DDE4FE0
:10F19000A881CC52D140EA2EFF2400E010E0102FCD
:10F1A0000F2DFE2CEE24C55DDE4FB881CB52D14031
:10F1B000EB0EF11C011D111DD601C501817090706F
:10F1C000A070B070DC0199278827E80EF91E0A1F8D
:10F1D0001B1F20EF30E040E050E0A222B322C42207
:10F1E000D52241E1AA0CBB1CCC1CDD1C4A95D1F7F1
:10F1F000EA0CFB1C0C1D1D1D81E090E0A0E0B0E0BE
:10F20000282239224A225B2235E1220C331C441C7D
:10F21000551C3A95D1F7E20CF31C041D151D57013E
:10F220006801AA0CBB1CCC1CDD1C85E192EE60E0E1
:10F230000F94C2F1C801AA27BB270F940DF2BB2778
:10F24000A12F902F8F2D0F940DF28E2D0F940DF274
:10F2500090E29093C6008091C00086FFFCCF809121
:10F26000C00080648093C000AEE3A093C60080918C
:10F27000C00086FFFCCF8091C00080648093C000F6
:10F28000C601AA27BB270F940DF2BB27AD2D9C2DDD
:10F290008B2D0F940DF28A2D0F940DF20F94DCF14B
:10F2A000CC5DDE4FE881F981C452D140F99709F471
:10F2B0004DCBF4E0EF2EF12C012D112D6E0C7F1CA7
:10F2C000801E911EF2CD83E093EE62E00F94F5F183
:10F2D0008AE192EE60E00F94C2F18091C00087FF56
:10F2E000FCCF1091C6001F751093C6008091C0001E
:10F2F00086FFFCCF8091C00080648093C0000F9493
:10F30000DCF1812F81548A3108F036C1163409F4BA
:10F3100095C0173490F4133409F44EC0143430F40B
:10F320001134F1F0123409F01DC130C0143409F465
:10F3300059C0153409F016C16BC01A3409F4C4C0A1
:10F340001B3438F4173409F48FC0183409F00AC19B
:10F35000A1C01B3409F4D2C01C3409F003C1E8C0B9
:10F360008FEF81B90DC082B1809582B980E090E0C5
:10F37000E0EDF7E03197F1F70196883C9105C1F790
:10F380008091C00087FFEFCF12B8EFC08FEF84B934
:10F390000DC085B1809585B980E090E0E0EDF7E0A3
:10F3A0003197F1F70196883C9105C1F78091C00033
:10F3B00087FFEFCF15B8D9C08FEF87B90DC088B1DF
:10F3C000809588B980E090E0E0EDF7E03197F1F7C3
:10F3D0000196883C9105C1F78091C00087FFEFCF6F
:10F3E00018B8C3C08FEF8AB90DC08BB180958BB9A7
:10F3F00080E090E0E0EDF7E03197F1F70196883C8E
:10F400009105C1F78091C00087FFEFCF1BB8ADC059
:10F410008FEF8DB90DC08EB180958EB980E090E0F0
:10F42000E0EDF7E03197F1F70196883C9105C1F7DF
:10F430008091C00087FFEFCF1EB897C08FEF80BBD1
:10F440000DC081B3809581BB80E090E0E0EDF7E0F6
:10F450003197F1F70196883C9105C1F78091C00082
:10F4600087FFEFCF11BA81C08FEF83BB0DC084B38C
:10F47000809584BB80E090E0E0EDF7E03197F1F714
:10F480000196883C9105C1F78091C00087FFEFCFBE
:10F4900014BA6BC08FEF809301010FC080910201FD
:10F4A00080958093020180E090E0E0EDF7E03197F5
:10F4B000F1F70196883C9105C1F78091C00087FF64
:10F4C000EDCF1092020151C08FEF809304010FC065
:10F4D0008091050180958093050180E090E0E0ED4A
:10F4E000F7E03197F1F70196883C9105C1F78091DB
:10F4F000C00087FFEDCF1092050137C08FEF8093DA
:10F5000007010FC08091080180958093080180E079
:10F5100090E0E0EDF7E03197F1F70196883C910536
:10F52000C1F78091C00087FFEDCF109208011DC088
:10F530008FEF80930A010FC080910B01809580931B
:10F540000B0180E090E0E0EDF7E03197F1F70196F4
:10F55000883C9105C1F78091C00087FFEDCF1092E4
:10F560000B0103C085E292EEEEC98091C00087FFD7
:10F57000FCCF8091C600EAC988E392EEE4C98CE131
:10F5800091EEE1C988249924933011F1943028F444
:10F59000913089F09230B8F408C0953061F195301F
:10F5A000F0F0963009F048C043C02B3109F042C951
:10F5B00091E06BE13FC96227C15DDE4F2883CF52E6
:10F5C000D14092E037C9B22FA0E0622793E032C960
:10F5D000822F90E0A82BB92B622794E02BC92E3004
:10F5E00009F039C3622795E0C05DDE4F19821882A9
:10F5F000C053D1401FC9E1E0F0E0EC0FFD1FC05D3A
:10F60000DE4F08811981C053D140E00FF11F2083E4
:10F610000F5F1F4FC05DDE4F19830883C053D14079
:10F6200062270A171B0709F005C9D80196E002C92D
:10F63000261709F010C303C0973009F0FBC87724E0
:10F640009981933109F412C19431C8F4963009F4C8
:10F65000D8C0973050F4923009F406C1933009F4C1
:10F660006DC0913009F059C253C0913109F477C08F
:10F67000923108F0BBC0903109F04FC2F5C098310B
:10F6800009F487C0993150F4953109F4EFC09531F0
:10F6900008F4C6C1963109F040C2C2C19A3109F4DA
:10F6A0006CC09A3108F491C09B3109F45BC09D3164
:10F6B00009F033C29D81903359F48F81882311F46E
:10F6C0009EE11CC0813011F091E018C098E916C08D
:10F6D000892F807591F0903539F4E0E0F0E089E011
:10F6E0008093570094910AC0983539F4E3E0F0E034
:10F6F00089E080935700949101C090E01A821B82A8
:10F700008D818C831D829E831F8227E030E009C299
:10F710001A8288E08B8381E48C8386E58D8382E581
:10F720008E8389E48F8383E5888780E589878FE5E9
:10F730008A8782E38B872BE030E0F3C18A818139AD
:10F7400041F0823941F0803911F48FE005C080E04A
:10F7500003C082E001C08AE01A828B8344C0772410
:10F76000739482C08D81882311F48EE12CC0813086
:10F7700011F081E028C088E926C01A82E1E0F0E0BB
:10F7800089E08093570084918B831C8224E030E0D1
:10F79000C8C18B81803589F48C81883039F4E2E0EE
:10F7A000F0E089E08093570084910DC0E0E0F0E044
:10F7B00089E080935700849106C0E3E0F0E089E09F
:10F7C0008093570084911A82DFCF8D81836C99E0FA
:10F7D000E1E0F0E0082E90935700E89507B600FCB2
:10F7E000FDCF1A821B8223E030E09BC180EC8A832C
:10F7F000CE5CDE4F188219821A821B82C253D1401E
:10F800008EC18A8190E0A0E0B0E0582F44273327D2
:10F8100022278B8190E0A0E0B0E0DC0199278827C7
:10F82000282B392B4A2B5B2B8D8190E0A0E0B0E098
:10F83000282B392B4A2B5B2B8C8190E0A0E0B0E089
:10F84000BA2FA92F982F8827282B392B4A2B5B2BCF
:10F85000220F331F441F551FC05EDE4F288339839C
:10F860004A835B83C052D1401A8259C13A81C95C34
:10F87000DE4F3883C753D140CA5CDE4F1882C6536F
:10F88000D1408B81C82EDD24CA5CDE4F488159816E
:10F89000C653D140C42AD52A933109F082C0CE5C28
:10F8A000DE4F88819981AA81BB81C253D1408050AB
:10F8B000904CA340B04030F583E0CE5CDE4FE88052
:10F8C000F9800A811B81C253D140F70100935B008C
:10F8D00080935700E89507B600FCFDCFCE5CDE4F65
:10F8E000088119812A813B81C253D14000501F4FAA
:10F8F0002F4F3F4FCE5CDE4F088319832A833B8313
:10F90000C253D140C05EDE4F488159816A817B81FC
:10F91000C052D140DE011B9631E08C9111962C91A2
:10F9200011971296C75CDE4F2883C953D140C85C3B
:10F93000DE4F1882C853D14090E0C85CDE4FE881AA
:10F94000F981C853D1408E2B9F2B0C01FA01609393
:10F950005B0030935700E89511244E5F5F4F6F4F67
:10F960007F4F0EEFE02E0FEFF02ECE0CDF1CC114F8
:10F97000D10499F685E0C05EDE4F088119812A81A5
:10F980003B81C052D140F80120935B008093570027
:10F99000E89507B600FCFDCF81E180935700E8951C
:10F9A00035C0C05EDE4F88819981AA81BB81C0527B
:10F9B000D140B695A795979587957C018601ABE0D8
:10F9C000AA2EB12CAC0EBD1E0BC0D5016D915D01F0
:10F9D000C7010F947FFE0894E11CF11C01501040F8
:10F9E0000115110591F7A60160E070E0440F551F65
:10F9F000661F771FC05EDE4FE880F9800A811B8199
:10FA0000C052D1404E0D5F1D601F711F1A82C05E33
:10FA1000DE4F488359836A837B83C052D1407FC0C5
:10FA2000FA80C55CDE4FF882CB53D140C65CDE4F16
:10FA30001882CA53D1408B81C82EDD24C65CDE4FAC
:10FA400008811981CA53D140C02AD12A1A828981DA
:10FA5000BE016D5F7F4F843121F59601C05EDE4FA0
:10FA6000E880F9800A811B81C052D1400BBFF701A9
:10FA700087919691DB018C9311969C936E5F7F4FDB
:10FA8000D801C7010296A11DB11DC05EDE4F88835B
:10FA90009983AA83BB83C052D14022503040F1F6F3
:10FAA00036C0C05EDE4F288139814A815B81C052F9
:10FAB000D1400894C108D108760100E010E0089414
:10FAC000C11CD11C0894E11CF11C011D111DE20E8A
:10FAD000F31E041F151F21BDBB27A52F942F832FB5
:10FAE00082BD2F5F3F4F4F4F5F4FF89A80B5DB01CC
:10FAF0008D93BD012E153F054007510761F7C05E8C
:10FB0000DE4F288339834A835B83C052D1409601FC
:10FB10002D5F3F4FFB01108204C080EC8A8322E0FE
:10FB200030E08BE18093C6008091C00086FFFCCF5F
:10FB30008091C00080648093C000C15DDE4FF88179
:10FB4000CF52D140F093C6008091C00086FFFCCF19
:10FB50008091C00080648093C000432F3093C60022
:10FB60008091C00086FFFCCF8091C00080648093AC
:10FB7000C000922F2093C6008091C00086FFFCCF6A
:10FB80008091C00080648093C0008EE08093C600A6
:10FB90008091C00086FFFCCF8091C000806480937C
:10FBA000C00065E1C15DDE4FE880CF52D1406E25D7
:10FBB00069276427FE01319610C090819093C6009A
:10FBC0008091C00086FFFCCF31968091C000806498
:10FBD0008093C0006927215030402115310569F715
:10FBE0006093C6008091C00086FFFCCF8091C0006A
:10FBF00080648093C00085B1805885B9772081F4F6
:10FC0000C15DDE4F0881CF52D1400F5FC15DDE4F35
:10FC10000883CF52D14090E0A0E0B0E00D941AF4F8
:10FC200027982F9880E090E020ED37E0F901319798
:10FC3000F1F7019684369105C9F700008091C00064
:10FC40008D7F8093C00081E180935700E895EE2777
:10FC5000FF270994FFCF90E00D941AF497FB092E2B
:10FC600007260AD077FD04D02ED006D000201AF443
:10FC7000709561957F4F0895F6F7909581959F4F08
:10FC80000895A1E21A2EAA1BBB1BFD010DC0AA1FDD
:10FC9000BB1FEE1FFF1FA217B307E407F50720F0F5
:10FCA000A21BB30BE40BF50B661F771F881F991F70
:10FCB0001A9469F760957095809590959B01AC01B9
:10FCC000BD01CF010895AA1BBB1B51E107C0AA1FAC
:10FCD000BB1FA617B70710F0A61BB70B881F991FED
:10FCE0005A95A9F780959095BC01CD010895F99991
:10FCF000FECF92BD81BDF89A992780B50895262F31
:10FD0000F999FECF1FBA92BD81BD20BD0FB6F89400
:0EFD1000FA9AF99A0FBE01960895F894FFCF63
:040000033000E000E9
:00000001FF
