:100000000C9471000C9499000C9499000C94990034
:100010000C9499000C9499000C9499000C949900FC
:100020000C9499000C9499000C9499000C949900EC
:100030000C9499000C9499000C9499000C949900DC
:100040000C94DE030C9499000C944E040C94280438
:100050000C9499000C9499000C9499000C949900BC
:100060000C9499000C94990005A84CCDB2D44EB9CB
:100070003836A9020C50B9918688083CA6AAAA2A4B
:10008000BE000000803F0000000023002600290081
:1000900000000000240027002A00000000002500C6
:1000A00028002B00040404040404040402020202D5
:1000B000020203030303030301020408102040802B
:1000C00001020408102001020408102000000008AA
:1000D000000201000003040700000000000000000F
:1000E000E90811241FBECFEFD8E0DEBFCDBF11E07D
:1000F000A0E0B1E0E4E0F9E102C005900D92A23C7D
:10010000B107D9F722E0A2ECB1E001C01D92A63EF2
:10011000B207E1F710E0C1E7D0E004C02197FE018B
:100120000E94750CC037D107C9F70E94C5040C9412
:10013000800C0C940000833081F028F4813099F019
:100140008230A1F008958730A9F08830B9F084306A
:10015000D1F4809180008F7D03C0809180008F77E3
:1001600080938000089584B58F7702C084B58F7D19
:1001700084BD08958091B0008F7703C08091B00056
:100180008F7D8093B00008951F93CF93DF93E8EDA8
:10019000F0E09491E4ECF0E0D491E0EBF0E0C49175
:1001A000CC23D1F0182F992319F0892F0E949B009E
:1001B000EC2FF0E0EE0FFF1FE656FF4FA591B49134
:1001C0009FB7F894111104C08C91D095D82302C028
:1001D000EC91DE2BDC939FBFDF91CF911F910895AF
:1001E000CF93DF9390E0FC01E854FF4F2491FC0192
:1001F000EC55FF4F8491882361F190E0880F991F9F
:10020000FC01E057FF4FC591D491FC01E656FF4F2A
:10021000A591B491611109C09FB7F8948881209588
:1002200082238883EC912E230BC0623061F49FB748
:10023000F8948881322F309583238883EC912E2B7C
:100240002C939FBF06C08FB7F894E8812E2B28838C
:100250008FBFDF91CF9108958E3008F08E50877058
:10026000806480937C0080917A00806480937A001F
:1002700080917A0086FDFCCF8091780020917900F2
:1002800090E0922B08953FB7F894809145029091A9
:100290004602A0914702B091480226B5A89B05C02E
:1002A0002F3F19F00196A11DB11D3FBFBA2FA92FF5
:1002B000982F8827820F911DA11DB11DBC01CD0172
:1002C00042E0660F771F881F991F4A95D1F708955E
:1002D000CF92DF92EF92FF920F931F93CF93DF9312
:1002E0006C017A018B01C0E0D0E0CE15DF0581F012
:1002F000D8016D918D01D601ED91FC910190F081B5
:10030000E02DC6010995892B11F02196EECF7E01D3
:10031000C701DF91CF911F910F91FF90EF90DF9078
:10032000CF900895089580E090E00895FC01538DEA
:10033000448D252F30E0842F90E0821B930B5417BF
:1003400010F0CF96089501970895FC01918D828D4C
:10035000981761F0828DDF01A80FB11D5D968C9119
:10036000928D9F5F9F73928F90E008958FEF9FEF24
:100370000895FC01918D828D981731F0828DE80FE0
:10038000F11D858D90E008958FEF9FEF0895FC019A
:10039000918D228D892F90E0805C9F4F821B910967
:1003A0008F739927089589E492E00E94C70121E0A4
:1003B000892B09F420E0822F0895FC01848DDF0150
:1003C000A80FB11DA35ABF4F2C91848D90E00196C8
:1003D0008F739927848FA689B7892C93A089B189B7
:1003E0008C91837080648C93938D848D981306C058
:1003F0000288F389E02D80818F7D80830895EF92BC
:10040000FF920F931F93CF93DF93EC0181E0888FCE
:100410009B8D8C8D981305C0E889F989808185FDB5
:1004200026C0F62E0B8D10E00F5F1F4F0F731127A4
:10043000E02E8C8DE8120CC00FB607FCFACFE889CD
:10044000F989808185FFF5CFCE010E94DD01F1CFD2
:100450008B8DFE01E80FF11DE35AFF4FF0829FB72D
:10046000F8940B8FEA89FB89808180620AC09FB76C
:10047000F894EE89FF896083E889F9898081837027
:10048000806480839FBF81E090E0DF91CF911F91D6
:100490000F91FF90EF900895CF93DF93EC01888D3B
:1004A0008823C9F0EA89FB89808185FD05C0A88978
:1004B000B9898C9186FD0FC00FB607FCF5CF8081FE
:1004C00085FFF2CFA889B9898C9185FFEDCFCE0148
:1004D0000E94DD01E7CFDF91CF91089580E090E0A9
:1004E000892B29F00E94D30181110C9400000895FA
:1004F000009769F0FC0101900020E9F73197AF0106
:10050000481B590BBC0189E492E00C94680180E01F
:1005100090E00895CF93DF9388EA91E00E947802FB
:10052000EC0182E191E00E9478028C0F9D1FDF9127
:10053000CF9108958F929F92AF92BF920F931F9386
:10054000CF93DF93CDB7DEB7A1970FB6F894DEBF98
:100550000FBECDBF19A2423008F44AE08E010F5DF4
:100560001F4F842E912CA12CB12CA50194010E9427
:10057000340CE62FB901CA0101501109EA3014F414
:10058000E05D01C0E95CD801EC93232B242B252BE3
:1005900061F7C8010E947802A1960FB6F894DEBFF9
:1005A0000FBECDBFDF91CF911F910F91BF90AF9044
:1005B0009F908F9008950C9478024F925F926F9263
:1005C0007F928F929F92AF92BF92CF92DF92EF92E3
:1005D000FF926B017C019B01AC010E94DF0B882321
:1005E00019F085E191E027C046015701E894B7F87A
:1005F0002FEF3FEF4FE75FE7C501B4010E94DF0B2C
:1006000081110DC02FEF3FEF4FE75FE7C501B40148
:100610000E94830918161CF489E191E00CC02FEFA9
:100620003FEF4FE75FE4C701B6010E941F0B1816AA
:1006300084F48DE191E0FF90EF90DF90CF90BF9038
:10064000AF909F908F907F906F905F904F900C94A1
:1006500078022FEF3FEF4FE75FECC701B6010E9432
:10066000830987FDE6CF20E030E0A901C701B6018C
:100670000E94830987FF0BC06DE289E492E00E942B
:10068000FF015C01F7FAF094F7F8F09402C0A12C96
:10069000B12C2AE037ED43EA5BE3C701B6010E94C3
:1006A00017092B013C010E94FF096B017C010E948C
:1006B0002E0A9B01AC01C301B2010E9416092B0155
:1006C0003C014AE0C701B6010E949A027C01EA0C93
:1006D000FB1C6EE289E492E00E94FF01E80EF91E25
:1006E00020E030E040E251E4C301B2010E94240B5B
:1006F0002B013C010E94FF094B01A12CB12C4AE0C7
:10070000C501B4010E949A02E80EF91EC501B401A8
:100710000E942E0A9B01AC01C301B2010E9416097E
:1007200020E030E040E251E40E94240B0E94FF09E7
:1007300080E090E04AE00E949A028E0D9F1DFF909B
:10074000EF90DF90CF90BF90AF909F908F907F9071
:100750006F905F904F900895CF92DF92EF92FF924B
:10076000CF93DF936C01990FEE08FF08F7FE19C0D5
:100770006DE289E492E00E94FF01EC016627772791
:10078000CB016C197D098E099F094AE00E949A02EB
:100790008C0F9D1FDF91CF91FF90EF90DF90CF9056
:1007A00008954AE0C701B601DF91CF91FF90EF9025
:1007B000DF90CF900C949A020E947B0C1F920F92B4
:1007C0000FB60F9211242F933F938F939F93AF9364
:1007D000BF938091410290914202A0914302B09157
:1007E00044023091400223E0230F2D3720F401967C
:1007F000A11DB11D05C026E8230F0296A11DB11D44
:10080000209340028093410290934202A0934302BE
:10081000B09344028091450290914602A091470214
:10082000B09148020196A11DB11D8093450290939D
:100830004602A0934702B0934802BF91AF919F91A7
:100840008F913F912F910F900FBE0F901F90189591
:100850001F920F920FB60F9211242F933F934F9335
:100860005F936F937F938F939F93AF93BF93EF9318
:10087000FF9389E492E00E94DD01FF91EF91BF9127
:10088000AF919F918F917F916F915F914F913F9128
:100890002F910F900FBE0F901F9018951F920F92DF
:1008A0000FB60F9211242F938F939F93EF93FF9383
:1008B000E0915902F0915A028081E0915F02F0913B
:1008C000600282FD12C09081809162028F5F8F73FF
:1008D00020916302821751F0E0916202F0E0E75B41
:1008E000FD4F958F8093620201C08081FF91EF914F
:1008F0009F918F912F910F900FBE0F901F90189581
:10090000CF92DF92EF92FF920F931F93E82FF92F70
:1009100005C0015011092109310961F19081962327
:100920009417B9F305C0015011092109310911F1DA
:10093000908196239413F7CFC12CD12CE12CF12C6C
:100940000AC08FEFC81AD80AE80AF80A0C151D0564
:100950002E053F0579F080818623841791F36C2D55
:100960007D2D8E2D9F2D1F910F91FF90EF90DF9089
:10097000CF90089560E070E080E090E01F910F91CB
:10098000FF90EF90DF90CF900895789484B58260C7
:1009900084BD84B5816084BD85B5826085BD85B523
:1009A000816085BD80916E00816080936E001092A1
:1009B000810080918100826080938100809181001C
:1009C00081608093810080918000816080938000AD
:1009D0008091B10084608093B1008091B00081600B
:1009E0008093B00080917A00846080937A00809137
:1009F0007A00826080937A0080917A00816080938F
:100A00007A0080917A00806880937A001092C10009
:100A100061E08CE00E94F00060E089E00E94F0005C
:100A200060E08EE00E94F000E0915902F0915A02DD
:100A300082E08083E0915502F09156021082E091AD
:100A40005702F09158028FEC808310926102E0917E
:100A50005D02F0915E0286E08083E0915B02F0919E
:100A60005C02808180618083E0915B02F0915C0296
:100A7000808188608083E0915B02F0915C028081DC
:100A800080688083E0915B02F0915C0280818F7DC1
:100A9000808381E090E09093FB018093FA0180E0F5
:100AA00090E0A0E0B1E48093000290930102A09353
:100AB0000202B093030280E090E0A0E0B4E48093EF
:100AC0001C0290931D02A0931E02B0931F0261ECC2
:100AD000262E60E0362E8FB7F89440914102509157
:100AE000420260914302709144028FBF2EE4209332
:100AF0007C000E9443016B017C0152E0852E912C09
:100B0000A12CB12C0E944301DC01CB018C199D0961
:100B1000AE09BF09883E9340A105B10598F381E075
:100B2000881A9108A108B10898EEC90E93E0D91E61
:100B3000E11CF11C81149104A104B10419F7809106
:100B40007A00806480937A0080917A0086FDFCCFE1
:100B5000809178002091790030E0322F2227A9017E
:100B6000330F660B770B9A01AB01282B60E070E323
:100B700081E190E00E94560C69017A01C8ECD5E051
:100B80008091FA010E942C0190930B0280930A023B
:100B9000BC01990F880B990B0E94300A4B015C0134
:100BA00040901C0250901D0260901E0270901F0227
:100BB000A30192010E94160920E030E040E85AE3C8
:100BC0000E94240BA30192010E9417099B01AC0112
:100BD00060931C0270931D0280931E0290931F026B
:100BE000C501B4010E9416096093140270931502A6
:100BF00080931602909317029B01AC010E94240B74
:100C000060932C0270932D0280932E0290932F02FA
:100C100020913002309131024091320250913302E2
:100C20000E94170960933002709331028093320260
:100C300090933302219709F0A3CF20E030E049EBF5
:100C400054E40E948D090E949F0B4B015C01B60188
:100C5000DD0C880B990B0E94300A20E030E04AE757
:100C600054E40E948D0920E030E040E85AE30E94FD
:100C7000240B209100023091010240910202509118
:100C800003020E94240BA50194010E94240B6B0116
:100C90007C016093F4017093F5018093F6019093C9
:100CA000F70110923002109231021092320210922B
:100CB0003302E5EDF0E08491F101D491EDEAF0E04A
:100CC000C491CC2391F081110E949B00EC2FF0E0A5
:100CD000EE0FFF1FEA57FF4FA591B4918C91D823D7
:100CE00091E080E021F490E002C090E080E09093F9
:100CF000E2018093E3018EE00E942C019093E101D8
:100D00008093E001BC01990F880B990B0E94300A77
:100D10002CEF36E34CED5EE30E94240B6093DC0184
:100D20007093DD018093DE019093DF0123EF34E0C7
:100D300045EB5FE30E948D096093D8017093D90160
:100D40008093DA019093DB011092D7011092D601C3
:100D50008091D6019091D70105970CF06BC0F101FD
:100D60006491EDEAF0E08491E82FF0E0EE0FFF1FD0
:100D7000EA57FF4F8591949100E412E42FE030E0B0
:100D8000462F0E948004611571058105910549F087
:100D9000DC01CB010196A11DB11DBC01CD019F70ED
:100DA00003C060E070E0CB010E942E0A2DEB37E318
:100DB00046E855E30E94240B20E030E044EB53E486
:100DC0000E94240B20E030E048E452E40E94240B0F
:100DD0004B015C012091D2013091D3014091D401AB
:100DE0005091D5010E941F0B1816D4F48092D201A5
:100DF0009092D301A092D401B092D50121EE3EE2AF
:100E000045E652E4C501B4010E948D090E9488099B
:100E10006093CE017093CF018093D0019093D10164
:100E20008091D6019091D70101969093D70180933C
:100E3000D6018ECF20E030E044EB53E46091D20144
:100E40007091D3018091D4019091D5010E941F0B24
:100E50001816A4F41092D2011092D3011092D4016A
:100E60001092D50180E090E0A0E8BFE38093CE012E
:100E70009093CF01A093D001B093D10120E030E056
:100E8000A9016091D2017091D3018091D401909118
:100E9000D5010E948309811114C01092D2011092D1
:100EA000D3011092D4011092D50180E090E0A0E827
:100EB000BFE38093CE019093CF01A093D001B09374
:100EC000D10121EE3EE245E652E46091D2017091FB
:100ED000D3018091D4019091D5010E948D090E9487
:100EE000910B6093CA017093CB018093CC019093D6
:100EF000CD0181E291E00E94DB028090CE019090D2
:100F0000CF01A090D001B090D10120E030E0A90144
:100F1000C501B4010E941F0B181624F0B7FAB09453
:100F2000B7F8B094C501B4010E94DD020E948A02A4
:100F300085E291E00E94DB022091D8013091D90135
:100F40004091DA015091DB01C701B6010E94240BE8
:100F50002091CE013091CF014091D0015091D1012B
:100F60000E94240B0E94DD0288E291E00E94DB02D5
:100F70000E948A028DE291E00E94DB022091D8015A
:100F80003091D9014091DA015091DB01C701B601DE
:100F90000E94240B2091CA013091CB014091CC01D9
:100FA0005091CD010E94240B0E94DD0288E291E065
:100FB0000E94DB020E948A0280E391E00E94DB0231
:100FC0002091D8013091D9014091DA015091DB0193
:100FD000C701B6010E94240B0E94DD0283E391E069
:100FE0000E94DB020E948A0287E391E00E94DB02FA
:100FF0006091CA017091CB018091CC019091CD019B
:101000000E94DD0288EA91E00E94DB020E948A02CF
:101010002091D8013091D9014091DA015091DB0142
:10102000C701B6010E94240B4B015C019B01AC017E
:101030006091CE017091CF018091D0019091D1014A
:101040000E94240B6093C6017093C7018093C8016E
:101050009093C9018092C2019092C301A092C401F1
:10106000B092C50184E491E00E94DB022091C201AC
:101070003091C3014091C4015091C5016091C601F6
:101080007091C7018091C8019091C9010E948D099A
:101090000E94DD0288EA91E00E94DB020E948A023F
:1010A00084E591E00E94DB026091D2017091D3014E
:1010B0008091D4019091D5010E94DD0288EA91E0EF
:1010C0000E94DB021092D2011092D3011092D4013F
:1010D0001092D5018EE591E00E94DB028091E20141
:1010E0009091E3010E94AC0383E791E00E94DB0250
:1010F0008091E0019091E1010E94AC0386E891E0CB
:101100000E94DB026091DC017091DD018091DE01C3
:101110009091DF010E94DD0286E991E00E94DB02EE
:101120006091D8017091D9018091DA019091DB0131
:101130000E94DD028AEA91E00E94DB02C701B6014B
:101140000E94DD020E948A020E948A02C090CE01A3
:10115000D090CF01E090D001F090D10120E030E0BC
:10116000A901C701B6010E941F0B18165CF423E306
:1011700033E343E35FE3C701B6010E948309181616
:10118000C4F00AC023E333E343E35FEBC701B601D6
:101190000E941F0B87FD02C081E016C026E636E6DE
:1011A00046E65FEBC701B6010E948309181674F08A
:1011B0000AC026E636E646E65FE3C701B6010E94AE
:1011C0001F0B87FD03C080E00E94C4000E946E02D6
:1011D00082CCE9E4F2E01382128288EE93E0A0E090
:1011E000B0E084839583A683B78384E091E0918304
:1011F000808385EC90E09587848784EC90E09787E6
:10120000868780EC90E0918B808B81EC90E0938BD3
:10121000828B82EC90E0958B848B86EC90E0978BB0
:10122000868B118E128E138E148E08955058BB2704
:10123000AA270E942E090C94D10A0E94980A38F01D
:101240000E949F0A20F039F49F3F19F426F40C9471
:10125000950A0EF4E095E7FB0C948F0AE92F0E94A3
:10126000F60A58F3BA17620773078407950720F048
:1012700079F4A6F50C94180B0EF4E0950B2EBA2F0A
:10128000A02D0B01B90190010C01CA01A00111248C
:10129000FF27591B99F0593F50F4503E68F11A1638
:1012A000F040A22F232F342F4427585FF3CF4695C9
:1012B00037952795A795F0405395C9F77EF41F16EB
:1012C000BA0B620B730B840BBAF09150A1F0FF0FB5
:1012D000BB1F661F771F881FC2F70EC0BA0F621FA1
:1012E000731F841F48F4879577956795B795F79591
:1012F0009E3F08F0B0CF9395880F08F09927EE0F26
:101300009795879508950E946B0A08F481E00895E7
:101310000E94A80AE3950C94E20A0E94A1090C9489
:10132000D10A0E949F0A58F00E94980A40F029F4BE
:101330005F3F29F00C948F0A51110C94190B0C94F7
:10134000950A0E94F60A68F39923B1F3552391F3A5
:10135000951B550BBB27AA2762177307840738F024
:101360009F5F5F4F220F331F441FAA1FA9F335D081
:101370000E2E3AF0E0E832D091505040E695001C35
:10138000CAF72BD0FE2F29D0660F771F881FBB1FEF
:10139000261737074807AB07B0E809F0BB0B802DCD
:1013A000BF01FF2793585F4F3AF09E3F510578F0F9
:1013B0000C948F0A0C94190B5F3FE4F3983ED4F31E
:1013C000869577956795B795F7959F5FC9F7880FCD
:1013D000911D9695879597F90895E1E0660F771F1F
:1013E000881FBB1F621773078407BA0720F0621BB0
:1013F000730B840BBA0BEE1F88F7E09508950E94DB
:10140000FE0A88F09F5798F0B92F9927B751B0F08E
:10141000E1F0660F771F881F991F1AF0BA95C9F778
:1014200014C0B13091F00E94180BB1E008950C94F3
:10143000180B672F782F8827B85F39F0B93FCCF3A6
:10144000869577956795B395D9F73EF490958095F5
:10145000709561957F4F8F4F9F4F0895E89409C015
:1014600097FB3EF490958095709561957F4F8F4FD7
:101470009F4F9923A9F0F92F96E9BB279395F695ED
:10148000879577956795B795F111F8CFFAF4BB0F6B
:1014900011F460FF1BC06F5F7F4F8F4F9F4F16C0CF
:1014A000882311F096E911C0772321F09EE8872F59
:1014B000762F05C0662371F096E8862F70E060E015
:1014C0002AF09A95660F771F881FDAF7880F96958E
:1014D000879597F90895990F0008550FAA0BE0E832
:1014E000FEEF16161706E807F907C0F012161306E6
:1014F000E407F50798F0621B730B840B950B39F426
:101500000A2661F0232B242B252B21F408950A268B
:1015100009F4A140A6958FEF811D811D089597F9CB
:101520009F6780E870E060E008959FEF80EC089589
:1015300000240A94161617061806090608950024B2
:101540000A94121613061406050608950C94950ABB
:101550000E94FE0AD8F3E894E0E0BB279F57F0F022
:101560002AED3FE049EC06C0EE0FBB0F661F771F68
:10157000881F28F0B23A62077307840728F0B25A2E
:10158000620B730B840BE3959A9572F7803830F4F5
:101590009A95BB0F661F771F881FD2F790480C944F
:1015A000E60B092E0394000C11F4882352F0BB0FB4
:1015B00040F4BF2B11F460FF04C06F5F7F4F8F4F6B
:1015C0009F4F0895EF93E0FF07C0A2EA2AED3FE0A6
:1015D00049EC5FEB0E942E090E94D10A0F90039400
:1015E00001FC9058E8E6F0E00C94F90B57FD905898
:1015F000440F551F59F05F3F71F04795880F97FBD7
:10160000991F61F09F3F79F0879508951216130690
:101610001406551FF2CF4695F1DF08C016161706BF
:101620001806991FF1CF86957105610508940895F4
:10163000E894BB2766277727CB0197F908950E9486
:101640006B0A08F48FEF08950E94370B0C94D10AAF
:101650000E94980A38F00E949F0A20F0952311F00A
:101660000C948F0A0C94950A11240C94190B0E9467
:10167000F60A70F3959FC1F3950F50E0551F629FD6
:10168000F001729FBB27F00DB11D639FAA27F00DDB
:10169000B11DAA1F649F6627B00DA11D661F829F02
:1016A0002227B00DA11D621F739FB00DA11D621FE7
:1016B000839FA00D611D221F749F3327A00D611D04
:1016C000231F849F600D211D822F762F6A2F1124E6
:1016D0009F5750409AF0F1F088234AF0EE0FFF1F19
:1016E000BB1F661F771F881F91505040A9F79E3F70
:1016F000510580F00C948F0A0C94190B5F3FE4F3B2
:10170000983ED4F3869577956795B795F795E795C5
:101710009F5FC1F7FE2B880F911D9695879597F9CE
:1017200008959F930E94A80A0F9007FCEE5F0C9407
:10173000E20A19F416F40C94950A0C94E40B0E9436
:10174000FE0AB8F39923C9F3B6F39F57550B87FFE9
:101750000E94F20B0024A0E640EA900180585695C2
:10176000979528F4805C660F771F881F20F0261756
:101770003707480730F4621B730B840B202931298B
:101780004A2BA69517940794202531254A2758F708
:10179000660F771F881F20F026173707480730F499
:1017A000620B730B840B200D311D411DA09581F739
:1017B000B901842F9158880F9695879508950E94B6
:1017C0006B0A880B990B08959F3F31F0915020F4DC
:1017D000879577956795B795880F911D969587950D
:1017E00097F9089591505040660F771F881FD2F7E0
:1017F00008959F938F937F936F93FF93EF939B0134
:10180000AC010E94240BEF91FF910E940D0C2F91CF
:101810003F914F915F910C94240BDF93CF931F93D3
:101820000F93FF92EF92DF927B018C01689406C0C8
:10183000DA2EEF010E94370BFE01E894A591259165
:10184000359145915591A6F3EF010E942E09FE01B5
:101850009701A801DA9469F7DF90EF90FF900F915C
:101860001F91CF91DF910895A1E21A2EAA1BBB1BF5
:10187000FD010DC0AA1FBB1FEE1FFF1FA217B3075C
:10188000E407F50720F0A21BB30BE40BF50B661F72
:10189000771F881F991F1A9469F760957095809536
:1018A00090959B01AC01BD01CF010895052E97FBDA
:1018B0001EF400940E946D0C57FD07D00E94340C5A
:1018C00007FC03D04EF40C946D0C50954095309568
:1018D00021953F4F4F4F5F4F08959095809570959C
:1018E00061957F4F8F4F9F4F0895EE0FFF1F05901B
:1018F000F491E02D099481E090E0F8940C94800C30
:04190000F894FFCF89
:1019040000000000FF01680196014C02C701A50117
:10191400B9010D0A006E616E00696E66006F76662D
:101924000050463D00503D005641522000513D00BC
:10193400533D00564120004E696C61692053696E25
:1019440070693D004E696C6169204B6F7370696EFC
:1019540079613D0050682D53686966743D0020200C
:10196400205A65726F43726F737320696E70757459
:10197400202000202020616E616C616F6720696EF9
:10198400707574202000202020616320766F6C74B1
:10199400616765202000202020616320524D532080
:1019A400766F6C7461676520200020202041727579
:1019B400732079616E672074657262616361203A95
:0219C400200001
:00000001FF
