:10000000D2C00000FEC00000FCC00000FAC000002A
:10001000F8C00000F6C00000F4C00000F2C000000C
:10002000F0C00000EEC00000ECC00000EAC000001C
:10003000E8C00000E6C00000E4C00000E2C000002C
:10004000E0C00000DEC00000DCC00000DAC000003C
:10005000D8C00000D6C00000D4C000005FC20000BD
:10006000D0C00000CEC20000A3C20000CAC0000081
:10007000C8C00000C6C00000C4C00000C2C000006C
:10008000C0C00000BEC00000BCC00000BAC000007C
:10009000B8C00000B6C00000B4C00000B2C000008C
:1000A000B0C00000AEC00000ACC00000AAC000009C
:1000B000A8C00000A6C00000A4C00000A2C00000AC
:1000C000A0C000009EC000009CC000009AC00000BC
:1000D00098C0000096C0000094C0000092C00000CC
:1000E00090C0000000002200250028002B002E00F8
:1000F0003100340002010000050108010B0100007D
:100100002100240027002A002D00300033000101C7
:100110000000040107010A01050505050705080897
:100120000808020202020A0A080804040404010181
:100130000101010101010303030303030303040796
:1001400007070C0C0C0C0C0C0C0C0202020206062D
:100150000606060606060B0B0B0B0B0B0B0B010220
:1001600010202008081020401020408002010201C9
:100170000804020101020408102040808040201081
:1001800008040201800402018040201008040201DA
:100190000804020101020408102040800102040842
:1001A00010204080DF0411241FBECFEFD1E2DEBF5C
:1001B000CDBF00E00CBF12E0A0E0B2E0ECEDFDE04E
:1001C00000E00BBF02C007900D92A434B107D9F72D
:1001D00022E0A4E4B2E001C01D92A03FB207E1F723
:1001E00010E0C3EDD0E000E005C021970109802FA9
:1001F000FE01E6D5C23DD10780E00807B1F737D24E
:10020000EBC5FECECF92DF92EF92FF920F931F933A
:10021000CF93DF936C017A018B01C0E0D0E0CE1563
:10022000DF0581F0D8016D918D01D601ED91FC9132
:100230000190F081E02DC6011995892B11F02196CE
:10024000EECF7E01C701DF91CF911F910F91FF90FB
:10025000EF90DF90CF900895089580E090E00895AA
:10026000FC01538D448D252F30E0842F90E0821BBC
:10027000930B541710F0CF96089501970895FC0141
:10028000918D828D981761F0828DDF01A80FB11DCD
:100290005D968C91928D9F5F9F73928F90E00895F1
:1002A0008FEF9FEF0895FC01918D828D981731F0AB
:1002B000828DE80FF11D858D90E008958FEF9FEFFF
:1002C0000895FC01918D228D892F90E0805C9F4FD5
:1002D000821B91098F739927089583E592E0F1DFDE
:1002E00021E0892B09F420E0822F0895FC01848D00
:1002F000DF01A80FB11DA35ABF4F2C91848D90E050
:1003000001968F739927848FA689B7892C93A0892A
:10031000B1898C91837080648C93938D848D9813B4
:1003200006C00288F389E02D80818F7D8083089547
:10033000EF92FF920F931F93CF93DF93EC0181E035
:10034000888F9B8D8C8D981305C0E889F9898081F1
:1003500085FD25C0F62E0B8D10E00F5F1F4F0F732C
:100360001127E02E8C8DE8120BC00FB607FCFACFD8
:10037000E889F989808185FFF5CFCE01B7DFF2CF1B
:100380008B8DFE01E80FF11DE35AFF4FF0829FB7FE
:10039000F8940B8FEA89FB89808180620AC09FB73D
:1003A000F894EE89FF896083E889F98980818370F8
:1003B000806480839FBF81E090E0DF91CF911F91A7
:1003C0000F91FF90EF900895CF93DF93EC01888D0C
:1003D0008823C1F0EA89FB89808185FD05C0A88951
:1003E000B9898C9186FD0EC00FB607FCF5CF8081D0
:1003F00085FFF2CFA889B9898C9185FFEDCFCE0119
:1004000075DFE8CFDF91CF91089580E090E0892BF0
:1004100019F063DF811125C080E090E0892B41F065
:1004200080E090E0892B21F00E94000081111CC027
:1004300080E090E0892B41F080E090E0892B21F072
:100440000E940000811113C080E090E0892BA1F090
:1004500080E090E0892B81F00E94000081110AC0A9
:1004600008950E940000D8CF0E940000E1CF0E94B2
:100470000000EACF0C9400000895009761F0FC01A1
:1004800001900020E9F73197AF01481B590BBC01DF
:1004900083E592E0B7CE80E090E008958F929F923E
:1004A000AF92BF920F931F93CF93DF93CDB7DEB779
:1004B000A1970FB6F894DEBF0FBECDBF19A2423090
:1004C00008F44AE08E010F5D1F4F842E912CA12C61
:1004D000B12CA501940152D4E62FB901CA010150F3
:1004E0001109EA3014F4E05D01C0E95CD801EC9335
:1004F000232B242B252B69F7C801BFDFA1960FB64C
:10050000F894DEBF0FBECDBFDF91CF911F910F9149
:10051000BF90AF909F908F9008955AD41F920F92E2
:100520000FB60F9211242F933F938F939F93AF9306
:10053000BF9380914F0290915002A0915102B091CF
:10054000520230914E0223E0230F2D3720F4019602
:10055000A11DB11D05C026E8230F0296A11DB11DE6
:1005600020934E0280934F0290935002A093510229
:10057000B093520280914A0290914B02A0914C029A
:10058000B0914D020196A11DB11D80934A02909336
:100590004B02A0934C02B0934D02BF91AF919F913B
:1005A0008F913F912F910F900FBE0F901F90189534
:1005B0001F920F920FB60F9211240BB60F922F932A
:1005C0003F934F935F936F937F938F939F93AF93DB
:1005D000BF93EF93FF9383E592E088DEFF91EF9165
:1005E000BF91AF919F918F917F916F915F914F914B
:1005F0003F912F910F900BBE0F900FBE0F901F9049
:1006000018951F920F920FB60F9211240BB60F92EE
:100610002F938F939F93EF93FF93E0916302F09159
:1006200064028081E0916902F0916A0282FD12C049
:10063000908180916C028F5F8F7320916D02821781
:1006400051F0E0916C02F0E0ED5AFD4F958F8093F0
:100650006C0201C08081FF91EF919F918F912F914A
:100660000F900BBE0F900FBE0F901F9018957894AF
:1006700084B5826084BD84B5816084BD85B58260A7
:1006800085BD85B5816085BD80916E008160809358
:100690006E001092810080918100826080938100C1
:1006A00080918100816080938100809180008160D1
:1006B000809380008091B10084608093B10080912C
:1006C000B00081608093B00080919100826080933F
:1006D00091008091910081608093910080919000C1
:1006E0008160809390008091A10082608093A1003E
:1006F0008091A10081608093A1008091A000816021
:100700008093A000809121018260809321018091DB
:10071000210181608093210180912001816080937B
:10072000200180917A00846080937A0080917A0021
:10073000826080937A0080917A00816080937A0051
:1007400080917A00806880937A001092C100E4E979
:10075000F1E02491EEE4F1E084918823C1F090E08F
:10076000880F991FFC01E250FF4FC591D491FC0105
:10077000EC51FF4FA591B4919FB7F8948881E22F77
:10078000E0958E2388838C91E823EC939FBFE091C2
:100790006302F091640282E08083E0915F02F09155
:1007A00060021082E0916102F09162028FEC80831E
:1007B00010926B02E0916702F091680286E08083FC
:1007C000E0916502F0916602808180618083E09112
:1007D0006502F0916602808188608083E091650205
:1007E000F0916602808180688083E0916502F091DB
:1007F000660280818F7D8083C0E480917B00877F4B
:1008000080937B00C0937C0080917A008064809309
:100810007A0080917A0086FDFCCF6091780080910B
:10082000790070E0782B7093490260934802072E9C
:10083000000C880B990B87D126E13DEB4BE95EE379
:1008400036D260934402709345028093460290939F
:10085000470282E192E011DEC0904802D090490246
:100860000D2C000CEE08FF08F7FE0DC06DE283E5CD
:1008700092E05EDD66277727CB016C197D098E0932
:100880009F094AE003C04AE0C701B60107DE85E2DE
:1008900092E0F3DDC0904402D0904502E090460221
:1008A000F0904702A7019601C701B60163D28823E1
:1008B00019F085E392E018C046015701E894B7F8B3
:1008C0002FEF3FEF4FE75FE7C501B40153D281112E
:1008D0000DC02FEF3FEF4FE75FE7C501B40101D136
:1008E000181624F489E392E0C8DD64C02FEF3FEFCF
:1008F0004FE75FE4C701B601D6D118161CF48DE3AB
:1009000092E0F2CF2FEF3FEF4FE75FECC701B60168
:10091000E8D087FDF4CF20E030E0A901C701B6019F
:10092000E0D087FF08C06DE283E592E001DDF7FAD1
:10093000F094F7F8F0942AE037ED43EA5BE3C7015F
:10094000B6016BD04B015C01D0D06B017C01F9D0BA
:100950009B01AC01C501B4015FD04B015C014AE0D1
:10096000C701B6019BDD6EE283E592E0E1DC20E0A9
:1009700030E040E251E4C501B40199D14B015C0182
:10098000B4D06B01E12CF12C4AE0C701B60186DD41
:10099000C701B601D6D09B01AC01C501B4013CD062
:1009A00020E030E040E251E482D19FD080E090E04E
:1009B0004AE074DD81E492E060DD27DD1ECFE3E5EF
:1009C000F2E01382128288EE93E0A0E0B0E084832C
:1009D0009583A683B78384E092E09183808385EC3E
:1009E00090E09587848784EC90E09787868780ECF9
:1009F00090E0918B808B81EC90E0938B828B82ECEA
:100A000090E0958B848B86EC90E0978B868B118E93
:100A1000128E138E148E08955058BB27AA270ED01D
:100A200008C1F9D030F0FED020F031F49F3F11F42E
:100A30001EF4EEC00EF4E095E7FBE4C0E92F0AD106
:100A400080F3BA17620773078407950718F071F4EB
:100A50009EF522C10EF4E0950B2EBA2FA02D0B01AE
:100A6000B90190010C01CA01A0011124FF27591BF3
:100A700099F0593F50F4503E68F11A16F040A22FF9
:100A8000232F342F4427585FF3CF4695379527956A
:100A9000A795F0405395C9F77EF41F16BA0B620B69
:100AA000730B840BBAF09150A1F0FF0FBB1F661FB0
:100AB000771F881FC2F70EC0BA0F621F731F841FF3
:100AC00048F4879577956795B795F7959E3F08F019
:100AD000B3CF9395880F08F09927EE0F97958795D8
:100AE00008956CD008F481E00895BCD088F09F5739
:100AF00090F0B92F9927B751A0F0D1F0660F771F6A
:100B0000881F991F1AF0BA95C9F712C0B13081F049
:100B1000C3D0B1E00895C0C0672F782F8827B85F91
:100B200039F0B93FCCF3869577956795B395D9F7AA
:100B30003EF490958095709561957F4F8F4F9F4FB4
:100B40000895E89409C097FB3EF4909580957095C0
:100B500061957F4F8F4F9F4F9923A9F0F92F96E909
:100B6000BB279395F695879577956795B795F1117E
:100B7000F8CFFAF4BB0F11F460FF1BC06F5F7F4F1B
:100B80008F4F9F4F16C0882311F096E911C077232D
:100B900021F09EE8872F762F05C0662371F096E836
:100BA000862F70E060E02AF09A95660F771F881F05
:100BB000DAF7880F9695879597F90895990F0008A9
:100BC000550FAA0BE0E8FEEF16161706E807F9071F
:100BD000C0F012161306E407F50798F0621B730BBA
:100BE000840B950B39F40A2661F0232B242B252B3B
:100BF00021F408950A2609F4A140A6958FEF811DDE
:100C0000811D089597F99F6780E870E060E008957E
:100C10009FEF80EC089500240A9416161706180614
:100C20000906089500240A941216130614060506F0
:100C30000895092E0394000C11F4882352F0BB0F81
:100C400040F4BF2B11F460FF04C06F5F7F4F8F4FE4
:100C50009F4F089557FD9058440F551F59F05F3F1F
:100C600071F04795880F97FB991F61F09F3F79F0CE
:100C700087950895121613061406551FF2CF469550
:100C8000F1DF08C0161617061806991FF1CF8695D2
:100C90007105610508940895E894BB2766277727B6
:100CA000CB0197F908958ADF08F48FEF08950BD0F0
:100CB000C0CFB1DF28F0B6DF18F0952309F0A2CF3E
:100CC000A7CF1124EACFC6DFA0F3959FD1F3950FEC
:100CD00050E0551F629FF001729FBB27F00DB11DC0
:100CE000639FAA27F00DB11DAA1F649F6627B00D50
:100CF000A11D661F829F2227B00DA11D621F739F39
:100D0000B00DA11D621F839FA00D611D221F749F46
:100D10003327A00D611D231F849F600D211D822F8D
:100D2000762F6A2F11249F5750408AF0E1F08823D4
:100D30004AF0EE0FFF1FBB1F661F771F881F9150E1
:100D40005040A9F79E3F510570F05CCFA6CF5F3FA2
:100D5000ECF3983EDCF3869577956795B795F79514
:100D6000E7959F5FC1F7FE2B880F911D969587959C
:100D700097F9089523DF880B990B0895A1E21A2EA5
:100D8000AA1BBB1BFD010DC0AA1FBB1FEE1FFF1F2F
:100D9000A217B307E407F50720F0A21BB30BE40B7F
:100DA000F50B661F771F881F991F1A9469F76095C6
:100DB0007095809590959B01AC01BD01CF01089580
:100DC000EE0FFF1F881F8BBF0790F691E02D19943F
:0C0DD00081E090E0F89400C0F894FFCFA0
:100DDC0000000000980102013001E40161013F01B3
:100DEC005301202020616E616C616F6720696E7009
:100DFC007574202000202020616320766F6C746154
:100E0C0067652020006E616E00696E66006F766605
:040E1C00000D0A00BB
:00000001FF
