:100000000C946C000C9494000C9494000C94940048
:100010000C9494000C9494000C9494000C94940010
:100020000C9494000C9494000C9494000C94940000
:100030000C9494000C9494000C9494000C949400F0
:100040000C94E1060C9494000C944A040C9424043F
:100050000C9494000C9494000C9494000C949400D0
:100060000C947C040C94940005A84CCDB2D44EB9E9
:100070003836A9020C50B9918688083CA6AAAA2A4B
:10008000BE000000803F0000000023002600290081
:1000900000000000250028002B00040404040404D0
:1000A0000404020202020202030303030303010227
:1000B00004081020408001020408102001020408F6
:1000C00010200000000800020100000304070000E7
:1000D0000000000000009C0E11241FBECFEFD8E0EE
:1000E000DEBFCDBF11E0A0E0B1E0E0EAF4E202C083
:1000F00005900D92AC3AB107D9F723E0ACEAB1E034
:1001000001C01D92A439B207E1F710E0CCE6D0E0BF
:1001100004C02197FE010E944312CB36D107C9F7D4
:100120000E9470070C944E120C94000008950895DC
:10013000CF92DF92EF92FF920F931F93CF93DF93B3
:100140006C017A018B01C0E0D0E0CE15DF0581F0B3
:10015000D8016D918D01D601ED91FC910190F08156
:10016000E02DC6010995892B11F02196EECF7E0175
:10017000C701DF91CF911F910F91FF90EF90DF901A
:10018000CF900895FC01538D448D252F30E0842FAE
:1001900090E0821B930B541710F0CF9608950197AF
:1001A0000895FC01918D828D981761F0828DDF0199
:1001B000A80FB11D5D968C91928D9F5F9F73928F5A
:1001C00090E008958FEF9FEF0895FC01918D828D4F
:1001D000981731F0828DE80FF11D858D90E008951C
:1001E0008FEF9FEF0895FC01918D228D892F90E074
:1001F000805C9F4F821B91098F73992708958AED28
:1002000092E00E94F30021E0892B09F420E0822F84
:100210000895FC01848DDF01A80FB11DA35ABF4FC3
:100220002C91848D90E001968F739927848FA689F5
:10023000B7892C93A089B1898C91837080648C9349
:10024000938D848D981306C00288F389E02D8081F8
:100250008F7D80830895EF92FF920F931F93CF932A
:10026000DF93EC0181E0888F9B8D8C8D981305C006
:10027000E889F989808185FD26C0F62E0B8D10E076
:100280000F5F1F4F0F731127E02E8C8DE8120CC0EB
:100290000FB607FCFACFE889F989808185FFF5CF91
:1002A000CE010E940901F1CF8B8DFE01E80FF11DF7
:1002B000E35AFF4FF0829FB7F8940B8FEA89FB89CE
:1002C000808180620AC09FB7F894EE89FF896083BD
:1002D000E889F98980818370806480839FBF81E091
:1002E00090E0DF91CF911F910F91FF90EF900895D3
:1002F000CF93DF93EC01888D8823C9F0EA89FB89CD
:10030000808185FD05C0A889B9898C9186FD0FC0C3
:100310000FB607FCF5CF808185FFF2CFA889B98998
:100320008C9185FFEDCFCE010E940901E7CFDF91CF
:10033000CF91089580E090E0892B29F00E94FF0082
:1003400081110C940000089585ED8093BC0080918C
:10035000BC0084FDFCCF10925B02089540910E0218
:10036000262F30E0240F311D21323105DCF420919D
:100370005B022430C9F4FC0180E090E0861758F459
:1003800030910E022191DC01A251BE4FA30FB11D8D
:100390002C930196F3CF80910E02680F60930E02AA
:1003A00080E0089581E0089582E008950895E09145
:1003B0005F0280915E02E81730F4F0E0E253FE4FF6
:1003C000808190E008958FEF9FEF089590915F02F4
:1003D00080915E02981750F4E92FF0E0E253FE4F4F
:1003E000208130E09F5F90935F0202C02FEF3FEFCC
:1003F000C901089580915E0290E020915F02821B06
:1004000091090895CF92DF92EF92FF920F931F937D
:10041000CF93DF937C01CB018A012091CD01222370
:1004200089F0EB016B01C40ED51ECC15DD0569F01A
:100430006991D701ED91FC910190F081E02DC70108
:100440000995F3CF642F0E94AE01C801DF91CF91CF
:100450001F910F91FF90EF90DF90CF900895CF9371
:10046000DF931F92CDB7DEB769832091CD012223A0
:10047000D1F020915C02203240F021E030E0FC011C
:100480003383228380E090E015C080915D02E82FE5
:10049000F0E0E355FE4F998190838F5F80935D027A
:1004A00080935C0205C061E0CE0101960E94AE011E
:1004B00081E090E00F90DF91CF910895CF93FC0100
:1004C000C48121E02093CD01C093AC0110925D0264
:1004D00010925C028385682B87E793E00E942F02CD
:1004E00090915C02913208F045C080915B028111CD
:1004F000FCCF82E080935B0281E080935A028FEF11
:10050000809331021092530290935202ADEAB1E00F
:10051000E2E3F2E080E0981721F02D9121938F5FC4
:10052000FACF1092540280915402CC0FC82BC09382
:10053000540280915902813061F4109259028091E5
:1005400054028093BB008091BC0083FDF8CF85EC02
:1005500001C085EE8093BC0080915B028230E1F3A4
:10056000809131028F3F31F080913102803211F061
:100570008091310210925D0210925C021092CD01C6
:10058000CF9108950F931F93CF938C01C62F0E9494
:100590005E026C2F6460C8010E945E026C2F6B7F4C
:1005A000C8010E945E0283EC90E00197F1F7CF91C1
:1005B0001F910F910895089580E090E008950E94A2
:1005C00049126115710579F0FB0101900020E9F7EE
:1005D0003197AF01461B570BDC01ED91FC91028076
:1005E000F381E02D099480E090E008952F923F92EE
:1005F0004F925F926F927F928F929F92AF92BF9233
:10060000CF92DF92EF92FF920F931F93CF93DF93DE
:10061000CDB7DEB7A2970FB6F894DEBF0FBECDBF41
:100620008C014A015B01D22E9A01AB01C501B401D4
:100630000E94AD11882319F068E371E027C02401FE
:100640003501E89477F82FEF3FEF4FE75FE7C301FD
:10065000B2010E94AD1181110DC02FEF3FEF4FE7A6
:100660005FE7C301B2010E94510F18161CF46CE33E
:1006700071E00CC02FEF3FEF4FE75FE4C501B4011D
:100680000E94ED10181634F460E471E0C8010E9475
:10069000E102BDC02FEF3FEF4FE75FECC501B401B2
:1006A0000E94510F87FDF0CF20E030E0A901C50185
:1006B000B4010E94510F87FF0FC0D801ED91FC914A
:1006C0000190F081E02D6DE2C80109951C01B7FA97
:1006D000B094B7F8B09402C0212C312CF12C60E01A
:1006E00070E080E09FE3DF1441F020E030E040E282
:1006F00051E40E945B0FF394F6CFA50194010E9490
:10070000E50E4B015C010E94CD0F562E672E782E10
:10071000C92E19A2262F372F482F592F7E01B1E25B
:10072000EB0EF11CEAA24F2CCA01B9012AE030E01D
:1007300040E050E00E940212605DF70162937F0189
:10074000211531054105510579F7BF01C8010E9406
:10075000E1027101E80EF91EDD2009F457C0652D94
:10076000762D872D9C2D0E94FC0F9B01AC01C501AD
:10077000B4010E94E40E4B015C01D801ED91FC91A3
:100780000190F081E02D6EE2C8010995E80EF91E96
:1007900020E030E040E251E4C501B4010E94F210D3
:1007A0004B015C010E94CD0F9B0140E050E019A27B
:1007B0002AA0342C562E632E742EC52ECA01B901E0
:1007C0002AE030E040E050E00E940212605DF1015A
:1007D00062931F01211531054105510579F7BF01CC
:1007E000C8010E94E102E80EF91E652D762D872DC5
:1007F0009C2D0E94FC0F9B01AC01C501B4010E941D
:10080000E40E4B015C01DA94D110C2CFC701A2966D
:100810000FB6F894DEBF0FBECDBFDF91CF911F9111
:100820000F91FF90EF90DF90CF90BF90AF909F908F
:100830008F907F906F905F904F903F902F90089592
:100840000C94F6020C94E1021F920F920FB60F92D5
:1008500011242F933F934F935F936F937F938F93C5
:100860009F93AF93BF93EF93FF938AED92E00E9423
:100870000901FF91EF91BF91AF919F918F917F916E
:100880006F915F914F913F912F910F900FBE0F90FD
:100890001F9018951F920F920FB60F9211242F934D
:1008A0008F939F93EF93FF93E091EA02F091EB0215
:1008B0008081E091F002F091F10282FD12C09081FE
:1008C0008091F3028F5F8F732091F402821751F0B1
:1008D000E091F302F0E0E652FD4F958F8093F30232
:1008E00001C08081FF91EF919F918F912F910F9087
:1008F0000FBE0F901F9018951F920F920FB60F9278
:1009000011242F933F934F935F936F937F938F9314
:100910009F93AF93BF93EF93FF938091B900887F2C
:10092000803609F49CC068F5883209F45BC090F405
:10093000803109F454C038F4882309F4F6C08830B3
:1009400009F44DC0F6C0883109F44CC0803209F476
:100950005DC0EFC0803409F468C048F4803309F406
:1009600055C0883309F0E5C080933102D8C0803586
:1009700009F44FC0883509F45DC0883409F0D9C046
:10098000D6C0883909F4C7C0A8F4883709F467C00D
:1009900038F4883609F463C0803709F460C0C9C0F0
:1009A000883809F4B8C0803909F45FC0803809F08C
:1009B000C0C05BC0803B09F486C038F4803A09F4BB
:1009C00066C0883A09F47FC0B4C0803C09F4A7C06F
:1009D000883C09F4A4C0883B09F48AC0AAC080916D
:1009E000540210C09091530280915202981770F5F2
:1009F000E091530281E08E0F80935302F0E0EE5CB1
:100A0000FD4F80818093BB0085EC86C080933102CE
:100A10008EC0E091530281E08E0F8093530280914B
:100A2000BB00F0E0EE5CFD4F80839091530280911B
:100A300052026EC0E091530281E08E0F8093530208
:100A40008091BB00F0E0EE5CFD4F808380915A0204
:100A500081116DC081E08093590284EA61C083E016
:100A600080935B0210923002CFCF809130028032AF
:100A700008F051C0E091300281E08E0F8093300287
:100A80008091BB00F0E0E05FFD4F8083BDCF85EC3F
:100A90008093BC0010925B0280913002803230F46F
:100AA000E0913002F0E0E05FFD4F10826091300293
:100AB00070E0E0915502F091560280E192E00995D4
:100AC0001092300236C084E080935B0210920F02D5
:100AD00010920E02E0915702F09158020995809110
:100AE0000E02811105C081E080930E021092EE018A
:100AF000E0910F0281E08E0F80930F02F0E0E2514F
:100B0000FE4F80818093BB0090910F0280910E0276
:100B1000981708F479CF85E88093BC000AC085EC6B
:100B20008093BC0010925B0204C0109231020E94BC
:100B3000A401FF91EF91BF91AF919F918F917F9110
:100B40006F915F914F913F912F910F900FBE0F903A
:100B50001F9018950F931F93CF93DF938C01C62F8F
:100B6000D42F607F642B0E94C20280E1C89FB00135
:100B700011246D2BC801DF91CF911F910F910C941F
:100B8000C20241E00E94AA0581E090E008953FB7CB
:100B9000F8948091900390919103A0919203B09169
:100BA000930326B5A89B05C02F3F19F00196A11D00
:100BB000B11D3FBFBA2FA92F982F8827820F911DF3
:100BC000A11DB11DBC01CD0142E0660F771F881F3A
:100BD000991F4A95D1F70895CF93DF93BC018AED11
:100BE00092E00E94E102EC0169EA71E08AED92E094
:100BF0000E94E1028C0F9D1FDF91CF910895CF934A
:100C0000DF93AB01BC0122E08AED92E00E94F60284
:100C1000EC0169EA71E08AED92E00E94E1028C0F3A
:100C20009D1FDF91CF910895CF93DF93CDB7DEB7AE
:100C300028970FB6F894DEBF0FBECDBF98E0E0E076
:100C4000F1E0DE01119601900D929A95E1F79091F5
:100C50008B03961710F46FEF690FFE013196E60FC4
:100C6000F11DE60FF11D6081680F606840E083E8C8
:100C700093E028960FB6F894DEBF0FBECDBFDF918C
:100C8000CF910C94AA0590E0FC01EE53FF4F249104
:100C9000FC01E255FF4F3491FC01E656FF4FE49111
:100CA000EE2309F43CC0222339F1233091F038F4CB
:100CB0002130A9F0223001F584B58F7D12C0273094
:100CC00091F02830A1F02430B9F4809180008F7D1C
:100CD00003C0809180008F77809380000DC084B521
:100CE0008F7784BD09C08091B0008F7703C0809159
:100CF000B0008F7D8093B000F0E0EE0FFF1FE05753
:100D0000FF4FA591B4919FB7F894611104C08C91E5
:100D10003095382302C0EC913E2B3C939FBF089541
:100D20008E3008F08E508770806480937C008091B4
:100D30007A00806480937A0080917A0086FDFCCFEF
:100D4000809178002091790090E0922B08958F9205
:100D50009F92AF92BF92CF92DF92EF92FF926B0180
:100D60007C010E94C7054B015C01C114D104E10460
:100D7000F104F1F00E94C705DC01CB018819990943
:100D8000AA09BB09883E9340A105B10570F321E093
:100D9000C21AD108E108F10888EE880E83E0981E97
:100DA000A11CB11CC114D104E104F10419F7DDCF79
:100DB000FF90EF90DF90CF90BF90AF909F908F907B
:100DC00008951F920F920FB60F9211242F933F9305
:100DD0008F939F93AF93BF938091D6029091D70248
:100DE000A091D802B091D90230918F0323E0230F54
:100DF0002D3720F40196A11DB11D05C026E8230F53
:100E00000296A11DB11D20938F038093D60290936B
:100E1000D702A093D802B093D90280919003909109
:100E20009103A0919203B09193030196A11DB11D6E
:100E30008093900390939103A0939203B0939303B4
:100E4000BF91AF919F918F913F912F910F900FBEC6
:100E50000F901F901895CF92DF92EF92FF920F9311
:100E60001F93E82FF92F05C00150110921093109FD
:100E700061F1908196239417B9F305C001501109CF
:100E80002109310911F1908196239413F7CFC12CD8
:100E9000D12CE12CF12C0AC08FEFC81AD80AE80A2D
:100EA000F80A0C151D052E053F0579F08081862373
:100EB000841791F36C2D7D2D8E2D9F2D1F910F91F9
:100EC000FF90EF90DF90CF90089560E070E080E0B9
:100ED00090E01F910F91FF90EF90DF90CF900895D9
:100EE000CF93DF93CDB7DEB72C970FB6F894DEBF64
:100EF0000FBECDBF789484B5826084BD84B5816017
:100F000084BD85B5826085BD85B5816085BD8091D4
:100F10006E00816080936E0010928100809181004C
:100F20008260809381008091810081608093810044
:100F3000809180008160809380008091B100846006
:100F40008093B1008091B00081608093B000809167
:100F50007A00846080937A0080917A008260809326
:100F60007A0080917A00816080937A0080917A0083
:100F7000806880937A001092C100E091EA02F091BB
:100F8000EB0282E08083E091E602F091E7021082BA
:100F9000E091E802F091E9028FEC80831092F20276
:100FA000E091EE02F091EF0286E08083E091EC02A6
:100FB000F091ED02808180618083E091EC02F091FC
:100FC000ED02808188608083E091EC02F091ED0277
:100FD000808180688083E091EC02F091ED02808155
:100FE0008F7D808310925F0210925E0210925D02EC
:100FF00010925C0210925B0281E080935A02109280
:10100000590261E082E10E94430661E083E10E94AF
:1010100043068091B9008E7F8093B9008091B9001A
:101020008D7F8093B90088E48093B80085E4809335
:10103000BC0086E990E0909358028093570287E9BC
:1010400090E090935602809355021092880380910D
:101050008D03823018F098E09093880380938B037F
:1010600062E370E080E090E00E94A70660918E034A
:1010700083E893E00E945E0268EE73E080E090E017
:101080000E94A70660E383E893E00E94C2028BE41B
:1010900096E40197F1F760E383E893E00E94C202CF
:1010A0002BE436E4C9010197F1F760E383E893E0AC
:1010B0000E94C20283E592E00197F1F760E283E8C3
:1010C00093E00E94C20260918803606240E083E87E
:1010D00093E00E94AA0584E08093890340E06CE0DD
:1010E00083E893E00E94AA0540E061E083E893E092
:1010F0000E94AA058BE39FE10197F1F782E08093BC
:101100008A0340E066E083E893E00E94AA0540E09D
:1011100062E083E893E00E94AA05ABE3BFE1119788
:10112000F1F788E080938E0360E083E893E00E940B
:101130005E028FE090E090938F0280938E0280E0B9
:1011400090E8A0ECB2E48093920290939302A09373
:101150009402B09395028AE999E9A9EDBFE38093DF
:101160009A0290939B02A0939C02B0939D0280E010
:1011700090E0A0E0B4E48093AE029093AF02A0931D
:10118000B002B093B1022EE030E030939102209390
:10119000900240E050E064E771E44093960250937F
:1011A000970260939802709399028093B202909391
:1011B000B302A093B402B093B502BEE4B0937C0036
:1011C00062E070E080E090E00E94A70680917A00E3
:1011D000806480937A0080917A0086FDFCCF8091B4
:1011E00078002091790030E0322F2227A901330FB7
:1011F000660B770B9A01AB01282B60E070E381E16D
:1012000090E00E9424122D833E834F8358878FB72E
:10121000F8948090D6029090D702A090D802B09017
:10122000D9028FBF80918E020E9490069093D302C4
:101230008093D202BC01990F880B990B0E94FE0F7C
:101240006B017C012DEC3CEC4CE054E40E94510F0E
:1012500087FF0CC0F1E0F98326E636E646EE53E45C
:10126000C701B6010E94ED1018160CF019822FB7B5
:10127000F8948091D6029091D702A091D802B091B3
:10128000D9022FBF88199909AA09BB09813D974046
:10129000A105B10518F4E981EE2321F28FB7F89486
:1012A0002091D6023091D7024091D8025091D902B4
:1012B00029833A834B835C838FBF1A86198600E0AB
:1012C00010E02FB7F8948091D6029091D702A091A8
:1012D000D802B091D9022FBF29813A814B815C811C
:1012E000821B930BA40BB50B803D9740A105B10564
:1012F00008F041C129853A852F5F3F4F3A872987FA
:101300008091A6029091A702A091A802B091A90293
:101310008093A2029093A302A093A402B093A5028B
:1013200080918E020E94900690939F0280939E026D
:10133000809190020E9490067C019093A10280937C
:10134000A00220909E0230909F02B101032C000C5D
:10135000880B990B0E94FE0F4B015C014090AE027E
:101360005090AF026090B0027090B102A301920160
:101370000E94E40E20E030E040E85AE30E94F210C0
:10138000A30192010E94E50E9B01AC016093AE02A5
:101390007093AF028093B0029093B102C501B40183
:1013A0000E94E40E4B015C016093A6027093A702B9
:1013B0008093A8029093A902B701FF0C880B990BA8
:1013C0000E94FE0F6B017C014090B2025090B3026C
:1013D0006090B4027090B502A30192010E94E40EE5
:1013E00020E030E040E85AE30E94F210A3019201AD
:1013F0000E94E50E9B01AC016093B2027093B302B0
:101400008093B4029093B502C701B6010E94E40E26
:101410006B017C016093AA027093AB028093AC02D3
:101420009093AD02A5019401C501B4010E94F21090
:101430009B01AC016093BA027093BB028093BC0223
:101440009093BD026091BE027091BF028091C00274
:101450009091C1020E94E50E6093BE027093BF029C
:101460008093C0029093C102A7019601C701B60103
:101470000E94F2109B01AC016093C2027093C30200
:101480008093C4029093C5026091C6027091C70216
:101490008091C8029091C9020E94E50E6093C60235
:1014A0007093C7028093C8029093C9024090A20231
:1014B0005090A3026090A4027090A502A301920133
:1014C000C501B4010E94E40E20919A0230919B0262
:1014D00040919C0250919D020E94F210A301920142
:1014E0000E94E50E9B01AC016093B6027093B702B7
:1014F0008093B8029093B902C701B6010E94F2101E
:101500009B01AC016093CA027093CB028093CC0222
:101510009093CD026091CE027091CF028091D00263
:101520009091D1020E94E50E6093CE027093CF029B
:101530008093D0029093D1028091D5028093D402FF
:101540008091D2029091D302821593050CF0EEC3E4
:1015500041E04093D5028091D502A985BA851197C3
:1015600011F48093D4029091D4029813E2C3043111
:10157000110508F4A6CEAD81BE81BD01BB0F880B5D
:10158000990B0E94FE0F20E030E04AE754E40E94ED
:101590005B0F20E030E040E85AE30E94F2102B019C
:1015A0003C0120919202309193024091940250911B
:1015B00095020E94F2104B015C01E985FA85BF019A
:1015C00080E090E00E94FC0F6B017C019B01AC016C
:1015D0006091BE027091BF028091C0029091C102E1
:1015E0000E945B0F0E946D119B01AC01C501B4010B
:1015F0000E94F21069837A838B839C8360938602B6
:1016000070938702809388029093890220919602BA
:10161000309197024091980250919902C301B20112
:101620000E94F2102B013C01A70196016091C602B5
:101630007091C7028091C8029091C9020E945B0F0D
:101640000E946D119B01AC01C301B2010E94F21016
:101650006D837E838F83988760938A0270938B0259
:1016600080938C0290938D02A3019201C501B40175
:101670000E94F2102091CE023091CF024091D00210
:101680005091D1020E94F210A70196010E945B0FB7
:1016900069877A878B879C8760937A0270937B0235
:1016A00080937C0290937D022D813E814F815885ED
:1016B00069817A818B819C810E94F2106B017C018F
:1016C00060937E0270937F028093800290938102E8
:1016D0009B01AC0169857A858B859C850E945B0F97
:1016E0002B013C01609382027093830280938402F9
:1016F000909385021092BE021092BF021092C00217
:101700001092C1021092C6021092C7021092C80233
:101710001092C9021092CE021092CF021092D00203
:101720001092D10287E691E00E94EC0564E971E035
:101730008AED92E00E94220469817A818B819C81EA
:101740000E94FF0561EA71E08AED92E00E942204A6
:101750006D817E818F8198850E94FF0510927902AC
:1017600010927802809178029091790205970CF09E
:101770006CC0E0EBF0E06491ECE9F0E08491E82FDC
:10178000F0E0EE0FFF1FEA57FF4F8591949100E4C0
:1017900012E42FE030E0462F0E942B0761157105FF
:1017A0008105910549F0DC01CB010196A11DB11D18
:1017B000BC01CD019F7003C060E070E0CB010E94CE
:1017C000FC0F2DEB37E346E855E30E94F21020E0D2
:1017D00030E044EB53E40E94F21020E030E048E4B3
:1017E00052E40E94F2104B015C012091740230918E
:1017F000750240917602509177020E94ED10181602
:10180000D4F48092740290927502A0927602B09203
:10181000770221EE3EE245E652E4C501B4010E94A2
:101820005B0F0E94560F6093700270937102809359
:1018300072029093730280917802909179020196DE
:1018400090937902809378028DCF20E030E044EBD2
:1018500053E46091740270917502809176029091C8
:1018600077020E94ED101816A4F4109274021092E0
:101870007502109276021092770220E030E040E884
:101880005FE3209370023093710240937202509391
:10189000730220E030E0A90160917402709175023A
:1018A00080917602909177020E94510F811114C0AD
:1018B00010927402109275021092760210927702C2
:1018C00080E090E0A0E8BFE3809370029093710203
:1018D000A0937202B0937302A70196016091700207
:1018E0007091710280917202909173020E94F210C5
:1018F00060936C0270936D0280936E0290936F02FE
:101900008090740290907502A0907602B090770259
:1019100020E030E0A901C501B4010E94ED101816C5
:1019200024F0B7FAB094B7F8B09421EE3EE245E661
:1019300052E4C501B4010E945B0F0E945F116093E5
:1019400068027093690280936A0290936B02C0925E
:101950006402D0926502E0926602F092670260E053
:1019600080E00E94140664E471E083E893E00E9442
:10197000220460E084E00E94140620E030E0498107
:101980005A816B817C8183E893E00E94200460E0AF
:101990008CE00E94140668E471E083E893E00E9402
:1019A000220460E08FE00E94140621E030E04D81C7
:1019B0005E816F81788583E893E00E94200461E076
:1019C00080E00E9414066CE471E083E893E00E94DA
:1019D000220461E084E00E94140621E030E0B701B7
:1019E000A60183E893E00E94200461E08CE00E945D
:1019F000140660E571E083E893E00E94220461E050
:101A00008FE00E9414064091700250917102609123
:101A100072027091730222E030E083E893E00E944A
:101A2000200462E080E00E94140665E571E083E82E
:101A300093E00E94220462E084E00E9414068090F9
:101A4000700290907102A0907202B090730220E038
:101A500030E0A901C501B4010E94ED10181624F070
:101A6000B7FAB094B7F8B094A7019601C501B401D4
:101A70000E94F210AB01BC0121E030E083E893E06A
:101A80000E94200463E080E00E94140669E571E092
:101A900083E893E00E94220463E084E00E9414063D
:101AA000209168023091690240916A0250916B0264
:101AB000C701B6010E94F210AB01BC0121E030E089
:101AC00083E893E00E9420046DE571E08AED92E0E6
:101AD0000E94220440917002509171026091720242
:101AE0007091730222E030E08AED92E00E942004BF
:101AF00087E691E00E94EC0561E671E08AED92E0F4
:101B00000E94220422E030E0B701A6018AED92E0B3
:101B10000E94200484E691E00E94EC0569E671E0F1
:101B20008AED92E00E9422042091680230916902BD
:101B300040916A0250916B02C701B6010E94F210F7
:101B40000E94FF056CE671E08AED92E00E9422049B
:101B50008090700290907102A0907202B090730217
:101B600020E030E0A901C501B4010E94ED10181673
:101B700024F0B7FAB094B7F8B094A7019601C50164
:101B8000B4010E94F210AB01BC0122E030E08AED0A
:101B900092E00E9420046FE671E08AED92E00E94DC
:101BA000220469857A858B859C850E94FF0566E7FE
:101BB00071E08AED92E00E942204409174025091FB
:101BC0007502609176027091770222E030E08AED32
:101BD00092E00E94200487E691E00E94EC0564E810
:101BE00071E08AED92E00E94220420E030E0A90139
:101BF000C301B2010E94ED1018164CF42DEC3CEC20
:101C00004CEC5DE3C301B2010E94E50E08C0A301E4
:101C100092016DEC7CEC8CEC9DE30E94E40E6093F1
:101C2000600270936102809362029093630220913C
:101C300064023091650240916602509167026091A2
:101C40006C0270916D0280916E0290916F020E9401
:101C50005B0FAB01BC0122E030E08AED92E00E9414
:101C600020046FE671E08AED92E00E94220422E0F7
:101C700030E0B301A2018AED92E00E9420046FE6F9
:101C800071E08AED92E00E9422044091600250913E
:101C90006102609162027091630222E030E08AED9D
:101CA00092E00E94200487E691E00E94EC0561E04A
:101CB00089E00E94430664EF71E080E090E00E94BA
:101CC000A70660E089E00E94430664EF71E080E0CF
:101CD00090E00E94A70660E088E00E94430664EF5F
:101CE00071E080E090E00E94A70661E088E00E9439
:101CF000430664EF71E080E090E00E94A70661E097
:101D000087E00E94430661E086E00E94430661E0AE
:101D100085E00E94430610927402109275021092A0
:101D20007602109277020E949A0147CA1092D50259
:101D300012CC0F5F1F4F1BCCEAEDF2E01382128230
:101D400088EE93E0A0E0B0E084839583A683B78318
:101D50002CE031E03183208325EC30E03587248787
:101D600024EC30E03787268720EC30E0318B208B65
:101D700021EC30E0338B228B22EC30E0358B248B4E
:101D800026EC30E0378B268B118E128E138E148E3C
:101D9000E7E7F3E01382128284839583A683B783F7
:101DA0008EE191E091838083E3E8F3E01382128275
:101DB00080E391E09183808380E2848384E1818762
:101DC00084E08287138608955058BB27AA270E9473
:101DD000FC0E0C949F100E94661038F00E946D104B
:101DE00020F039F49F3F19F426F40C9463100EF49C
:101DF000E095E7FB0C945D10E92F0E94C41058F3A6
:101E0000BA17620773078407950720F079F4A6F5DF
:101E10000C94E6100EF4E0950B2EBA2FA02D0B01BA
:101E2000B90190010C01CA01A0011124FF27591B1F
:101E300099F0593F50F4503E68F11A16F040A22F25
:101E4000232F342F4427585FF3CF46953795279596
:101E5000A795F0405395C9F77EF41F16BA0B620B95
:101E6000730B840BBAF09150A1F0FF0FBB1F661FDC
:101E7000771F881FC2F70EC0BA0F621F731F841F1F
:101E800048F4879577956795B795F7959E3F08F045
:101E9000B0CF9395880F08F09927EE0F9795879507
:101EA00008950E94391008F481E008950E94761088
:101EB000E3950C94B0100E946F0F0C949F100E9439
:101EC0006D1058F00E94661040F029F45F3F29F031
:101ED0000C945D1051110C94E7100C9463100E9447
:101EE000C41068F39923B1F3552391F3951B550B57
:101EF000BB27AA2762177307840738F09F5F5F4FDD
:101F0000220F331F441FAA1FA9F335D00E2E3AF01B
:101F1000E0E832D091505040E695001CCAF72BD033
:101F2000FE2F29D0660F771F881FBB1F2617370784
:101F30004807AB07B0E809F0BB0B802DBF01FF27B6
:101F400093585F4F3AF09E3F510578F00C945D1026
:101F50000C94E7105F3FE4F3983ED4F386957795B1
:101F60006795B795F7959F5FC9F7880F911D96956F
:101F7000879597F90895E1E0660F771F881FBB1FCB
:101F8000621773078407BA0720F0621B730B840B78
:101F9000BA0BEE1F88F7E09508950E94CC1088F0E8
:101FA0009F5798F0B92F9927B751B0F0E1F0660F1D
:101FB000771F881F991F1AF0BA95C9F714C0B1305E
:101FC00091F00E94E610B1E008950C94E610672F9E
:101FD000782F8827B85F39F0B93FCCF3869577958D
:101FE0006795B395D9F73EF4909580957095619576
:101FF0007F4F8F4F9F4F0895E89409C097FB3EF4A1
:1020000090958095709561957F4F8F4F9F4F992345
:10201000A9F0F92F96E9BB279395F69587957795C3
:102020006795B795F111F8CFFAF4BB0F11F460FF83
:102030001BC06F5F7F4F8F4F9F4F16C0882311F0DB
:1020400096E911C0772321F09EE8872F762F05C0EF
:10205000662371F096E8862F70E060E02AF09A958A
:10206000660F771F881FDAF7880F9695879597F97F
:102070000895990F0008550FAA0BE0E8FEEF161619
:102080001706E807F907C0F012161306E407F5076C
:1020900098F0621B730B840B950B39F40A2661F0E0
:1020A000232B242B252B21F408950A2609F4A14083
:1020B000A6958FEF811D811D089597F99F6780E890
:1020C00070E060E008959FEF80EC089500240A948A
:1020D0001616170618060906089500240A94121603
:1020E00013061406050608950C9463100E94CC1084
:1020F000D8F3E894E0E0BB279F57F0F02AED3FE0EB
:1021000049EC06C0EE0FBB0F661F771F881F28F033
:10211000B23A62077307840728F0B25A620B730B56
:10212000840BE3959A9572F7803830F49A95BB0F3B
:10213000661F771F881FD2F790480C94B411092EA0
:102140000394000C11F4882352F0BB0F40F4BF2B12
:1021500011F460FF04C06F5F7F4F8F4F9F4F089552
:10216000EF93E0FF07C0A2EA2AED3FE049EC5FEB06
:102170000E94FC0E0E949F100F90039401FC905847
:10218000E8E6F0E00C94C71157FD9058440F551F36
:1021900059F05F3F71F04795880F97FB991F61F0E9
:1021A0009F3F79F087950895121613061406551F60
:1021B000F2CF4695F1DF08C0161617061806991FCC
:1021C000F1CF86957105610508940895E894BB27C1
:1021D00066277727CB0197F908950E94391008F4F4
:1021E0008FEF08950E9405110C949F100E946610B5
:1021F00038F00E946D1020F0952311F00C945D10C2
:102200000C94631011240C94E7100E94C41070F316
:10221000959FC1F3950F50E0551F629FF001729F8B
:10222000BB27F00DB11D639FAA27F00DB11DAA1F9A
:10223000649F6627B00DA11D661F829F2227B00DE7
:10224000A11D621F739FB00DA11D621F839FA00D72
:10225000611D221F749F3327A00D611D231F849FC2
:10226000600D211D822F762F6A2F11249F57504019
:102270009AF0F1F088234AF0EE0FFF1FBB1F661F94
:10228000771F881F91505040A9F79E3F510580F05D
:102290000C945D100C94E7105F3FE4F3983ED4F388
:1022A000869577956795B795F795E7959F5FC1F701
:1022B000FE2B880F911D9695879597F908959F930A
:1022C0000E9476100F9007FCEE5F0C94B01019F48A
:1022D00016F40C9463100C94B2110E94CC10B8F355
:1022E0009923C9F3B6F39F57550B87FF0E94C0117E
:1022F0000024A0E640EA900180585695979528F46E
:10230000805C660F771F881F20F026173707480765
:1023100030F4621B730B840B202931294A2BA695BC
:1023200017940794202531254A2758F7660F771F01
:10233000881F20F026173707480730F4620B730B0D
:10234000840B200D311D411DA09581F7B901842F0B
:102350009158880F9695879508950E943910880B9B
:10236000990B08959F3F31F0915020F48795779510
:102370006795B795880F911D9695879597F908955C
:1023800091505040660F771F881FD2F708959F9392
:102390008F937F936F93FF93EF939B01AC010E9408
:1023A000F210EF91FF910E94DB112F913F914F911D
:1023B0005F910C94F210DF93CF931F930F93FF92D2
:1023C000EF92DF927B018C01689406C0DA2EEF0158
:1023D0000E940511FE01E894A59125913591459142
:1023E0005591A6F3EF010E94FC0EFE019701A80192
:1023F000DA9469F7DF90EF90FF900F911F91CF91E2
:10240000DF910895A1E21A2EAA1BBB1BFD010DC08E
:10241000AA1FBB1FEE1FFF1FA217B307E407F50794
:1024200020F0A21BB30BE40BF50B661F771F881F70
:10243000991F1A9469F760957095809590959B0106
:10244000AC01BD01CF010895052E97FB1EF4009449
:102450000E943B1257FD07D00E94021207FC03D0D6
:102460004EF40C943B1250954095309521953F4F7A
:102470004F4F5F4F089590958095709561957F4F70
:102480008F4F9F4F0895EE0FFF1F0590F491E02DA1
:10249000099481E090E0F8940C944E12F894FFCFE8
:1024A0000000400014005400000000002B019800C0
:1024B000C2007801F300D100E500000000002F0207
:1024C0000202DC02D601FA01E601D7010000000099
:1024D000C1059800DC02DB026E616E00696E660069
:1024E0006F76660056203D0049203D0053203D0098
:1024F0005046203D0050203D0051203D0050463DBB
:1025000000533D002056412000513D00503D002029
:102510006174617520006265646120666173616E3B
:1025200079613D004E696C6169204B6F7370696E13
:1025300079613D00746567616E67616E6720203D5B
:0C254000006172757320203D000D0A0040
:00000001FF
