:100000000C9471000C9499000C9499000C94990034
:100010000C9499000C9499000C9499000C949900FC
:100020000C9499000C9499000C9499000C949900EC
:100030000C9499000C9499000C9499000C949900DC
:100040000C941E030C9499000C948E030C9468037A
:100050000C9499000C9499000C9499000C949900BC
:100060000C9499000C94990005A84CCDB2D44EB9CB
:100070003836A9020C50B9918688083CA6AAAA2A4B
:10008000BE000000803F00000000250028002B007B
:1000900000000000240027002A00000000080002E1
:1000A0000100000304070000000000000000000041
:1000B00000002300260029000404040404040404AE
:1000C0000202020202020303030303030102040803
:1000D00010204080010204081020010204081020B2
:1000E000570911241FBECFEFD8E0DEBFCDBF11E00E
:1000F000A0E0B1E0E0EDF9E102C005900D92A83476
:10010000B107D9F722E0A8E4B1E001C01D92A435FF
:10011000B207E1F710E0C1E7D0E004C02197FE018B
:100120000E94DB0CC037D107C9F70E9405040C946C
:10013000E60C0C9400008E3008F08E5087708064BE
:1001400080937C0080917A00806480937A00809113
:100150007A0086FDFCCF809178002091790090E0B4
:10016000922B08953FB7F8948091B3019091B40118
:10017000A091B501B091B60126B5A89B05C02F3F4F
:1001800019F00196A11DB11D3FBFBA2FA92F982FBD
:100190008827820F911DA11DB11DBC01CD0142E038
:1001A000660F771F881F991F4A95D1F70895CF9240
:1001B000DF92EF92FF920F931F93CF93DF936C0127
:1001C0007A018B01C0E0D0E0CE15DF0581F0D801C7
:1001D0006D918D01D601ED91FC910190F081E02DA2
:1001E000C6010995892B11F02196EECF7E01C7013A
:1001F000DF91CF911F910F91FF90EF90DF90CF9003
:100200000895089580E090E00895FC01538D448D99
:10021000252F30E0842F90E0821B930B541710F0B1
:10022000CF96089501970895FC01918D828D9817BE
:1002300061F0828DDF01A80FB11D5D968C91928DCA
:100240009F5F9F73928F90E008958FEF9FEF0895C7
:10025000FC01918D828D981731F0828DE80FF11D90
:10026000858D90E008958FEF9FEF0895FC01918DAB
:10027000228D892F90E0805C9F4F821B91098F73A4
:100280009927089587EB91E00E94360121E0892BA0
:1002900009F420E0822F0895FC01848DDF01A80F6E
:1002A000B11DA35ABF4F2C91848D90E001968F739E
:1002B0009927848FA689B7892C93A089B1898C91BD
:1002C000837080648C93938D848D981306C002880C
:1002D000F389E02D80818F7D80830895EF92FF92D6
:1002E0000F931F93CF93DF93EC0181E0888F9B8D59
:1002F0008C8D981305C0E889F989808185FD26C019
:10030000F62E0B8D10E00F5F1F4F0F731127E02E9D
:100310008C8DE8120CC00FB607FCFACFE889F9897A
:10032000808185FFF5CFCE010E944C01F1CF8B8DEE
:10033000FE01E80FF11DE35AFF4FF0829FB7F894DA
:100340000B8FEA89FB89808180620AC09FB7F8948D
:10035000EE89FF896083E889F989808183708064F0
:1003600080839FBF81E090E0DF91CF911F910F913B
:10037000FF90EF900895CF93DF93EC01888D882351
:10038000C9F0EA89FB89808185FD05C0A889B98902
:100390008C9186FD0FC00FB607FCF5CF808185FFDD
:1003A000F2CFA889B9898C9185FFEDCFCE010E944B
:1003B0004C01E7CFDF91CF91089580E090E0892B49
:1003C00029F00E94420181110C94000008950097C9
:1003D00069F0FC0101900020E9F73197AF01481B5B
:1003E000590BBC0187EB91E00C94D70080E090E0C2
:1003F00008950C94E7012F923F924F925F926F9273
:100400007F928F929F92AF92BF92CF92DF92EF92A4
:10041000FF920F931F93CF93DF93CDB7DEB7A497CF
:100420000FB6F894DEBF0FBECDBF4B015C01F42EBA
:100430009B01AC010E94450C882319F082E191E0F8
:1004400027C024013501E89477F82FEF3FEF4FE7FD
:100450005FE7C301B2010E94450C81110DC02FEF6F
:100460003FEF4FE75FE7C301B2010E94F1091816A1
:100470001CF486E191E00CC02FEF3FEF4FE75FE403
:10048000C501B4010E948D0B18162CF48AE191E08D
:100490000E94E701B8C02FEF3FEF4FE75FECC501C7
:1004A000B4010E94F10987FDF1CF20E030E0A901FD
:1004B000C501B4010E94F10987FF0BC06DE287EB13
:1004C00091E00E946E013C01B7FAB094B7F8B09485
:1004D00002C0612C712C10E060E070E080E09FE3CE
:1004E000F11641F020E030E040E251E40E94FB09C7
:1004F0001F5FF6CFA50194010E9485094B015C01A5
:100500000E946D0A6AA3C72ED82EE92E19A2262FA3
:10051000372F482F592F8E010F5D1F4F0BA31CA3A0
:100520009AE0292E312C412C512CCA01B901A2018B
:1005300091010E949A0C605DF80162938F01211570
:1005400031054105510589F7CF010E94E70183017B
:10055000080F191FFF2009F455C06AA17C2D8D2DAD
:100560009E2D0E949C0A9B01AC01C501B4010E9412
:1005700084094B015C016EE287EB91E00E946E0101
:10058000080F191F8AE0282E312C412C512C20E015
:1005900030E040E251E4C501B4010E94920B4B01EE
:1005A0005C010E946D0A9B0140E050E019A2CBA0C3
:1005B000DCA0762E3AA3642EE52ECA01B901A20171
:1005C00091010E949A0C605DF60162936F01211502
:1005D00031054105510589F7CF010E94E701080F58
:1005E000191F672D7AA1862D9E2D0E949C0A9B01C2
:1005F000AC01C501B4010E9484094B015C01FA946D
:10060000F110C5CFC801A4960FB6F894DEBF0FBE97
:10061000CDBFDF91CF911F910F91FF90EF90DF90B1
:10062000CF90BF90AF909F908F907F906F905F9092
:100630004F903F902F9008950E94E10C1F920F92CF
:100640000FB60F9211242F933F938F939F93AF93E5
:10065000BF938091AF019091B001A091B101B09191
:10066000B2013091AE0123E0230F2D3720F4019623
:10067000A11DB11D05C026E8230F0296A11DB11DC5
:100680002093AE018093AF019093B001A093B1018C
:10069000B093B2018091B3019091B401A091B501E2
:1006A000B091B6010196A11DB11D8093B301909345
:1006B000B401A093B501B093B601BF91AF919F91E2
:1006C0008F913F912F910F900FBE0F901F90189513
:1006D0001F920F920FB60F9211242F933F934F93B7
:1006E0005F936F937F938F939F93AF93BF93EF939A
:1006F000FF9387EB91E00E944C01FF91EF91BF9136
:10070000AF919F918F917F916F915F914F913F91A9
:100710002F910F900FBE0F901F9018951F920F9260
:100720000FB60F9211242F938F939F93EF93FF9304
:10073000E091C701F091C8018081E091CD01F09175
:10074000CE0182FD12C090818091D0018F5F8F73A6
:100750002091D101821751F0E091D001F0E0E954ED
:10076000FE4F958F8093D00101C08081FF91EF9162
:100770009F918F912F910F900FBE0F901F90189502
:10078000CF92DF92EF92FF920F931F93E82FF92FF2
:1007900005C0015011092109310961F190819623A9
:1007A0009417B9F305C0015011092109310911F15C
:1007B000908196239413F7CFC12CD12CE12CF12CEE
:1007C0000AC08FEFC81AD80AE80AF80A0C151D05E6
:1007D0002E053F0579F080818623841791F36C2DD7
:1007E0007D2D8E2D9F2D1F910F91FF90EF90DF900B
:1007F000CF90089560E070E080E090E01F910F914D
:10080000FF90EF90DF90CF900895CF93DF93CDB717
:10081000DEB72C970FB6F894DEBF0FBECDBF78942D
:1008200084B5826084BD84B5816084BD85B58260F5
:1008300085BD85B5816085BD80916E0081608093A6
:100840006E0010928100809181008260809381000F
:10085000809181008160809381008091800081601F
:10086000809380008091B10084608093B10080917A
:10087000B00081608093B00080917A0084608093A2
:100880007A0080917A00826080937A0080917A0069
:10089000816080937A0080917A00806880937A00EA
:1008A0001092C100E9EDF0E02491E5ECF0E08491D4
:1008B0008823D9F090E0880F991FFC01E057FF4F83
:1008C000A591B491FC01EA57FF4F459154915A8389
:1008D00049833FB7F8949C91822F809598239C93ED
:1008E000DA019C9189238C933FBFE091C701F0917D
:1008F000C80182E08083E091C301F091C4011082BD
:10090000E091C501F091C6018FEC80831092CF0178
:10091000E091CB01F091CC0186E08083E091C901A8
:10092000F091CA01808180618083E091C901F091DA
:10093000CA01808188608083E091C901F091CA0179
:10094000808180688083E091C901F091CA01808133
:100950008F7D80838EE090E09093670180936601A5
:100960008DEC9CE4A8E4B3E480936A0190936B015E
:10097000A0936C01B0936D0186E696E6A6EABFE30C
:100980008093720190937301A0937401B0937501E9
:1009900080E090E0A0E0B4E480938601909387012A
:1009A000A0938801B09389012FE030E03093690172
:1009B0002093680140E050E060E772E440936E01EC
:1009C00050936F01609370017093710180938A015D
:1009D00090938B01A0938C01B0938D01E7EAF0E036
:1009E0008491E9EDF0E09491E5ECF0E094919923A5
:1009F00091F1882339F1833091F038F48130A9F0F6
:100A0000823001F584B58F7D12C0873091F0883037
:100A1000A1F08430B9F4809180008F7D03C0809173
:100A200080008F77809380000DC084B58F7784BD60
:100A300009C08091B0008F7703C08091B0008F7D96
:100A40008093B000E92FF0E0EE0FFF1FE255FF4F5B
:100A5000A591B4918C91FEE4F0937C000E94B200C9
:100A60004B015C0122E0C22ED12CE12CF12C0E9422
:100A7000B200DC01CB0188199909AA09BB09883E9B
:100A80009340A105B10598F321E0C21AD108E1080D
:100A9000F10838EE830E33E0931EA11CB11CC11483
:100AA000D104E104F10419F780917A008064809305
:100AB0007A0080917A0086FDFCCF809178002091A9
:100AC000790030E0322F2227A901330F660B770B14
:100AD0009A01AB01282B60E070E381E190E00E9475
:100AE000BC0C2D833E834F8358878FB7F89480903A
:100AF000AF019090B001A090B101B090B2018FBF52
:100B0000809166010E949B009093AB018093AA01A3
:100B1000BC01990F880B990B0E949E0A6B017C0106
:100B20002DEC3CEC4CE054E40E94F10987FF0CC032
:100B300081E0898326E636E646EE53E4C701B60136
:100B40000E948D0B18160CF019822FB7F894809123
:100B5000AF019091B001A091B101B091B2012FBF4E
:100B600088199909AA09BB09813D9740A105B105DA
:100B700018F45981552321F28FB7F8942091AF01D1
:100B80003091B0014091B1015091B20129833A8373
:100B90004B835C838FBF1A861986212C312C2FB78B
:100BA000F8948091AF019091B001A091B101B09102
:100BB000B2012FBF29813A814B815C81821B930B4B
:100BC000A40BB50B803D9740A105B10508F047C1C6
:100BD000A985BA851196BA87A98780917E019091DF
:100BE0007F01A0918001B091810180937A0190935F
:100BF0007B01A0937C01B0937D01809166010E94EE
:100C00009B009093770180937601809168010E9408
:100C10009B007C019093790180937801009176018B
:100C200010917701B801012E000C880B990B0E94DE
:100C30009E0A4B015C0140908601509087016090B4
:100C4000880170908901A30192010E94840920E02B
:100C500030E040E85AE30E94920BA30192010E9407
:100C600085099B01AC016093860170938701809395
:100C7000880190938901C501B4010E9484094B0148
:100C80005C0160937E0170937F018093800190935B
:100C90008101B701FF0C880B990B0E949E0A6B0122
:100CA0007C0140908A0150908B0160908C01709083
:100CB0008D01A30192010E94840920E030E040E808
:100CC0005AE30E94920BA30192010E9485099B01A5
:100CD000AC0160938A0170938B0180938C01909397
:100CE0008D01C701B6010E9484096B017C016093EC
:100CF0008201709383018093840190938501A50103
:100D00009401C501B4010E94920B9B01AC01609358
:100D10009201709393018093940190939501609157
:100D200096017091970180919801909199010E948C
:100D30008509609396017093970180939801909331
:100D40009901A7019601C701B6010E94920B9B0170
:100D5000AC0160939A0170939B0180939C019093E6
:100D60009D0160919E0170919F018091A0019091E1
:100D7000A1010E94850960939E0170939F01809359
:100D8000A0019093A10140907A0150907B01609066
:100D90007C0170907D01A3019201C501B4010E9404
:100DA0008409209172013091730140917401509136
:100DB00075010E94920BA30192010E9485099B017B
:100DC000AC0160938E0170938F018093900190939A
:100DD0009101C701B6010E94920B9B01AC01609387
:100DE000A2017093A3018093A4019093A501609147
:100DF000A6017091A7018091A8019091A9010E947C
:100E000085096093A6017093A7018093A801909330
:100E1000A9018091AD018093AC018091AA019091CC
:100E2000AB018017910724F441E04093AD0102C06B
:100E30001092AD018091AD01A985BA85119711F489
:100E40008093AC019091AC01981305C034E1231656
:100E5000310428F4A4CEBFEF2B1A3B0AF7CFED8163
:100E6000FE81BF01FF0F880B990B0E949E0A20E0B4
:100E700030E04AE754E40E94FB0920E030E040E81B
:100E80005AE30E94920B2B013C0120916A013091A0
:100E90006B0140916C0150916D010E94920B4B01CE
:100EA0005C0129853A85B90180E090E00E949C0AA6
:100EB0006B017C019B01AC016091960170919701DF
:100EC00080919801909199010E94FB090E94050C64
:100ED0009B01AC01C501B4010E94920B69837A8326
:100EE0008B839C8360935E0170935F0180936001AC
:100EF0009093610120916E0130916F0140917001DA
:100F000050917101C301B2010E94920B2B013C016F
:100F1000A701960160919E0170919F018091A001AF
:100F20009091A1010E94FB090E94050C9B01AC015C
:100F3000C301B2010E94920B6D837E838F839887D9
:100F400060936201709363018093640190936501E3
:100F5000A3019201C501B4010E94920B2091A60148
:100F60003091A7014091A8015091A9010E94920BD4
:100F7000A70196010E94FB094B015C01609352019D
:100F80007093530180935401909355012D813E81BC
:100F90004F81588569817A818B819C810E94920B57
:100FA0006B017C0160935601709357018093580147
:100FB000909359019B01AC01C501B4010E94FB094A
:100FC00069877A878B879C8760935A0170935B014E
:100FD00080935C0190935D011092960110929701AD
:100FE000109298011092990110929E0110929F0107
:100FF0001092A0011092A1011092A6011092A701D7
:101000001092A8011092A901A7019601C701B6018B
:101010000E94920B2B013C01A5019401C501B40172
:101020000E94920B9B01AC01C301B2010E94840992
:101030000E94050C2B013C011092510110925001AD
:10104000809150019091510105970CF06CC0E9ED31
:10105000F0E06491E5ECF0E08491E82FF0E0EE0F31
:10106000FF1FE255FF4F8591949100E412E42FE0B9
:1010700030E0462F0E94C00361157105810591057E
:1010800049F0DC01CB010196A11DB11DBC01CD01D0
:101090009F7003C060E070E0CB010E949C0A2DEBC2
:1010A00037E346E855E30E94920B20E030E044EB42
:1010B00053E40E94920B20E030E048E452E40E94A6
:1010C000920B4B015C0120914C0130914D014091FC
:1010D0004E0150914F010E948D0B1816D4F480924E
:1010E0004C0190924D01A0924E01B0924F0121EE21
:1010F0003EE245E652E4C501B4010E94FB090E94AC
:10110000F609609348017093490180934A019093D6
:101110004B018091500190915101019690935101A2
:10112000809350018DCF20E030E044EB53E4609198
:101130004C0170914D0180914E0190914F010E94A0
:101140008D0B1816A4F410924C0110924D011092C0
:101150004E0110924F0120E030E040E85FE3209321
:1011600048013093490140934A0150934B0120E0DC
:1011700030E0A90160914C0170914D0180914E01C8
:1011800090914F010E94F109811114C010924C01FD
:1011900010924D0110924E0110924F0180E090E0AC
:1011A000A0E8BFE38093480190934901A0934A01CE
:1011B000B0934B01209148013091490140914A017F
:1011C00050914B01C701B6010E94920B4B015C018B
:1011D0008EE191E00E94F90142E0C501B4010E9454
:1011E000FB0183E291E00E94E70186E291E00E9428
:1011F000E70189E291E00E94F90142E0C701B601EE
:101200000E94FB0183E291E00E94E70186E291E007
:101210000E94E7018EE291E00E94F90140E0C301E3
:10122000B2010E94FB0183E391E00E94F90142E0D8
:1012300069817A818B819C810E94FB0183E391E02B
:101240000E94F90142E06D817E818F8198850E9424
:10125000FB0187E391E00E94F90142E069857A850C
:101260008B859C850E94FB018FE391E00E94F90130
:10127000609148017091490180914A0190914B0120
:1012800042E00E94FB018FE391E00E94F901A70177
:101290009601C501B4010E94FB0942E00E94FB01D6
:1012A00086E291E00E94E7010E94DD0197CBE7EB27
:1012B000F1E01382128288EE93E0A0E0B0E0848334
:1012C0009583A683B78384E091E09183808385EC46
:1012D00090E09587848784EC90E09787868780EC00
:1012E00090E0918B808B81EC90E0938B828B82ECF1
:1012F00090E0958B848B86EC90E0978B868B118E9B
:10130000128E138E148E08955058BB27AA270E9460
:101310009C090C943F0B0E94060B38F00E940D0BA9
:1013200020F039F49F3F19F426F40C94030B0EF4CB
:10133000E095E7FB0C94FD0AE92F0E94640B58F33B
:10134000BA17620773078407950720F079F4A6F5AA
:101350000C94860B0EF4E0950B2EBA2FA02D0B01EA
:10136000B90190010C01CA01A0011124FF27591BEA
:1013700099F0593F50F4503E68F11A16F040A22FF0
:10138000232F342F4427585FF3CF46953795279561
:10139000A795F0405395C9F77EF41F16BA0B620B60
:1013A000730B840BBAF09150A1F0FF0FBB1F661FA7
:1013B000771F881FC2F70EC0BA0F621F731F841FEA
:1013C00048F4879577956795B795F7959E3F08F010
:1013D000B0CF9395880F08F09927EE0F97958795D2
:1013E00008950E94D90A08F481E008950E94160B1E
:1013F000E3950C94500B0E940F0A0C943F0B0E9433
:101400000D0B58F00E94060B40F029F45F3F29F0C5
:101410000C94FD0A51110C94870B0C94030B0E9441
:10142000640B68F39923B1F3552391F3951B550B86
:10143000BB27AA2762177307840738F09F5F5F4FA7
:10144000220F331F441FAA1FA9F335D00E2E3AF0E6
:10145000E0E832D091505040E695001CCAF72BD0FE
:10146000FE2F29D0660F771F881FBB1F261737074F
:101470004807AB07B0E809F0BB0B802DBF01FF2781
:1014800093585F4F3AF09E3F510578F00C94FD0A57
:101490000C94870B5F3FE4F3983ED4F386957795E1
:1014A0006795B795F7959F5FC9F7880F911D96953A
:1014B000879597F90895E1E0660F771F881FBB1F96
:1014C000621773078407BA0720F0621B730B840B43
:1014D000BA0BEE1F88F7E09508950E946C0B88F018
:1014E0009F5798F0B92F9927B751B0F0E1F0660FE8
:1014F000771F881F991F1AF0BA95C9F714C0B13029
:1015000091F00E94860BB1E008950C94860B672F32
:10151000782F8827B85F39F0B93FCCF38695779557
:101520006795B395D9F73EF4909580957095619540
:101530007F4F8F4F9F4F0895E89409C097FB3EF46B
:1015400090958095709561957F4F8F4F9F4F992310
:10155000A9F0F92F96E9BB279395F695879577958E
:101560006795B795F111F8CFFAF4BB0F11F460FF4E
:101570001BC06F5F7F4F8F4F9F4F16C0882311F0A6
:1015800096E911C0772321F09EE8872F762F05C0BA
:10159000662371F096E8862F70E060E02AF09A9555
:1015A000660F771F881FDAF7880F9695879597F94A
:1015B0000895990F0008550FAA0BE0E8FEEF1616E4
:1015C0001706E807F907C0F012161306E407F50737
:1015D00098F0621B730B840B950B39F40A2661F0AB
:1015E000232B242B252B21F408950A2609F4A1404E
:1015F000A6958FEF811D811D089597F99F6780E85B
:1016000070E060E008959FEF80EC089500240A9454
:101610001616170618060906089500240A941216CD
:1016200013061406050608950C94030B0E946C0B18
:10163000D8F3E894E0E0BB279F57F0F02AED3FE0B5
:1016400049EC06C0EE0FBB0F661F771F881F28F0FE
:10165000B23A62077307840728F0B25A620B730B21
:10166000840BE3959A9572F7803830F49A95BB0F06
:10167000661F771F881FD2F790480C944C0C092ED8
:101680000394000C11F4882352F0BB0F40F4BF2BDD
:1016900011F460FF04C06F5F7F4F8F4F9F4F08951D
:1016A000EF93E0FF07C0A2EA2AED3FE049EC5FEBD1
:1016B0000E949C090E943F0B0F90039401FC9058DC
:1016C000E8E6F0E00C945F0C57FD9058440F551F6E
:1016D00059F05F3F71F04795880F97FB991F61F0B4
:1016E0009F3F79F087950895121613061406551F2B
:1016F000F2CF4695F1DF08C0161617061806991F97
:10170000F1CF86957105610508940895E894BB278B
:1017100066277727CB0197F908950E94D90A08F424
:101720008FEF08950E94A50B0C943F0B0E94060BAF
:1017300038F00E940D0B20F0952311F00C94FD0A57
:101740000C94030B11240C94870B0E94640B70F310
:10175000959FC1F3950F50E0551F629FF001729F56
:10176000BB27F00DB11D639FAA27F00DB11DAA1F65
:10177000649F6627B00DA11D661F829F2227B00DB2
:10178000A11D621F739FB00DA11D621F839FA00D3D
:10179000611D221F749F3327A00D611D231F849F8D
:1017A000600D211D822F762F6A2F11249F575040E4
:1017B0009AF0F1F088234AF0EE0FFF1FBB1F661F5F
:1017C000771F881F91505040A9F79E3F510580F028
:1017D0000C94FD0A0C94870B5F3FE4F3983ED4F31E
:1017E000869577956795B795F795E7959F5FC1F7CC
:1017F000FE2B880F911D9695879597F9089519F4FA
:1018000016F40C94030B0C944A0C0E946C0BB8F366
:101810009923C9F3B6F39F57550B87FF0E94580CC5
:101820000024A0E640EA900180585695979528F448
:10183000805C660F771F881F20F026173707480740
:1018400030F4621B730B840B202931294A2BA69597
:1018500017940794202531254A2758F7660F771FDC
:10186000881F20F026173707480730F4620B730BE8
:10187000840B200D311D411DA09581F7B901842FE6
:101880009158880F9695879508950E94D90A880BDC
:10189000990B08959F3F31F0915020F487957795EB
:1018A0006795B795880F911D9695879597F9089537
:1018B00091505040660F771F881FD2F708959F936D
:1018C0008F937F936F93FF93EF939B01AC010E94E3
:1018D000920BEF91FF910E94730C2F913F914F91CA
:1018E0005F910C94920BDF93CF931F930F93FF9212
:1018F000EF92DF927B018C01689406C0DA2EEF0133
:101900000E94A50BFE01E894A59125913591459182
:101910005591A6F3EF010E949C09FE019701A801D1
:10192000DA9469F7DF90EF90FF900F911F91CF91BC
:10193000DF910895A1E21A2EAA1BBB1BFD010DC069
:10194000AA1FBB1FEE1FFF1FA217B307E407F5076F
:1019500020F0A21BB30BE40BF50B661F771F881F4B
:10196000991F1A9469F760957095809590959B01E1
:10197000AC01BD01CF010895052E97FB1EF4009424
:101980000E94D30C57FD07D00E949A0C07FC03D08D
:101990004EF40C94D30C50954095309521953F4FC3
:1019A0004F4F5F4F089590958095709561957F4F4B
:1019B0008F4F9F4F0895EE0FFF1F0590F491E02D7C
:1019C000099481E090E0F8940C94E60CF894FFCF31
:1019D000000000006E01D7000501BB0136011401B3
:1019E00028016E616E00696E66006F766600502099
:1019F0003D20002020000D0A0053203D20005120F2
:101A00003D2000202620002026205046203D00209A
:081A100061746175203D0000C6
:107E0000112484B714BE81FFF0D085E080938100F7
:107E100082E08093C00088E18093C10086E0809377
:107E2000C20080E18093C4008EE0C9D0259A86E02C
:107E300020E33CEF91E0309385002093840096BBD3
:107E4000B09BFECF1D9AA8958150A9F7CC24DD24C4
:107E500088248394B5E0AB2EA1E19A2EF3E0BF2EE7
:107E6000A2D0813461F49FD0082FAFD0023811F036
:107E7000013811F484E001C083E08DD089C08234E0
:107E800011F484E103C0853419F485E0A6D080C0E4
:107E9000853579F488D0E82EFF2485D0082F10E0AE
:107EA000102F00270E291F29000F111F8ED06801E7
:107EB0006FC0863521F484E090D080E0DECF843638
:107EC00009F040C070D06FD0082F6DD080E0C81688
:107ED00080E7D80618F4F601B7BEE895C0E0D1E017
:107EE00062D089930C17E1F7F0E0CF16F0E7DF06D8
:107EF00018F0F601B7BEE89568D007B600FCFDCFD4
:107F0000A601A0E0B1E02C9130E011968C91119780
:107F100090E0982F8827822B932B1296FA010C0160
:107F200087BEE89511244E5F5F4FF1E0A038BF0790
:107F300051F7F601A7BEE89507B600FCFDCF97BE46
:107F4000E89526C08437B1F42ED02DD0F82E2BD052
:107F50003CD0F601EF2C8F010F5F1F4F84911BD097
:107F6000EA94F801C1F70894C11CD11CFA94CF0C13
:107F7000D11C0EC0853739F428D08EE10CD085E9AC
:107F80000AD08FE07ACF813511F488E018D01DD067
:107F900080E101D065CF982F8091C00085FFFCCF94
:107FA0009093C60008958091C00087FFFCCF809118
:107FB000C00084FD01C0A8958091C6000895E0E648
:107FC000F0E098E1908380830895EDDF803219F02E
:107FD00088E0F5DFFFCF84E1DECF1F93182FE3DFCA
:107FE0001150E9F7F2DF1F91089580E0E8DFEE27F6
:047FF000FF270994CA
:027FFE00040479
:0400000300007E007B
:00000001FF
