:10000000FAC0000028C1000026C1000024C1000081
:1000100022C1000020C100001EC100001CC1000060
:100020001AC1000018C1000016C1000014C1000070
:1000300012C1000010C100000EC100000CC1000080
:100040000AC1000008C1000006C1000004C1000090
:1000500002C1000000C10000FEC00000B5C70000E2
:10006000FAC00000CEC40000A3C40000F4C0000029
:10007000F2C00000F0C00000EEC00000ECC00000C4
:10008000EAC00000E8C00000E6C00000E4C00000D4
:10009000E2C00000E0C00000DEC00000E8C40000D4
:1000A000DAC00000D8C00000D6C00000D4C00000F4
:1000B000D2C00000D0C00000CEC00000CCC0000004
:1000C000CAC00000C8C00000C6C00000C4C0000014
:1000D000C2C00000C0C00000BEC00000BCC0000024
:1000E000BAC00000DF06E206D106D506D906190718
:1000F000E606EA06F006F406F806FE06020706071C
:1001000019070C071007140700002200250028001B
:100110002B002E003100340002010000050108010F
:100120000B0105050505070508080808020202027B
:100130000A0A080804040404010101010101010183
:100140000303030303030303040707070C0C0C0C4E
:100150000C0C0C0C02020202060606060606060637
:100160000B0B0B0B0B0B0B0B0102102020080810C4
:100170002040102040800201020108040201010217
:1001800004081020408080402010080402018004F0
:10019000020180402010080402010804020101024B
:1001A0000408102040800102040810204080000054
:1001B0000A0B02090C0D0E080703040100000000E1
:1001C000000000000000000000000000000000002F
:1001D00000000000000000000000121110000000EC
:1001E000000000000000000000000000000000000F
:1001F000000000006F0D11241FBECFEFD1E2DEBF63
:10020000CDBF00E00CBF12E0A0E0B2E0E8EEF0E20B
:1002100000E00BBF02C007900D92AC36B107D9F7D2
:1002200024E0ACE6B2E001C01D92AA33B207E1F7C8
:1002300010E0CBEFD0E000E006C021970109802F4D
:10024000FE010E946610CA3FD10780E00807A9F7A7
:1002500005D70C947210D4CE08950895CF92DF92F2
:10026000EF92FF920F931F93CF93DF936C017A016C
:100270008B01C0E0D0E0CE15DF0581F0D8016D9193
:100280008D01D601ED91FC910190F081E02DC60128
:100290001995892B11F02196EECF7E01C701DF91D0
:1002A000CF911F910F91FF90EF90DF90CF90089525
:1002B000FC01538D448D252F30E0842F90E0821B6C
:1002C000930B541710F0CF96089501970895FC01F1
:1002D000918D828D981761F0828DDF01A80FB11D7D
:1002E0005D968C91928D9F5F9F73928F90E00895A1
:1002F0008FEF9FEF0895FC01918D828D981731F05B
:10030000828DE80FF11D858D90E008958FEF9FEFAE
:100310000895FC01918D228D892F90E0805C9F4F84
:10032000821B91098F739927089580E893E0F1DF8C
:1003300021E0892B09F420E0822F0895FC01848DAF
:10034000DF01A80FB11DA35ABF4F2C91848D90E0FF
:1003500001968F739927848FA689B7892C93A089DA
:10036000B1898C91837080648C93938D848D981364
:1003700006C00288F389E02D80818F7D80830895F7
:10038000EF92FF920F931F93CF93DF93EC0181E0E5
:10039000888F9B8D8C8D981305C0E889F9898081A1
:1003A00085FD25C0F62E0B8D10E00F5F1F4F0F73DC
:1003B0001127E02E8C8DE8120BC00FB607FCFACF88
:1003C000E889F989808185FFF5CFCE01B7DFF2CFCB
:1003D0008B8DFE01E80FF11DE35AFF4FF0829FB7AE
:1003E000F8940B8FEA89FB89808180620AC09FB7ED
:1003F000F894EE89FF896083E889F98980818370A8
:10040000806480839FBF81E090E0DF91CF911F9156
:100410000F91FF90EF900895CF93DF93EC01888DBB
:100420008823C1F0EA89FB89808185FD05C0A88900
:10043000B9898C9186FD0EC00FB607FCF5CF80817F
:1004400085FFF2CFA889B9898C9185FFEDCFCE01C8
:1004500075DFE8CFDF91CF91089580E090E0892BA0
:1004600019F063DF811125C080E090E0892B41F015
:1004700080E090E0892B21F00E94000081111CC0D7
:1004800080E090E0892B41F080E090E0892B21F022
:100490000E940000811113C080E090E0892BA1F040
:1004A00080E090E0892B81F00E94000081110AC059
:1004B00008950E940000D8CF0E940000E1CF0E9462
:1004C0000000EACF0C940000089585ED8093BC00F5
:1004D0008091BC0084FDFCCF10921B0308954091D5
:1004E000CE02262F30E0240F311D21323105DCF4FD
:1004F00020911B032430C9F4FC0180E090E08617B2
:1005000058F43091CE022191DC01A255BD4FA30FCA
:10051000B11D2C930196F3CF8091CE02680F6093AA
:10052000CE0280E0089581E0089582E00895089564
:10053000E0911F0380911E03E81730F4F0E0E257CA
:10054000FD4F808190E008958FEF9FEF0895909187
:100550001F0380911E03981750F4E92FF0E0E25733
:10056000FD4F208130E09F5F90931F0302C02FEF6B
:100570003FEFC901089580911E0390E020911F0371
:10058000821B91090895CF92DF92EF92FF920F9311
:100590001F93CF93DF937C01CB018A0120918D02C1
:1005A000222389F0EB016B01C40ED51ECC15DD05AD
:1005B00061F06991D701ED91FC910190F081E02DFE
:1005C000C7011995F3CF642F8ADFC801DF91CF915E
:1005D0001F910F91FF90EF90DF90CF900895CF93F0
:1005E000DF931F92CDB7DEB7698320918D0222235E
:1005F000D1F020911C03203240F021E030E0FC01DA
:100600003383228380E090E014C080911D03E82FA3
:10061000F0E0E359FD4F998190838F5F80931D0334
:1006200080931C0304C061E0CE01019658DF81E095
:1006300090E00F90DF91CF910895CF93FC01C4819A
:1006400021E020938D02C0936C0210921D03109242
:100650001C038385682B8DE194E0C1DF90911C031E
:10066000913208F045C080911B038111FCCF82E0DC
:1006700080931B0381E080931A038FEF8093F10234
:100680001092130390931203ADE6B2E0E2EFF2E0B2
:1006900080E0981721F02D9121938F5FFACF10926F
:1006A000140380911403CC0FC82BC09314038091C2
:1006B0001903813061F4109219038091140380931F
:1006C000BB008091BC0083FDF8CF85EC01C085EEB6
:1006D0008093BC0080911B038230E1F38091F10292
:1006E0008F3F31F08091F102803211F08091F10260
:1006F00010921D0310921C0310928D02CF91089549
:100700000F931F93CF938C01C62F97DF6C2F6460DC
:10071000C80193DF6C2F6B7FC8018FDF83EC90E003
:100720000197F1F7CF911F910F910895089580E0FF
:1007300090E008950E946E106115710579F0FB013B
:1007400001900020E9F73197AF01461B570BDC0100
:10075000ED91FC910280F381E02D199480E090E00E
:1007600008952F923F924F925F926F927F928F9255
:100770009F92AF92BF92CF92DF92EF92FF920F9330
:100780001F93CF93DF93CDB7DEB7A2970FB6F89440
:10079000DEBF0FBECDBF8C014A015B01D22E9A0194
:1007A000AB01C501B4010E940F10882319F068E362
:1007B00072E027C024013501E89477F82FEF3FEF6E
:1007C0004FE75FE7C301B2010E940F1081110DC016
:1007D0002FEF3FEF4FE75FE7C301B2010E941C0E0E
:1007E00018161CF46CE372E00CC02FEF3FEF4FE7DC
:1007F0005FE4C501B4010E94660F18162CF460E492
:1008000072E0C80199DFBBC02FEF3FEF4FE75FEC0D
:10081000C501B4010E941C0E87FDF1CF20E030E03D
:10082000A901C501B4010E941C0E87FF0FC0D801A9
:10083000ED91FC910190F081E02D6DE2C8011995D8
:100840001C01B7FAB094B7F8B09402C0212C312C37
:10085000F12C60E070E080E09FE3DF1441F020E0E5
:1008600030E040E251E40E94200EF394F6CFA5015F
:1008700094010E94B80D4B015C010E94880E562E17
:10088000672E782EC92E19A2262F372F482F592FC1
:100890007E01B1E2EB0EF11CEAA24F2CCA01B901B4
:1008A0002AE030E040E050E00E942810605DF7014F
:1008B00062937F01211531054105510579F7BF018B
:1008C000C8013ADF7101E80EF91EDD2009F456C0B7
:1008D000652D762D872D9C2D0E94B40E9B01AC01B9
:1008E000C501B4010E94B70D4B015C01D801ED9127
:1008F000FC910190F081E02D6EE2C8011995E80E9F
:10090000F91E20E030E040E251E4C501B4010E944C
:100910006A0F4B015C010E94880E9B0140E050E091
:1009200019A22AA0342C562E632E742EC52ECA016D
:10093000B9012AE030E040E050E00E942810605DFC
:10094000F10162931F01211531054105510579F728
:10095000BF01C801F1DEE80EF91E652D762D872D49
:100960009C2D0E94B40E9B01AC01C501B4010E94F4
:10097000B70D4B015C01DA94D110C3CFC701A29629
:100980000FB6F894DEBF0FBECDBFDF91CF911F91A0
:100990000F91FF90EF90DF90CF90BF90AF909F901E
:1009A0008F907F906F905F904F903F902F90089521
:1009B0001F920F920FB60F9211240BB60F922F9326
:1009C0003F934F935F936F937F938F939F93AF93D7
:1009D000BF93EF93FF9380E893E0B0DCFF91EF913A
:1009E000BF91AF919F918F917F916F915F914F9147
:1009F0003F912F910F900BBE0F900FBE0F901F9045
:100A000018951F920F920FB60F9211240BB60F92EA
:100A10002F938F939F93EF93FF93E0919003F09127
:100A200091038081E0919603F091970382FD12C0BB
:100A30009081809199038F5F8F7320919A03821721
:100A400051F0E0919903F0E0E058FC4F958F8093CE
:100A5000990301C08081FF91EF919F918F912F9118
:100A60000F900BBE0F900FBE0F901F9018951F9206
:100A70000F920FB60F9211240BB60F922F933F9344
:100A80004F935F936F937F938F939F93AF93BF9396
:100A9000EF93FF938091B900887F803609F49CC062
:100AA00068F5883209F45BC090F4803109F454C0D1
:100AB00038F4882309F4F6C0883009F44DC0F5C035
:100AC000883109F44CC0803209F45DC0EEC0803436
:100AD00009F468C048F4803309F455C0883309F03C
:100AE000E4C08093F102D8C0803509F44FC0883546
:100AF00009F45DC0883409F0D8C0D6C0883909F43B
:100B0000C7C0A8F4883709F467C038F4883609F4F8
:100B100063C0803709F460C0C8C0883809F4B8C021
:100B2000803909F45FC0803809F0BFC05BC0803BEA
:100B300009F486C038F4803A09F466C0883A09F4AA
:100B40007FC0B3C0803C09F4A7C0883C09F4A4C0AE
:100B5000883B09F48AC0A9C08091140310C0909109
:100B6000130380911203981770F5E091130381E04D
:100B70008E0F80931303F0E0EE50FD4F8081809341
:100B8000BB0085EC86C08093F1028EC0E091130318
:100B900081E08E0F809313038091BB00F0E0EE5054
:100BA000FD4F808390911303809112036EC0E091FA
:100BB000130381E08E0F809313038091BB00F0E05C
:100BC000EE50FD4F808380911A0381116DC081E04A
:100BD0008093190384EA61C083E080931B03109221
:100BE000F002CFCF8091F002803208F051C0E09146
:100BF000F00281E08E0F8093F0028091BB00F0E064
:100C0000E053FD4F8083BDCF85EC8093BC001092F4
:100C10001B038091F002803230F4E091F002F0E0AA
:100C2000E053FD4F10826091F00270E0E0911503F7
:100C3000F091160380ED92E019951092F00235C004
:100C400084E080931B031092CF021092CE02E091B9
:100C50001703F091180319958091CE02811105C0F8
:100C600081E08093CE021092AE02E091CF0281E04B
:100C70008E0F8093CF02F0E0E255FD4F808180938C
:100C8000BB009091CF028091CE02981708F479CFE3
:100C900085E88093BC0009C085EC8093BC0010926D
:100CA0001B0303C01092F10210DCFF91EF91BF9182
:100CB000AF919F918F917F916F915F914F913F91F4
:100CC0002F910F900BBE0F900FBE0F901F90189595
:100CD0000F931F93CF93DF938C01C62FD42F607F88
:100CE000642B0EDD80E1C89FB00111246D2BC8017B
:100CF000DF91CF911F910F9103CD41E0E9DF81E0BA
:100D000090E008953FB7F8948091360490913704AD
:100D1000A0913804B091390426B5A89B05C02F3F97
:100D200019F00196A11DB11D3FBFBA2FA92F982F11
:100D30008827820F911DA11DB11DBC01CD0142E08C
:100D4000660F771F881F991F4A95D1F7089540E0D5
:100D500061E089E294E0BCDF8BE39FE10197F1F76A
:100D6000089590E0FC01E255FE4F4491FC01E859E2
:100D7000FE4F2491FC01EE5DFE4F9491992309F4FE
:100D800066C0442309F455C050E0FA013197E231BE
:100D9000F10508F04EC08827EE58FF4F8F4F0C9496
:100DA0006610809180008F7707C0809180008F7DD2
:100DB00003C080918000877F809380003AC084B513
:100DC0008F7702C084B58F7D84BD33C08091B00021
:100DD0008F7703C08091B0008F7D8093B00029C0D1
:100DE000809190008F7707C0809190008F7D03C025
:100DF00080919000877F809390001BC08091A0001D
:100E00008F7707C08091A0008F7D03C08091A000E4
:100E1000877F8093A0000DC0809120018F7707C04D
:100E2000809120018F7D03C080912001877F809376
:100E30002001E92FF0E0EE0FFF1FE85FFE4FA591C4
:100E4000B4918FB7F894EC91E22BEC938FBF089597
:100E5000242FAB01BC0189E294E083CCCF93DF93D4
:100E6000CDB7DEB728970FB6F894DEBF0FBECDBF63
:100E700098E0E0E0F2E0DE01119601900D929A9583
:100E8000E1F790913104961710F46FEF690FFE01AE
:100E90003196E60FF11DE60FF11D6081680F606865
:100EA00040E089E294E028960FB6F894DEBF0FBECA
:100EB000CDBFDF91CF910CCFBC0189E294E03CCC57
:100EC000863308F0865390917B00282F2870977FF7
:100ED000922B90937B008770806480937C0080913C
:100EE0007A00806480937A0080917A0086FDFCCF3E
:100EF000809178002091790090E0922B08958F9254
:100F00009F92AF92BF92CF92DF92EF92FF926B01CE
:100F10007C01F8DE4B015C01C114D104E104F10451
:100F2000E9F0F0DEDC01CB0188199909AA09BB09B7
:100F3000883E9340A105B10578F321E0C21AD1089B
:100F4000E108F10888EE880E83E0981EA11CB11C10
:100F5000C114D104E104F10421F7DECFFF90EF903A
:100F6000DF90CF90BF90AF909F908F9008958EE5C7
:100F700080937C0080917B00877F80937B0062E080
:100F800070E080E090E0BBDF80917A008064809325
:100F90007A0080917A0086FDFCCF809178002091C4
:100FA000790030E0322F2227A901330F660B770B2F
:100FB0009A01AB01282B60E070E381E190E00E9490
:100FC0004A10CA01B90108951F920F920FB60F92ED
:100FD00011242F933F938F939F93AF93BF9380914F
:100FE000200390912103A0912203B091230330911B
:100FF000350423E0230F2D3720F40196A11DB11DE8
:1010000005C026E8230F0296A11DB11D20933504CB
:101010008093200390932103A0932203B093230392
:101020008091360490913704A0913804B09139042E
:101030000196A11DB11D8093360490933704A093AF
:101040003804B0933904BF91AF919F918F913F9134
:101050002F910F900FBE0F901F901895CF93DF9395
:10106000CDB7DEB72A970FB6F894DEBF0FBECDBF5F
:10107000789484B5826084BD84B5816084BD85B573
:10108000826085BD85B5816085BD80916E0081607F
:1010900080936E0010928100809181008260809325
:1010A0008100809181008160809381008091800027
:1010B0008160809380008091B10084608093B10052
:1010C0008091B00081608093B00080919100826037
:1010D0008093910080919100816080939100809134
:1010E00090008160809390008091A1008260809345
:1010F000A1008091A10081608093A1008091A00057
:1011000081608093A0008091210182608093210101
:101110008091210181608093210180912001816073
:101120008093200180917A00846080937A0080917E
:101130007A00826080937A0080917A008160809347
:101140007A0080917A00806880937A001092C100C2
:10115000E0919003F091910382E08083E0918C0311
:10116000F0918D031082E0918E03F0918F038FEC4C
:10117000808310929803E0919403F091950386E0A8
:101180008083E0919203F09193038081806180835A
:10119000E0919203F0919303808188608083E091D5
:1011A0009203F0919303808180688083E0919203A1
:1011B000F091930380818F7D808310921F031092A2
:1011C0001E0310921D0310921C0310921B0381E05A
:1011D00080931A031092190384E1C3DD85E1C1DD18
:1011E0008091B9008E7F8093B9008091B9008D7F86
:1011F0008093B90088E48093B80085E48093BC00B4
:101200008CE291E090931803809317038DE291E0B4
:10121000909316038093150310922E04809133044B
:10122000823018F098E090932E048093310462E3AA
:1012300070E080E090E063DE6091340489E294E045
:10124000FCD968EE73E080E090E059DE60E389E26B
:1012500094E056DA8BE496E40197F1F760E389E2D3
:1012600094E04EDA2BE436E4C9010197F1F760E32C
:1012700089E294E045DA83E592E00197F1F760E2D4
:1012800089E294E03DDA60912E04606240E089E2F8
:1012900094E01EDD84E080932F0440E06CE089E25E
:1012A00094E016DD54DD82E08093300440E066E097
:1012B00089E294E00DDD40E062E089E294E008DD3F
:1012C0008BE39FE10197F1F788E08093340460E0BD
:1012D00089E294E0B2D986E390E090933903809359
:1012E00038038AE999E3AFE2B4E480933C03909336
:1012F0003D03A0933E03B0933F0380E090E0A0EC59
:10130000BFE38093440390934503A0934603B093B7
:10131000470380E090E0A0E0B4E48093580390930A
:101320005903A0935A03B0935B0327E330E0309353
:101330003B0320933A0343E353E36EED72E440939F
:10134000400350934103609342037093430380939F
:101350005C0390935D03A0935E03B0935F0386E309
:10136000AFDD05DE6B017C01A8ECB0E0BA83A98398
:1013700080913A03A5DD90934B0380934A03BC010F
:10138000990F880B990BF2D44B015C0140905C03E0
:1013900050905D0360905E0370905F03A301920123
:1013A000E6D320E030E040E85AE394D5A30192016F
:1013B000DFD39B01AC0160935C0370935D0380936A
:1013C0005E0390935F03C501B401D1D360935403CE
:1013D0007093550380935603909357039B01AC0180
:1013E00079D560936C0370936D0380936E03909333
:1013F0006F032091700330917103409172035091FB
:101400007303B6D360937003709371038093720378
:101410009093730329813A81215031093A832983BA
:10142000232B09F0A5CF20E030E048E453E408D4B2
:10143000B8D54B015C01B601DD0C880B990B96D435
:1014400020E030E04AE754E4FBD320E030E040E81D
:101450005AE340D52091400330914103409142032B
:101460005091430337D5A501940134D560933403DB
:101470007093350380933603909337031092700373
:1014800010927103109272031092730370DD6983DE
:101490007A838B839C838FB7F894C0902003D0907D
:1014A0002103E0902203F09023038FBF8091380343
:1014B00007DD90937D0380937C03BC01990F880B1B
:1014C000990B54D44B015C012DEC3CEC4CE054E402
:1014D000B3D387FF0BC041E04D8326E636E646EEE8
:1014E00053E4C501B401F2D418160CF01D822FB7D5
:1014F000F8948091200390912103A0912203B09150
:1015000023032FBF8C199D09AE09BF09813D974068
:10151000A105B10518F43D81332341F28FB7F8944A
:101520002091200330912103409122035091230305
:101530002D833E834F8358878FBF1A86198600E01C
:1015400010E02FB7F8948091200390912103A0918F
:101550002203B09123032FBF2D813E814F815885F7
:10156000821B930BA40BB50B803D9740A105B105E1
:1015700008F02BC189859A8501969A878987809181
:10158000500390915103A0915203B0915303809363
:101590004C0390934D03A0934E03B0934F0380915F
:1015A00038038EDC909349038093480380913A037B
:1015B00087DC7C0190934B0380934A03209048037F
:1015C00030904903B101032C000C880B990BCED34A
:1015D0004B015C01409058035090590360905A03AE
:1015E00070905B03A3019201C2D220E030E040E89A
:1015F0005AE370D4A3019201BBD29B01AC0160936A
:1016000058037093590380935A0390935B03C50169
:10161000B401ADD24B015C01609350037093510350
:101620008093520390935303B701FF0C880B990BDF
:101630009DD36B017C0140905C0350905D036090F2
:101640005E0370905F03A301920191D220E030E02D
:1016500040E85AE33FD4A30192018AD29B01AC0136
:1016600060935C0370935D0380935E0390935F03CC
:10167000C701B6017CD26B017C0160935403709367
:1016800055038093560390935703A5019401C50118
:10169000B40120D49B01AC01609364037093650393
:1016A0008093660390936703609168037091690368
:1016B00080916A0390916B035BD26093680370938F
:1016C000690380936A0390936B03A7019601C70196
:1016D000B60100D49B01AC0160936C0370936D0361
:1016E00080936E0390936F03609170037091710308
:1016F00080917203909173033BD260937003709357
:101700007103809372039093730340904C03509045
:101710004D0360904E0370904F03A3019201C501E9
:10172000B40125D2209144033091450340914603F2
:1017300050914703CFD3A30192011AD29B01AC0170
:1017400060936003709361038093620390936303DB
:10175000C701B601BFD39B01AC01609374037093C2
:10176000750380937603909377036091780370916B
:10177000790380917A0390917B03FAD16093780387
:101780007093790380937A0390937B0380917F0316
:1017900080937E0380917C0390917D038215930555
:1017A0000CF097C141E040937F0380917F03A985AE
:1017B000BA85119711F480937E0390917E0398135C
:1017C0008BC10431110508F4BCCE29813A81B901DD
:1017D000330F880B990BCAD220E030E04AE754E47B
:1017E0002FD220E030E040E85AE374D34B015C0193
:1017F00020913C0330913D0340913E0350913F03C3
:1018000069D36B017C0149855A85BA0180E090E07B
:10181000ABD22B013C019B01AC016091680370913C
:10182000690380916A0390916B030AD2BAD39B013A
:10183000AC01C701B6014ED369837A838B839C8345
:10184000609330037093310380933203909333039A
:101850002091400330914103409142035091430352
:10186000C501B40137D34B015C01A3019201609122
:101870007003709171038091720390917303E0D1B2
:1018800090D39B01AC01C501B40124D36D837E8349
:101890008F83988760933403709335038093360366
:1018A00090933703A5019401C701B60113D320918A
:1018B00078033091790340917A0350917B030AD3E6
:1018C000A3019201BDD16B017C016093240370934D
:1018D000250380932603909327032D813E814F811A
:1018E000588569817A818B819C81F4D22B013C01DE
:1018F000609328037093290380932A0390932B030A
:101900009B01AC01C701B6019BD14B015C01609307
:101910002C0370932D0380932E0390932F0310922A
:1019200068031092690310926A0310926B0310927D
:10193000700310927103109272031092730310924D
:1019400078031092790310927A0310927B0320E0BF
:1019500030E040E252E469817A818B819C816CD1D4
:1019600087FF1FC0F4D961E572E080E893E00E9430
:101970009C0364E472E080E893E00E949C0360E0D2
:1019800080E06CDA87E492E097DA60E084E066DA7F
:1019900081E592E091DA60E08CE060DA8DE492E03B
:1019A00025C0D5D920E049815A816B817C8180E8AE
:1019B00093E00E94B10364E472E080E893E00E9447
:1019C0009C0360E080E04ADA84E692E075DA60E049
:1019D00084E044DA40E050E069817A818B819C8127
:1019E00037DA60E08CE03ADA88E692E065DA60E0C7
:1019F0008FE034DA42E050E06D817E818F819885FE
:101A000027DA61E080E02ADA83E592E055DA61E0E6
:101A100084E024DA41E050E0C301B20119DA61E068
:101A20008CE01CDA87E592E047DA61E08FE016DAB5
:101A300020E030E0A901C501B40148D2181624F015
:101A4000B7FAB094B7F8B09442E050E0C501B401E1
:101A5000FFD962E080E002DA8CE592E02DDA62E004
:101A600084E0FCD920E030E0A901C701B6012ED204
:101A7000181624F0C701B601905802C0C701B6017C
:101A800042E050E0E5D963E080E0E8D980E692E00A
:101A900013DA63E084E0E2D9A3019201C301B20149
:101AA00019D24B015C01A7019601C701B60112D200
:101AB0009B01AC01C501B4015AD073D242E050E0A1
:101AC000C7D964E170E080E090E019DA0E942D024D
:101AD00046CC10927F0369CE0F5F1F4F72CEE0E8B5
:101AE000F3E01382128288EE93E0A0E0B0E08483FA
:101AF0009583A683B7832CE032E03183208325ECE5
:101B000030E03587248724EC30E03787268720ECC7
:101B100030E0318B208B21EC30E0338B228B22ECB8
:101B200030E0358B248B26EC30E0378B268B118E02
:101B3000128E138E148EEDE1F4E0138212828483F0
:101B40009583A683B7838EE192E091838083E9E257
:101B5000F4E01382128280E392E09183808387E233
:101B6000848384E1818784E08287138608955058B6
:101B7000BB27AA270ED070C161D130F066D120F00A
:101B800031F49F3F11F41EF456C10EF4E095E7FBCB
:101B90004CC1E92F72D180F3BA176207730784072B
:101BA000950718F071F49EF58AC10EF4E0950B2E9E
:101BB000BA2FA02D0B01B90190010C01CA01A0019F
:101BC0001124FF27591B99F0593F50F4503E68F1FA
:101BD0001A16F040A22F232F342F4427585FF3CF3B
:101BE000469537952795A795F0405395C9F77EF40C
:101BF0001F16BA0B620B730B840BBAF09150A1F055
:101C0000FF0FBB1F661F771F881FC2F70EC0BA0FDA
:101C1000621F731F841F48F4879577956795B79562
:101C2000F7959E3F08F0B3CF9395880F08F099275A
:101C3000EE0F979587950895D4D008F481E0089524
:101C40000CD00AC102D140F0F9D030F021F45F3F4E
:101C500019F0EBC0511134C1EEC00FD198F39923A4
:101C6000C9F35523B1F3951B550BBB27AA27621760
:101C70007307840738F09F5F5F4F220F331F441FA5
:101C8000AA1FA9F333D00E2E3AF0E0E830D09150DD
:101C90005040E695001CCAF729D0FE2F27D0660FCA
:101CA000771F881FBB1F261737074807AB07B0E809
:101CB00009F0BB0B802DBF01FF2793585F4F2AF01F
:101CC0009E3F510568F0B1C0FBC05F3FECF3983E0A
:101CD000DCF3869577956795B795F7959F5FC9F77C
:101CE000880F911D9695879597F90895E1E0660F05
:101CF000771F881FBB1F621773078407BA0720F07E
:101D0000621B730B840BBA0BEE1F88F7E0950895E6
:101D1000BCD088F09F5790F0B92F9927B751A0F009
:101D2000D1F0660F771F881F991F1AF0BA95C9F76F
:101D300012C0B13081F0C3D0B1E00895C0C0672FA8
:101D4000782F8827B85F39F0B93FCCF3869577951F
:101D50006795B395D9F73EF4909580957095619508
:101D60007F4F8F4F9F4F0895E89409C097FB3EF433
:101D700090958095709561957F4F8F4F9F4F9923D8
:101D8000A9F0F92F96E9BB279395F6958795779556
:101D90006795B795F111F8CFFAF4BB0F11F460FF16
:101DA0001BC06F5F7F4F8F4F9F4F16C0882311F06E
:101DB00096E911C0772321F09EE8872F762F05C082
:101DC000662371F096E8862F70E060E02AF09A951D
:101DD000660F771F881FDAF7880F9695879597F912
:101DE0000895990F0008550FAA0BE0E8FEEF1616AC
:101DF0001706E807F907C0F012161306E407F507FF
:101E000098F0621B730B840B950B39F40A2661F072
:101E1000232B242B252B21F408950A2609F4A14015
:101E2000A6958FEF811D811D089597F99F6780E822
:101E300070E060E008959FEF80EC089500240A941C
:101E40001616170618060906089500240A94121695
:101E50001306140605060895092E0394000C11F4C8
:101E6000882352F0BB0F40F4BF2B11F460FF04C075
:101E70006F5F7F4F8F4F9F4F089557FD9058440FCE
:101E8000551F59F05F3F71F04795880F97FB991FD9
:101E900061F09F3F79F08795089512161306140696
:101EA000551FF2CF4695F1DF08C016161706180623
:101EB000991FF1CF86957105610508940895E894FE
:101EC000BB2766277727CB0197F908958ADF08F4A7
:101ED0008FEF08950BD0C0CFB1DF28F0B6DF18F038
:101EE000952309F0A2CFA7CF1124EACFC6DFA0F334
:101EF000959FD1F3950F50E0551F629FF001729F9F
:101F0000BB27F00DB11D639FAA27F00DB11DAA1FBD
:101F1000649F6627B00DA11D661F829F2227B00D0A
:101F2000A11D621F739FB00DA11D621F839FA00D95
:101F3000611D221F749F3327A00D611D231F849FE5
:101F4000600D211D822F762F6A2F11249F5750403C
:101F50008AF0E1F088234AF0EE0FFF1FBB1F661FD7
:101F6000771F881F91505040A9F79E3F510570F090
:101F70005CCFA6CF5F3FECF3983EDCF38695779578
:101F80006795B795F795E7959F5FC1F7FE2B880F8B
:101F9000911D9695879597F9089511F40EF44BCFFE
:101FA00042C073DFD0F39923D9F3CEF39F57550B7B
:101FB00087FF47D00024A0E640EA9001805856955C
:101FC000979528F4805C660F771F881F20F02617EE
:101FD0003707480730F4621B730B840B2029312923
:101FE0004A2BA69517940794202531254A2758F7A0
:101FF000660F771F881F20F026173707480730F431
:10200000620B730B840B200D311D411DA09581F7D0
:10201000B901842F9158880F969587950895E1DE30
:10202000880B990B08959F3F31F0915020F48795CC
:1020300077956795B795880F911D9695879597F930
:10204000089591505040660F771F881FD2F708956A
:10205000A1E21A2EAA1BBB1BFD010DC0AA1FBB1FAC
:10206000EE1FFF1FA217B307E407F50720F0A21B1E
:10207000B30BE40BF50B661F771F881F991F1A948B
:1020800069F760957095809590959B01AC01BD01B5
:10209000CF010895052E97FB16F400940FD057FD3D
:1020A00005D0D6DF07FC02D046F408C05095409515
:1020B000309521953F4F4F4F5F4F089590958095F4
:1020C000709561957F4F8F4F9F4F0895EE0FFF1FC3
:1020D000881F8BBF0790F691E02D199481E090E066
:0820E000F89400C0F894FFCF52
:1020E800000040001400540000000000C0012E0150
:1020F80058010C02890167017B0100000000EF0212
:10210800C30297039702BB02A702980200000000CF
:102118007D062E01970396036E616E00696E660058
:102128006F7666000D0A0056203D20300049203D9C
:1021380020300053203D005046203D0050203D00F7
:0C21480051203D0056203D0049203D0084
:00000001FF
