:100000000C9458000C9480000C9480000C94800098
:100010000C9480000C9480000C9480000C94800060
:100020000C9480000C9480000C9480000C94800050
:100030000C9480000C9480000C9480000C94800040
:100040000C948D030C9480000C9480000C94800020
:100050000C9480000C9480000C9480000C94800020
:100060000C94D7030C9480000000000025002800A9
:100070002B00040404040404040402020202020229
:10008000030303030303010204081020408001025C
:1000900004081020010204081020000000080002DB
:1000A0000100000304070000000000000000050537
:1000B00011241FBECFEFD8E0DEBFCDBF11E0A0E01E
:1000C000B1E0E0E5FBE002C005900D92AC36B1076F
:1000D000D9F722E0ACE6B1E001C01D92A134B2072D
:1000E000E1F710E0C8E5D0E004C02197FE010E94CE
:1000F0009B05C735D107C9F70E9425050C94A605B5
:100100000C94000090E0FC01E656FF4F2491FC01A6
:10011000EA57FF4F3491FC01EE58FF4FE491EE2374
:10012000B1F1222339F1233091F038F42130A9F0D4
:10013000223001F584B58F7D12C0273091F0283030
:10014000A1F02430B9F4809180008F7D03C08091AC
:1001500080008F77809380000DC084B58F7784BD39
:1001600009C08091B0008F7703C08091B0008F7D6F
:100170008093B000F0E0EE0FFF1FE859FF4FA5910C
:10018000B4918FB7F894EC91E32BEC938FBF089563
:10019000089508953FB7F89480911A0290911B0238
:1001A000A0911C02B0911D0226B5A89B05C02F3F4F
:1001B00019F00196A11DB11D3FBFBA2FA92F982F8D
:1001C0008827820F911DA11DB11DBC01CD0142E008
:1001D000660F771F881F991F4A95D1F708958F9250
:1001E0009F92AF92BF92CF92DF92EF92FF926B01FC
:1001F0007C010E94CA004B015C01C114D104E104DE
:10020000F104F1F00E94CA00DC01CB0188199909C0
:10021000AA09BB09883E9340A105B10570F321E00E
:10022000C21AD108E108F10888EE880E83E0981E12
:10023000A11CB11CC114D104E104F10419F7DDCFF4
:10024000FF90EF90DF90CF90BF90AF909F908F90F6
:100250000895CF92DF92EF92FF920F931F93CF9367
:10026000DF936C017A018B01C0E0D0E0CE15DF0591
:1002700081F0D8016D918D01D601ED91FC91019035
:10028000F081E02DC6010995892B11F02196EECF62
:100290007E01C701DF91CF911F910F91FF90EF90E9
:1002A000DF90CF90089585ED8093BC008091BC00D5
:1002B00084FDFCCF1092240208954091AC01262FBA
:1002C00030E0240F311D21323105DCF4209124026D
:1002D0002430C9F4FC0180E090E0861758F4309196
:1002E000AC012191DC01A457BE4FA30FB11D2C938B
:1002F0000196F3CF8091AC01680F6093AC0180E070
:10030000089581E0089582E008950895E09128021B
:1003100080912702E81730F4F0E0E459FE4F808125
:1003200090E008958FEF9FEF0895909128028091BB
:100330002702981750F4E92FF0E0E459FE4F20818E
:1003400030E09F5F9093280202C02FEF3FEFC9017A
:1003500008958091270290E020912802821B910944
:100360000895CF92DF92EF92FF920F931F93CF9356
:10037000DF937C01CB018A012091F301222389F0D4
:10038000EB016B01C40ED51ECC15DD0569F069913A
:10039000D701ED91FC910190F081E02DC701099505
:1003A000F3CF642F0E945D01C801DF91CF911F91AF
:1003B0000F91FF90EF90DF90CF900895CF93DF9350
:1003C0001F92CDB7DEB769832091F3012223D1F0CC
:1003D00020912502203240F021E030E0FC013383FF
:1003E000228380E090E015C080912602E82FF0E0A3
:1003F000EC50FE4F998190838F5F8093260280930B
:10040000250205C061E0CE0101960E945D0181E0F8
:1004100090E00F90DF91CF910895CF93FC01C481BC
:1004200021E02093F301C09314021092260210924F
:1004300025028385682B89E292E00E94DE0190917B
:100440002502913208F045C0809124028111FCCF31
:1004500082E08093240281E0809323028FEF8093D7
:10046000F2011092F1019093F001A4EFB1E0E0ED00
:10047000F1E080E0981721F02D9121938F5FFACF62
:100480001092CF018091CF01CC0FC82BC093CF0128
:1004900080912202813061F4109222028091CF017A
:1004A0008093BB008091BC0083FDF8CF85EC01C038
:1004B00085EE8093BC00809124028230E1F380912C
:1004C000F2018F3F31F08091F201803211F0809182
:1004D000F20110922602109225021092F301CF91A0
:1004E00008950F931F93CF938C01C62F0E940D0286
:1004F0006C2F6460C8010E940D026C2F6B7FC801D5
:100500000E940D0283EC90E00197F1F7CF911F91CB
:100510000F9108950F931F93CF93DF938C01C62FF4
:10052000D42F607F642B0E94710280E1C89FB001CC
:1005300011246D2BC801DF91CF911F910F910C9465
:100540007102CF93DF93CDB7DEB728970FB6F8943B
:10055000DEBF0FBECDBF98E0E0E0F1E0DE01119616
:1005600001900D929A95E1F790913D02961710F443
:100570006FEF690FFE013196E60FF11DE60FF11DD9
:100580006081680F606840E085E392E028960FB6CE
:10059000F894DEBF0FBECDBFDF91CF910C948A02DD
:1005A000CF93DF9310922802109227021092260216
:1005B000109225021092240281E08093230210926F
:1005C000220282E10E94820083E10E9482008091E7
:1005D000B9008E7F8093B9008091B9008D7F8093A0
:1005E000B90088E48093B80085E48093BC0088EC6F
:1005F00090E0909321028093200289EC90E0909308
:100600001F0280931E0210923A0280913F028230B4
:1006100018F098E090933A0280933D0262E370E014
:1006200080E090E00E94EF006091400285E392E05C
:100630000E940D0268EE73E080E090E00E94EF00FF
:1006400060E385E392E00E947102CBE4D6E4CE0140
:100650000197F1F760E385E392E00E947102219730
:10066000F1F760E385E392E00E94710283E592E096
:100670000197F1F760E285E392E00E9471026091D8
:100680003A02606240E085E392E00E948A0284E0E0
:1006900080933B0240E06CE085E392E00E948A0296
:1006A00040E061E085E392E00E948A02CBE3DFE173
:1006B000CE010197F1F782E080933C0240E066E0D2
:1006C00085E392E00E948A0240E062E085E392E0E6
:1006D0000E948A022197F1F7DF91CF91089541E0BE
:1006E0000E948A0281E090E00895089580E090E001
:1006F0000895009769F0FC0101900020E9F7319717
:10070000AF01481B590BBC0185E392E00C94290111
:1007100080E090E008950E94A1051F920F920FB60D
:100720000F9211242F933F938F939F93AF93BF9377
:100730008091160290911702A0911802B0911902AF
:100740003091150223E0230F2D3720F40196A11DCF
:10075000B11D05C026E8230F0296A11DB11D2093EF
:1007600015028093160290931702A0931802B0937B
:10077000190280911A0290911B02A0911C02B09163
:100780001D020196A11DB11D80931A0290931B02B8
:10079000A0931C02B0931D02BF91AF919F918F91C6
:1007A0003F912F910F900FBE0F901F9018951F92A1
:1007B0000F920FB60F9211242F933F934F935F9395
:1007C0006F937F938F939F93AF93BF93EF93FF9319
:1007D0008091B900887F803609F49CC068F5883222
:1007E00009F45BC090F4803109F454C038F48823D4
:1007F00009F4F6C0883009F44DC0F6C0883109F418
:100800004CC0803209F45DC0EFC0803409F468C088
:1008100048F4803309F455C0883309F0E5C080936B
:10082000F201D8C0803509F44FC0883509F45DC0A5
:10083000883409F0D9C0D6C0883909F4C7C0A8F4F3
:10084000883709F467C038F4883609F463C0803704
:1008500009F460C0C9C0883809F4B8C0803909F407
:100860005FC0803809F0C0C05BC0803B09F486C01F
:1008700038F4803A09F466C0883A09F47FC0B4C0FD
:10088000803C09F4A7C0883C09F4A4C0883B09F463
:100890008AC0AAC08091CF0110C09091F1018091CF
:1008A000F001981770F5E091F10181E08E0F8093CF
:1008B000F101F0E0E053FE4F80818093BB0085ECB6
:1008C00086C08093F2018EC0E091F10181E08E0F2D
:1008D0008093F1018091BB00F0E0E053FE4F8083F4
:1008E0009091F1018091F0016EC0E091F10181E001
:1008F0008E0F8093F1018091BB00F0E0E053FE4F3A
:1009000080838091230281116DC081E08093220257
:1009100084EA61C083E0809324021092CE01CFCF9D
:100920008091CE01803208F051C0E091CE0181E08B
:100930008E0F8093CE018091BB00F0E0E255FE4F18
:100940008083BDCF85EC8093BC00109224028091FF
:10095000CE01803230F4E091CE01F0E0E255FE4F5E
:1009600010826091CE0170E0E0911E02F0911F02B2
:100970008EEA91E009951092CE0136C084E0809312
:1009800024021092AD011092AC01E0912002F0918E
:10099000210209958091AC01811105C081E080930D
:1009A000AC0110928C01E091AD0181E08E0F80933B
:1009B000AD01F0E0E457FE4F80818093BB00909141
:1009C000AD018091AC01981708F479CF85E8809348
:1009D000BC000AC085EC8093BC001092240204C0C5
:1009E0001092F2010E945301FF91EF91BF91AF91DC
:1009F0009F918F917F916F915F914F913F912F9137
:100A00000F900FBE0F901F901895E9E2F2E013824D
:100A1000128288EE93E0A0E0B0E084839583A68301
:100A2000B7838CE091E091838083E5E3F2E0138269
:100A300012828EE191E09183808380E2848384E15D
:100A4000818784E0828713860895789484B58260D4
:100A500084BD84B5816084BD85B5826085BD85B562
:100A6000816085BD80916E00816080936E001092E0
:100A7000810080918100826080938100809181005B
:100A800081608093810080918000816080938000EC
:100A90008091B10084608093B1008091B00081604A
:100AA0008093B00080917A00846080937A00809176
:100AB0007A00826080937A0080917A0081608093CE
:100AC0007A0080917A00806880937A001092C10049
:100AD0000E94D0020E94D00288E08093400260E031
:100AE00085E392E00E940D0260E083E00E94A10293
:100AF00086E291E00E94790361E082E00E94A10217
:100B000084E391E00E94790362E080E00E94A10208
:100B100085E491E00E94790363E082E00E94A102F3
:100B20008AE591E00E947903C0E0D0E02097F1F3DC
:100B30000E940000FBCFEE0FFF1F0590F491E02D07
:100B4000099481E090E0F8940C94A605F894FFCF06
:100B5000000040001400540000000000DE01B1015C
:100B600076038501A90195018601000000006F034D
:100B700029017603750348656C6C6F2C20776F72C2
:100B80006C6421005977726F626F742041726475D2
:100B9000696E6F210041726475696E6F204C434D20
:100BA00020494943203230303400506F776572203D
:0C0BB00042792045632D7975616E2100AB
:107E0000112484B714BE81FFF0D085E080938100F7
:107E100082E08093C00088E18093C10086E0809377
:107E2000C20080E18093C4008EE0C9D0259A86E02C
:107E300020E33CEF91E0309385002093840096BBD3
:107E4000B09BFECF1D9AA8958150A9F7CC24DD24C4
:107E500088248394B5E0AB2EA1E19A2EF3E0BF2EE7
:107E6000A2D0813461F49FD0082FAFD0023811F036
:107E7000013811F484E001C083E08DD089C08234E0
:107E800011F484E103C0853419F485E0A6D080C0E4
:107E9000853579F488D0E82EFF2485D0082F10E0AE
:107EA000102F00270E291F29000F111F8ED06801E7
:107EB0006FC0863521F484E090D080E0DECF843638
:107EC00009F040C070D06FD0082F6DD080E0C81688
:107ED00080E7D80618F4F601B7BEE895C0E0D1E017
:107EE00062D089930C17E1F7F0E0CF16F0E7DF06D8
:107EF00018F0F601B7BEE89568D007B600FCFDCFD4
:107F0000A601A0E0B1E02C9130E011968C91119780
:107F100090E0982F8827822B932B1296FA010C0160
:107F200087BEE89511244E5F5F4FF1E0A038BF0790
:107F300051F7F601A7BEE89507B600FCFDCF97BE46
:107F4000E89526C08437B1F42ED02DD0F82E2BD052
:107F50003CD0F601EF2C8F010F5F1F4F84911BD097
:107F6000EA94F801C1F70894C11CD11CFA94CF0C13
:107F7000D11C0EC0853739F428D08EE10CD085E9AC
:107F80000AD08FE07ACF813511F488E018D01DD067
:107F900080E101D065CF982F8091C00085FFFCCF94
:107FA0009093C60008958091C00087FFFCCF809118
:107FB000C00084FD01C0A8958091C6000895E0E648
:107FC000F0E098E1908380830895EDDF803219F02E
:107FD00088E0F5DFFFCF84E1DECF1F93182FE3DFCA
:107FE0001150E9F7F2DF1F91089580E0E8DFEE27F6
:047FF000FF270994CA
:027FFE00040479
:0400000300007E007B
:00000001FF
