:100000000C9435000C945D000C945D000C945D0024
:100010000C945D000C945D000C945D000C945D00EC
:100020000C945D000C945D000C945D000C945D00DC
:100030000C945D000C945D000C945D000C945D00CC
:100040000C941B030C945D000C948B030C946503BF
:100050000C945D000C945D000C945D000C945D00AC
:100060000C945D000C945D00B40711241FBECFEF0B
:10007000D8E0DEBFCDBF11E0A0E0B1E0ECE8F5E1F3
:1000800002C005900D92AC33B107D9F722E0ACE382
:10009000B1E001C01D92AE33B207E1F710E0C5E355
:1000A000D0E004C02197FE010E94B90AC433D107F1
:1000B000C9F70E94BD030C94C40A0C9400008E3052
:1000C00008F08E508770806480937C0080917A0065
:1000D000806480937A0080917A0086FDFCCF8091C5
:1000E00078002091790090E0922B08953FB7F89422
:1000F00080919D0190919E01A0919F01B091A001DE
:1001000026B5A89B05C02F3F19F00196A11DB11D72
:100110003FBFBA2FA92F982F8827820F911DA11DAD
:10012000B11DBC01CD0142E0660F771F881F991FEA
:100130004A95D1F708958F929F92AF92BF92CF9236
:10014000DF92EF92FF926B017C010E9476004B01DF
:100150005C01C114D104E104F104F1F00E947600C5
:10016000DC01CB0188199909AA09BB09883E934093
:10017000A105B10570F321E0C21AD108E108F10828
:1001800088EE880E83E0981EA11CB11CC114D10416
:10019000E104F10419F7DDCFFF90EF90DF90CF90ED
:1001A000BF90AF909F908F900895CF92DF92EF9283
:1001B000FF920F931F93CF93DF936C017A018B0112
:1001C000C0E0D0E0CE15DF0581F0D8016D918D0142
:1001D000D601ED91FC910190F081E02DC6010995C9
:1001E000892B11F02196EECF7E01C701DF91CF91CF
:1001F0001F910F91FF90EF90DF90CF900895089599
:1002000080E090E00895FC01538D448D252F30E06F
:10021000842F90E0821B930B541710F0CF96089513
:1002200001970895FC01918D828D981761F0828D60
:10023000DF01A80FB11D5D968C91928D9F5F9F731A
:10024000928F90E008958FEF9FEF0895FC01918DBC
:10025000828D981731F0828DE80FF11D858D90E029
:1002600008958FEF9FEF0895FC01918D228D892FC6
:1002700090E0805C9F4F821B91098F7399270895AE
:1002800081EA91E00E94340121E0892B09F420E009
:10029000822F0895FC01848DDF01A80FB11DA35AA0
:1002A000BF4F2C91848D90E001968F739927848F96
:1002B000A689B7892C93A089B1898C9183708064B9
:1002C0008C93938D848D981306C00288F389E02D5A
:1002D00080818F7D80830895EF92FF920F931F930B
:1002E000CF93DF93EC0181E0888F9B8D8C8D9813E9
:1002F00005C0E889F989808185FD26C0F62E0B8D21
:1003000010E00F5F1F4F0F731127E02E8C8DE81246
:100310000CC00FB607FCFACFE889F989808185FF08
:10032000F5CFCE010E944A01F1CF8B8DFE01E80F7F
:10033000F11DE35AFF4FF0829FB7F8940B8FEA89C3
:10034000FB89808180620AC09FB7F894EE89FF899B
:100350006083E889F98980818370806480839FBF8E
:1003600081E090E0DF91CF911F910F91FF90EF908E
:100370000895682F81EA91E00C946C01CF93DF938C
:10038000EC01888D8823C9F0EA89FB89808185FD8D
:1003900005C0A889B9898C9186FD0FC00FB607FCEE
:1003A000F5CF808185FFF2CFA889B9898C9185FF2F
:1003B000EDCFCE010E944A01E7CFDF91CF910895A2
:1003C00080E090E0892B29F00E94400181110C947B
:1003D00000000895009769F0FC0101900020E9F702
:1003E0003197AF01481B590BBC0181EA91E00C9495
:1003F000D50080E090E008952F923F924F925F9257
:100400006F927F928F929F92AF92BF92CF92DF9224
:10041000EF92FF920F931F93CF93DF93CDB7DEB789
:10042000A4970FB6F894DEBF0FBECDBF4B015C01A1
:10043000F42E9B01AC010E945E0A882319F082E130
:1004400091E027C024013501E89477F82FEF3FEFC2
:100450004FE75FE7C301B2010E945E0A81110DC040
:100460002FEF3FEF4FE75FE7C301B2010E944E0855
:1004700018161CF486E191E00CC02FEF3FEF4FE718
:100480005FE4C501B4010E94A60918162CF48AE1A4
:1004900091E00E94EA01B4C02FEF3FEF4FE75FEC1D
:1004A000C501B4010E944E0887FDF1CF20E030E085
:1004B000A901C501B4010E944E0887FF09C08DE261
:1004C0000E94B9013C01B7FAB094B7F8B09402C0E9
:1004D000612C712C10E060E070E080E09FE3F11689
:1004E00041F020E030E040E251E40E9453081F5FF9
:1004F000F6CFA50194010E94E2074B015C010E9426
:10050000C5086AA3C72ED82EE92E19A2262F372F89
:10051000482F592F8E010F5D1F4F0BA31CA39AE08C
:10052000292E312C412C512CCA01B901A201910173
:100530000E94780A605DF80162938F0121153105F0
:100540004105510589F7CF010E94EA018301080F97
:10055000191FFF2009F453C06AA17C2D8D2D9E2DFB
:100560000E94F4089B01AC01C501B4010E94E1079F
:100570004B015C018EE20E94B901080F191F8AE04D
:10058000282E312C412C512C20E030E040E251E467
:10059000C501B4010E94AB094B015C010E94C50872
:1005A0009B0140E050E019A2CBA0DCA0762E3AA33C
:1005B000642EE52ECA01B901A20191010E94780AB8
:1005C000605DF60162936F0121153105410551050A
:1005D00089F7CF010E94EA01080F191F672D7AA140
:1005E000862D9E2D0E94F4089B01AC01C501B4012B
:1005F0000E94E1074B015C01FA94F110C5CFC801DC
:10060000A4960FB6F894DEBF0FBECDBFDF91CF9199
:100610001F910F91FF90EF90DF90CF90BF90AF9020
:100620009F908F907F906F905F904F903F902F9012
:1006300008950E94BF0A1F920F920FB60F921124C5
:100640002F933F938F939F93AF93BF938091990183
:1006500090919A01A0919B01B0919C0130919801D9
:1006600023E0230F2D3720F40196A11DB11D05C0F5
:1006700026E8230F0296A11DB11D209398018093B7
:10068000990190939A01A0939B01B0939C01809152
:100690009D0190919E01A0919F01B091A0010196B2
:1006A000A11DB11D80939D0190939E01A0939F0178
:1006B000B093A001BF91AF919F918F913F912F91E6
:1006C0000F900FBE0F901F9018951F920F920FB6AC
:1006D0000F9211242F933F934F935F936F937F93C8
:1006E0008F939F93AF93BF93EF93FF9381EA91E032
:1006F0000E944A01FF91EF91BF91AF919F918F911D
:100700007F916F915F914F913F912F910F900FBE0D
:100710000F901F9018951F920F920FB60F921124F1
:100720002F938F939F93EF93FF93E091B101F091FB
:10073000B2018081E091B701F091B80182FD12C051
:1007400090818091BA018F5F8F732091BB018217D6
:1007500051F0E091BA01F0E0EF55FE4F958F809394
:10076000BA0101C08081FF91EF919F918F912F91EC
:100770000F900FBE0F901F901895CF93DF93CDB7BA
:10078000DEB72A970FB6F894DEBF0FBECDBF7894C0
:1007900084B5826084BD84B5816084BD85B5826086
:1007A00085BD85B5816085BD80916E008160809337
:1007B0006E001092810080918100826080938100A0
:1007C00080918100816080938100809180008160B0
:1007D000809380008091B10084608093B10080910B
:1007E000B00081608093B00080917A008460809333
:1007F0007A0080917A00826080937A0080917A00FA
:10080000816080937A0080917A00806880937A007A
:100810001092C100E091B101F091B20182E08083B9
:10082000E091AD01F091AE011082E091AF01F09145
:10083000B0018FEC80831092B901E091B501F09185
:10084000B60186E08083E091B301F091B40180812C
:1008500080618083E091B301F091B4018081886070
:100860008083E091B301F091B4018081806880833E
:10087000E091B301F091B40180818F7D80838EE09F
:1008800090E0909351018093500188E491EAA6ECA6
:10089000B3E48093540190935501A0935601B09313
:1008A00057018AE999E9A9EDBFE380935C01909330
:1008B0005D01A0935E01B0935F0180E090E0A0E055
:1008C000B4E48093700190937101A0937201B0938E
:1008D00073012FE030E0309353012093520140E048
:1008E00050E064E771E440935801509359016093DC
:1008F0005A0170935B018093740190937501A093EA
:100900007601B09377012EE420937C0062E070E0E2
:1009100080E090E00E949B0080917A008064809348
:100920007A0080917A0086FDFCCF8091780020913A
:10093000790030E0322F2227A901330F660B770BA5
:100940009A01AB01282B60E070E381E190E00E9406
:100950009A0A2D833E834F8358878FB7F8948090EF
:10096000990190909A01A0909B01B0909C018FBF3B
:10097000809150010E945F009093950180939401B3
:10098000BC01990F880B990B0E94F6086B017C0142
:100990002DEC3CEC4CE054E40E944E0887FF0CC068
:1009A00041E0498326E636E646EE53E4C701B60148
:1009B0000E94A60918160CF019822FB7F89480919E
:1009C000990190919A01A0919B01B0919C012FBF38
:1009D00088199909AA09BB09813D9740A105B1056C
:1009E00018F43981332321F28FB7F89420919901BB
:1009F00030919A0140919B0150919C0129833A8347
:100A00004B835C838FBF1A86198600E010E02FB7F6
:100A1000F8948091990190919A01A0919B01B091D5
:100A20009C012FBF29813A814B815C81821B930BF2
:100A3000A40BB50B803D9740A105B10508F046C158
:100A400029853A852F5F3F4F3A8729878091680132
:100A500090916901A0916A01B0916B01809364014A
:100A600090936501A0936601B09367018091500156
:100A70000E945F0090936101809360018091520118
:100A80000E945F007C01909363018093620120903B
:100A9000600130906101B101032C000C880B990BAF
:100AA0000E94F6084B015C0140907001509071016A
:100AB0006090720170907301A30192010E94E1079E
:100AC00020E030E040E85AE30E94AB09A301920124
:100AD0000E94E2079B01AC01609370017093710169
:100AE0008093720190937301C501B4010E94E107E4
:100AF0004B015C01609368017093690180936A0106
:100B000090936B01B701FF0C880B990B0E94F608BC
:100B10006B017C01409074015090750160907601EA
:100B200070907701A30192010E94E10720E030E07C
:100B300040E85AE30E94AB09A30192010E94E20738
:100B40009B01AC01609374017093750180937601F1
:100B500090937701C701B6010E94E1076B017C0108
:100B600060936C0170936D0180936E0190936F019F
:100B7000A5019401C501B4010E94AB099B01AC0120
:100B800060937C0170937D0180937E0190937F013F
:100B90006091800170918101809182019091830127
:100BA0000E94E2076093800170938101809382012B
:100BB00090938301A7019601C701B6010E94AB097A
:100BC0009B01AC0160938401709385018093860141
:100BD00090938701609188017091890180918A01C9
:100BE00090918B010E94E2076093880170938901C4
:100BF00080938A0190938B0140906401509065012D
:100C00006090660170906701A3019201C501B40173
:100C10000E94E10720915C0130915D0140915E01ED
:100C200050915F010E94AB09A30192010E94E2076B
:100C30009B01AC01609378017093790180937A01F4
:100C400090937B01C701B6010E94AB099B01AC01E7
:100C500060938C0170938D0180938E0190938F012E
:100C60006091900170919101809192019091930116
:100C70000E94E2076093900170939101809392012A
:100C800090939301809197018093960180919401B4
:100C9000909195018215930524F441E040939701CA
:100CA00002C01092970180919701A985BA8511978A
:100CB00011F48093960190919601981304C0043129
:100CC000110520F4A4CE0F5F1F4FF9CF4D815E8137
:100CD000BA01550F880B990B0E94F60820E030E00E
:100CE0004AE754E40E94530820E030E040E85AE329
:100CF0000E94AB092B013C01209154013091550118
:100D000040915601509157010E94AB094B015C0183
:100D1000A985BA85BD0180E090E00E94F4086B01CE
:100D20007C019B01AC0160918001709181018091F7
:100D30008201909183010E9453080E941E0A9B0128
:100D4000AC01C501B4010E94AB0969837A838B832E
:100D50009C83609348017093490180934A0190936A
:100D60004B01209158013091590140915A01509105
:100D70005B01C301B2010E94AB092B013C01A70139
:100D80009601609188017091890180918A0190910A
:100D90008B010E9453080E941E0A9B01AC01C301F3
:100DA000B2010E94AB096D837E838F839887609325
:100DB0004C0170934D0180934E0190934F01A3011C
:100DC0009201C501B4010E94AB09209190013091BC
:100DD000910140919201509193010E94AB09A701AA
:100DE00096010E9453086B017C0160933C01709353
:100DF0003D0180933E0190933F012D813E814F81C3
:100E0000588569817A818B819C810E94AB099B0105
:100E1000AC01609340017093410180934201909333
:100E20004301C701B6010E945308609344017093C7
:100E300045018093460190934701109280011092E2
:100E40008101109282011092830110928801109208
:100E5000890110928A0110928B01109290011092D8
:100E60009101109292011092930142E0C701B601E4
:100E70000E94FC0180E20E94B901609140017091E2
:100E80004101809142019091430142E00E94FC01A6
:100E900080E20E94B90160914801709149018091FE
:100EA0004A0190914B0142E00E94FC0180E20E94C5
:100EB000B90160914C0170914D0180914E0190916A
:100EC0004F0142E00E94FC0180E20E94B901609162
:100ED000440170914501809146019091470142E0A3
:100EE0000E94FC0180E20E94B9018EE191E00E9423
:100EF000EA0164E670E080E090E00E949B00809050
:100F0000480190904901A0904A01B0904B01C090D7
:100F10004C01D0904D01E0904E01F0904F0181E2E4
:100F200091E00E94EA018EE191E00E94EA0183E2F1
:100F300091E00E94EA0142E0C501B4010E94FC0177
:100F40008EE191E00E94EA0182E391E00E94EA01D1
:100F500042E0C701B6010E94FC018EE191E00E94CF
:100F6000EA010E94E001CFCCE1EAF1E013821282B3
:100F700088EE93E0A0E0B0E084839583A683B783F6
:100F800084E091E09183808385EC90E0958784876D
:100F900084EC90E09787868780EC90E0918B808B43
:100FA00081EC90E0938B828B82EC90E0958B848B2C
:100FB00086EC90E0978B868B118E128E138E148E9A
:100FC00008955058BB27AA270E94F9070C946C0972
:100FD0000E945E0938F00E94650920F039F49F3FB5
:100FE00019F426F40C945B090EF4E095E7FB0C94DD
:100FF0005509E92F0E947D0958F3BA176207730754
:101000008407950720F079F4A6F50C949F090EF457
:10101000E0950B2EBA2FA02D0B01B90190010C0108
:10102000CA01A0011124FF27591B99F0593F50F420
:10103000503E68F11A16F040A22F232F342F442778
:10104000585FF3CF469537952795A795F040539570
:10105000C9F77EF41F16BA0B620B730B840BBAF040
:101060009150A1F0FF0FBB1F661F771F881FC2F7AB
:101070000EC0BA0F621F731F841F48F487957795BF
:101080006795B795F7959E3F08F0B0CF9395880F79
:1010900008F09927EE0F9795879508950E943109DA
:1010A00008F481E008950E9467080C946C090E947E
:1010B000650958F00E945E0940F029F45F3F29F06D
:1010C0000C94550951110C94A0090C945B090E94D1
:1010D0007D0968F39923B1F3552391F3951B550BC3
:1010E000BB27AA2762177307840738F09F5F5F4FFB
:1010F000220F331F441FAA1FA9F335D00E2E3AF03A
:10110000E0E832D091505040E695001CCAF72BD051
:10111000FE2F29D0660F771F881FBB1F26173707A2
:101120004807AB07B0E809F0BB0B802DBF01FF27D4
:1011300093585F4F3AF09E3F510578F00C94550953
:101140000C94A0095F3FE4F3983ED4F3869577951D
:101150006795B795F7959F5FC9F7880F911D96958D
:10116000879597F90895E1E0660F771F881FBB1FE9
:10117000621773078407BA0720F0621B730B840B96
:10118000BA0BEE1F88F7E09508950E94850988F054
:101190009F5798F0B92F9927B751B0F0E1F0660F3B
:1011A000771F881F991F1AF0BA95C9F714C0B1307C
:1011B00091F00E949F09B1E008950C949F09672F58
:1011C000782F8827B85F39F0B93FCCF386957795AB
:1011D0006795B395D9F73EF4909580957095619594
:1011E0007F4F8F4F9F4F0895E89409C097FB3EF4BF
:1011F00090958095709561957F4F8F4F9F4F992364
:10120000A9F0F92F96E9BB279395F69587957795E1
:101210006795B795F111F8CFFAF4BB0F11F460FFA1
:101220001BC06F5F7F4F8F4F9F4F16C0882311F0F9
:1012300096E911C0772321F09EE8872F762F05C00D
:10124000662371F096E8862F70E060E02AF09A95A8
:10125000660F771F881FDAF7880F9695879597F99D
:101260000895990F0008550FAA0BE0E8FEEF161637
:101270001706E807F907C0F012161306E407F5078A
:1012800098F0621B730B840B950B39F40A2661F0FE
:10129000232B242B252B21F408950A2609F4A140A1
:1012A000A6958FEF811D811D089597F99F6780E8AE
:1012B00070E060E008959FEF80EC089500240A94A8
:1012C0001616170618060906089500240A94121621
:1012D0001306140605060895092E0394000C11F454
:1012E000882352F0BB0F40F4BF2B11F460FF04C001
:1012F0006F5F7F4F8F4F9F4F089557FD9058440F5A
:10130000551F59F05F3F71F04795880F97FB991F64
:1013100061F09F3F79F08795089512161306140621
:10132000551FF2CF4695F1DF08C0161617061806AE
:10133000991FF1CF86957105610508940895E89489
:10134000BB2766277727CB0197F908950E943109BB
:1013500008F48FEF08950E94BE090C946C090E9456
:101360005E0938F00E94650920F0952311F00C9475
:1013700055090C945B0911240C94A0090E947D0965
:1013800070F3959FC1F3950F50E0551F629FF001D8
:10139000729FBB27F00DB11D639FAA27F00DB11DF1
:1013A000AA1F649F6627B00DA11D661F829F22277A
:1013B000B00DA11D621F739FB00DA11D621F839F01
:1013C000A00D611D221F749F3327A00D611D231FD7
:1013D000849F600D211D822F762F6A2F11249F5725
:1013E00050409AF0F1F088234AF0EE0FFF1FBB1F28
:1013F000661F771F881F91505040A9F79E3F5105E7
:1014000080F00C9455090C94A0095F3FE4F3983EDA
:10141000D4F3869577956795B795F795E7959F5F90
:10142000C1F7FE2B880F911D9695879597F9089522
:1014300019F416F40C945B090C94630A0E94850954
:10144000B8F39923C9F3B6F39F57550B87FF0E9452
:10145000710A0024A0E640EA9001805856959795BD
:1014600028F4805C660F771F881F20F02617370747
:10147000480730F4621B730B840B202931294A2B57
:10148000A69517940794202531254A2758F7660F0B
:10149000771F881F20F026173707480730F4620BA4
:1014A000730B840B200D311D411DA09581F7B901EF
:1014B000842F9158880F9695879508950E94310939
:1014C000880B990B08959F3F31F0915020F4879538
:1014D00077956795B795880F911D9695879597F99C
:1014E000089591505040660F771F881FD2F70895D6
:1014F000A1E21A2EAA1BBB1BFD010DC0AA1FBB1F18
:10150000EE1FFF1FA217B307E407F50720F0A21B89
:10151000B30BE40BF50B661F771F881F991F1A94F6
:1015200069F760957095809590959B01AC01BD0120
:10153000CF010895052E97FB1EF400940E94B10A76
:1015400057FD07D00E94780A07FC03D04EF40C9494
:10155000B10A50954095309521953F4F4F4F5F4FC1
:10156000089590958095709561957F4F8F4F9F4F0F
:101570000895EE0FFF1F0590F491E02D099481E08E
:0C15800090E0F8940C94C40AF894FFCF9B
:10158C00000000006C01D5000301BE013401120102
:10159C0026016E616E00696E66006F7666000D0A3C
:1015AC000020002020746567616E67616E672020E3
:0C15BC003D0020206172757320203D006E
:107E0000112484B714BE81FFF0D085E080938100F7
:107E100082E08093C00088E18093C10086E0809377
:107E2000C20080E18093C4008EE0C9D0259A86E02C
:107E300020E33CEF91E0309385002093840096BBD3
:107E4000B09BFECF1D9AA8958150A9F7CC24DD24C4
:107E500088248394B5E0AB2EA1E19A2EF3E0BF2EE7
:107E6000A2D0813461F49FD0082FAFD0023811F036
:107E7000013811F484E001C083E08DD089C08234E0
:107E800011F484E103C0853419F485E0A6D080C0E4
:107E9000853579F488D0E82EFF2485D0082F10E0AE
:107EA000102F00270E291F29000F111F8ED06801E7
:107EB0006FC0863521F484E090D080E0DECF843638
:107EC00009F040C070D06FD0082F6DD080E0C81688
:107ED00080E7D80618F4F601B7BEE895C0E0D1E017
:107EE00062D089930C17E1F7F0E0CF16F0E7DF06D8
:107EF00018F0F601B7BEE89568D007B600FCFDCFD4
:107F0000A601A0E0B1E02C9130E011968C91119780
:107F100090E0982F8827822B932B1296FA010C0160
:107F200087BEE89511244E5F5F4FF1E0A038BF0790
:107F300051F7F601A7BEE89507B600FCFDCF97BE46
:107F4000E89526C08437B1F42ED02DD0F82E2BD052
:107F50003CD0F601EF2C8F010F5F1F4F84911BD097
:107F6000EA94F801C1F70894C11CD11CFA94CF0C13
:107F7000D11C0EC0853739F428D08EE10CD085E9AC
:107F80000AD08FE07ACF813511F488E018D01DD067
:107F900080E101D065CF982F8091C00085FFFCCF94
:107FA0009093C60008958091C00087FFFCCF809118
:107FB000C00084FD01C0A8958091C6000895E0E648
:107FC000F0E098E1908380830895EDDF803219F02E
:107FD00088E0F5DFFFCF84E1DECF1F93182FE3DFCA
:107FE0001150E9F7F2DF1F91089580E0E8DFEE27F6
:047FF000FF270994CA
:027FFE00040479
:0400000300007E007B
:00000001FF
