:100000000C945D000C9485000C9485000C94850084
:100010000C9485000C9485000C9485000C9485004C
:100020000C9485000C9485000C9485000C9485003C
:100030000C9485000C9485000C9485000C9485002C
:100040000C9417020C9485000C9487020C946102A6
:100050000C9485000C9485000C9485000C9485000C
:100060000C9485000C94850000000008000201003B
:100070000003040700000000000000000000000072
:10008000250028002B0000000000240027002A0083
:10009000040404040404040402020202020203032E
:1000A0000303030301020408102040800102040836
:1000B0001020010204081020A70411241FBECFEF56
:1000C000D8E0DEBFCDBF11E0A0E0B1E0EAE9FDE09D
:1000D00002C005900D92A233B107D9F721E0A2E347
:1000E000B1E001C01D92A83DB207E1F710E0CDE5F7
:1000F000D0E004C02197FE010E94C006CC35D10794
:10010000C9F70E94B9020C94CB060C94000090E051
:10011000FC01EC55FF4F2491FC01E057FF4F849107
:10012000882399F090E0880F991FFC01EA57FF4F50
:10013000A591B491FC01E458FF4F859194918FB73C
:10014000F894EC91E22BEC938FBF089590E0FC01C2
:10015000E859FF4F2491FC01EC55FF4F3491FC010D
:10016000E057FF4FE491EE2309F43CC0222339F11C
:10017000233091F038F42130A9F0223001F584B514
:100180008F7D12C0273091F02830A1F02430B9F4CF
:10019000809180008F7D03C0809180008F77809355
:1001A00080000DC084B58F7784BD09C08091B000F8
:1001B0008F7703C08091B0008F7D8093B000F0E016
:1001C000EE0FFF1FE458FF4FA591B4919FB7F8942D
:1001D000611104C08C913095382302C0EC913E2B04
:1001E0003C939FBF0895CF92DF92EF92FF920F93BF
:1001F0001F93CF93DF936C017A018B01C0E0D0E0B5
:10020000CE15DF0581F0D8016D918D01D601ED91FC
:10021000FC910190F081E02DC6010995892B11F028
:100220002196EECF7E01C701DF91CF911F910F91F3
:10023000FF90EF90DF90CF900895089580E090E0D8
:100240000895FC01538D448D252F30E0842F90E0DC
:10025000821B930B541710F0CF96089501970895C1
:10026000FC01918D828D981761F0828DDF01A80FBE
:10027000B11D5D968C91928D9F5F9F73928F90E0E0
:1002800008958FEF9FEF0895FC01918D828D98174F
:1002900031F0828DE80FF11D858D90E008958FEF8C
:1002A0009FEF0895FC01918D228D892F90E0805C55
:1002B0009F4F821B91098F73992708958BE391E0DB
:1002C0000E94520121E0892B09F420E0822F089539
:1002D000FC01848DDF01A80FB11DA35ABF4F2C91E3
:1002E000848D90E001968F739927848FA689B789B2
:1002F0002C93A089B1898C91837080648C93938DA9
:10030000848D981306C00288F389E02D80818F7D4B
:1003100080830895EF92FF920F931F93CF93DF9303
:10032000EC0181E0888F9B8D8C8D981305C0E88946
:10033000F989808185FD26C0F62E0B8D10E00F5FB8
:100340001F4F0F731127E02E8C8DE8120CC00FB6D3
:1003500007FCFACFE889F989808185FFF5CFCE01C6
:100360000E946801F1CF8B8DFE01E80FF11DE35A69
:10037000FF4FF0829FB7F8940B8FEA89FB89808149
:1003800080620AC09FB7F894EE89FF896083E8898C
:10039000F98980818370806480839FBF81E090E0D1
:1003A000DF91CF911F910F91FF90EF900895CF9320
:1003B000DF93EC01888D8823C9F0EA89FB8980816D
:1003C00085FD05C0A889B9898C9186FD0FC00FB63F
:1003D00007FCF5CF808185FFF2CFA889B9898C9180
:1003E00085FFEDCFCE010E946801E7CFDF91CF916D
:1003F000089580E090E0892B29F00E945E01811130
:100400000C9400000895009769F0FC010190002011
:10041000E9F73197AF01481B590BBC018BE391E021
:100420000C94F30080E090E008950E94C6061F92AD
:100430000F920FB60F9211242F933F938F939F9398
:10044000AF93BF938091370190913801A09139010A
:10045000B0913A013091360123E0230F2D3720F47B
:100460000196A11DB11D05C026E8230F0296A11D0E
:10047000B11D209336018093370190933801A093EA
:100480003901B0933A018091320190913301A091EA
:100490003401B09135010196A11DB11D8093320147
:1004A00090933301A0933401B0933501BF91AF9184
:1004B0009F918F913F912F910F900FBE0F901F90A2
:1004C00018951F920F920FB60F9211242F933F93FE
:1004D0004F935F936F937F938F939F93AF93BF934C
:1004E000EF93FF938BE391E00E946801FF91EF91FE
:1004F000BF91AF919F918F917F916F915F914F913C
:100500003F912F910F900FBE0F901F9018951F9243
:100510000F920FB60F9211242F938F939F93EF9307
:10052000FF93E0914B01F0914C018081E0915101EA
:10053000F091520182FD12C09081809154018F5F31
:100540008F7320915501821751F0E0915401F0E032
:10055000E55CFE4F958F8093540101C08081FF912F
:10056000EF919F918F912F910F900FBE0F901F9041
:100570001895CF93DF93CDB7DEB7A3970FB6F89456
:10058000DEBF0FBECDBF789484B5826084BD84B5D4
:10059000816084BD85B5826085BD85B5816085BD7E
:1005A00080916E00816080936E0010928100809136
:1005B00081008260809381008091810081608093BE
:1005C0008100809180008160809380008091B100E3
:1005D00084608093B1008091B00081608093B0000E
:1005E00080917A00846080937A0080917A008260A2
:1005F00080937A0080917A00816080937A00809164
:100600007A00806880937A001092C100E0914B01DB
:10061000F0914C0182E08083E0914701F091480124
:100620001082E0914901F0914A018FEC8083109291
:100630005301E0914F01F091500186E08083E091F9
:100640004D01F0914E01808180618083E0914D01E8
:10065000F0914E01808188608083E0914D01F0919E
:100660004E01808180688083E0914D01F0914E01C0
:1006700080818F7D808389E00E94870088E00E94CE
:10068000870087E00E94870086E00E94870085E05F
:100690000E94870084E00E94870080E480937C00B1
:1006A00080917A00806480937A0080917A0086FD40
:1006B000FCCF609178008091790070E0782B072E54
:1006C000000C880B990B0E9477052CEE31E548E76A
:1006D0005FE30E942C066B017C0182E191E00E94A5
:1006E0000302A7019601C701B6010E94990688235B
:1006F00019F082E291E01AC046015701E894B7F878
:100700002FEF3FEF4FE75FE7C501B4010E94990665
:1007100081110FC02FEF3FEF4FE75FE7C501B40135
:100720000E94410518162CF486E291E00E94030213
:100730009BC02FEF3FEF4FE75FE4C701B6010E9478
:10074000270618161CF48AE291E0F0CF2FEF3FEF56
:100750004FE75FECC701B6010E94410587FDF3CF6B
:1007600020E030E0A901C701B6010E94410587FFE2
:1007700009C06DE28BE391E00E948A01C701B601D6
:10078000905802C0C701B6012AE037ED43EA5BE3A7
:100790000E94D5042B013C010E9446054B015C01DF
:1007A0000E9475059B01AC01C301B2010E94D404F3
:1007B0002B013C0119A28E010F5D1F4F0AA31BA341
:1007C000C501B4012AE030E040E050E00E949E06FE
:1007D00049015A01605DF80162938F01232B242B9C
:1007E000252B71F7CF010E9403026EE28BE391E0AB
:1007F0000E948A0113E01150B9F120E030E040E29C
:1008000051E4C301B2010E942C064B015C010E941D
:1008100046059B0140E050E019A22AA03BA03B0105
:10082000042F552ECA01B9012AE030E040E050E023
:100830000E949E06605DF10162931F012115310542
:100840004105510579F7CF010E940302B301802FC2
:10085000952D0E9475059B01AC01C501B4010E9454
:10086000D4042B013C01C7CF80E291E00E94030237
:100870008EE291E00E94030220E030E048EC52E476
:10088000C701B6010E94270687FD0CC020E030E0BA
:1008900048E453E4C701B6010E944105181614F05C
:1008A00061E001C060E089E00E94A60020E030E045
:1008B00049E453E4C701B6010E94270687FD0CC036
:1008C00020E030E046E953E4C701B6010E9441054B
:1008D000181614F061E001C060E088E00E94A600F4
:1008E00020E030E046E953E4C701B6010E94270644
:1008F000181664F420E030E04AEF53E4C701B60173
:100900000E944105181614F061E001C060E087E024
:100910000E94A60020E030E04AEF53E4C701B60190
:100920000E942706181664F420E030E046E154E403
:10093000C701B6010E944105181614F061E001C01C
:1009400060E086E00E94A6000E94F901A6CEEBE3DB
:10095000F1E01382128288EE93E0A0E0B0E084839D
:100960009583A683B78384E091E09183808385ECAF
:1009700090E09587848784EC90E09787868780EC69
:1009800090E0918B808B81EC90E0938B828B82EC5A
:1009900090E0958B848B86EC90E0978B868B118E04
:1009A000128E138E148E08955058BB27AA270E94CA
:1009B000EC040C94ED050E94DF0538F00E94E6057A
:1009C00020F039F49F3F19F426F40C94DC050EF462
:1009D000E095E7FB0C94D605E92F0E94FE0558F33D
:1009E000BA17620773078407950720F079F4A6F514
:1009F0000C9420060EF4E0950B2EBA2FA02D0B01BF
:100A0000B90190010C01CA01A0011124FF27591B53
:100A100099F0593F50F4503E68F11A16F040A22F59
:100A2000232F342F4427585FF3CF469537952795CA
:100A3000A795F0405395C9F77EF41F16BA0B620BC9
:100A4000730B840BBAF09150A1F0FF0FBB1F661F10
:100A5000771F881FC2F70EC0BA0F621F731F841F53
:100A600048F4879577956795B795F7959E3F08F079
:100A7000B0CF9395880F08F09927EE0F979587953B
:100A800008950E94B20508F481E008950E940606C8
:100A900088F09F5798F0B92F9927B751B0F0E1F03F
:100AA000660F771F881F991F1AF0BA95C9F714C0EF
:100AB000B13091F00E942006B1E008950C94200618
:100AC000672F782F8827B85F39F0B93FCCF3869528
:100AD00077956795B395D9F73EF490958095709585
:100AE00061957F4F8F4F9F4F0895E89409C097FB02
:100AF0003EF490958095709561957F4F8F4F9F4FF5
:100B00009923A9F0F92F96E9BB279395F695879538
:100B100077956795B795F111F8CFFAF4BB0F11F4FB
:100B200060FF1BC06F5F7F4F8F4F9F4F16C08823A2
:100B300011F096E911C0772321F09EE8872F762FD8
:100B400005C0662371F096E8862F70E060E02AF019
:100B50009A95660F771F881FDAF7880F9695879505
:100B600097F90895990F0008550FAA0BE0E8FEEFDA
:100B700016161706E807F907C0F012161306E40761
:100B8000F50798F0621B730B840B950B39F40A265A
:100B900061F0232B242B252B21F408950A2609F438
:100BA000A140A6958FEF811D811D089597F99F673C
:100BB00080E870E060E008959FEF80EC08950024E5
:100BC0000A941616170618060906089500240A94B2
:100BD00012161306140605060895092E0394000C38
:100BE00011F4882352F0BB0F40F4BF2B11F460FFC7
:100BF00004C06F5F7F4F8F4F9F4F089557FD9058F0
:100C0000440F551F59F05F3F71F04795880F97FBD0
:100C1000991F61F09F3F79F087950895121613068A
:100C20001406551FF2CF4695F1DF08C016161706B9
:100C30001806991FF1CF86957105610508940895EE
:100C4000E894BB2766277727CB0197F908950E9480
:100C5000B20508F48FEF08950E943F060C94ED054D
:100C60000E94DF0538F00E94E60520F0952311F080
:100C70000C94D6050C94DC0511240C9421060E94DA
:100C8000FE0570F3959FC1F3950F50E0551F629FCD
:100C9000F001729FBB27F00DB11D639FAA27F00DD5
:100CA000B11DAA1F649F6627B00DA11D661F829FFC
:100CB0002227B00DA11D621F739FB00DA11D621FE1
:100CC000839FA00D611D221F749F3327A00D611DFE
:100CD000231F849F600D211D822F762F6A2F1124E0
:100CE0009F5750409AF0F1F088234AF0EE0FFF1F13
:100CF000BB1F661F771F881F91505040A9F79E3F6A
:100D0000510580F00C94D6050C9421065F3FE4F366
:100D1000983ED4F3869577956795B795F795E795BF
:100D20009F5FC1F7FE2B880F911D9695879597F9C8
:100D300008950E94B205880B990B0895A1E21A2E1E
:100D4000AA1BBB1BFD010DC0AA1FBB1FEE1FFF1F6F
:100D5000A217B307E407F50720F0A21BB30BE40BBF
:100D6000F50B661F771F881F991F1A9469F7609506
:100D70007095809590959B01AC01BD01CF010895C0
:100D8000EE0FFF1F0590F491E02D099481E090E0B3
:0A0D9000F8940C94CB06F894FFCF02
:100D9A00000000008A01F3002101D701520130014D
:100DAA00440164617961207265616B746966203DF2
:100DBA0020006E616E00696E66006F7666000D0A2D
:020DCA00000027
:00000001FF
