:100000000C9458000C9480000C9480000C94800098
:100010000C9480000C9480000C9480000C94800060
:100020000C9480000C9480000C9480000C94800050
:100030000C9480000C9480000C9480000C94800040
:100040000C94A8020C9480000C9418030C94F202F7
:100050000C9480000C9480000C9480000C94800020
:100060000C9480000C948000000000002500280003
:100070002B00040404040404040402020202020229
:10008000030303030303010204081020408001025C
:1000900004081020010204081020000000080002DB
:1000A00001000003040700000000000000004A03F4
:1000B00011241FBECFEFD8E0DEBFCDBF11E0A0E01E
:1000C000B1E0E6EBFCE002C005900D92A23AB10768
:1000D000D9F722E0A2EAB1E001C01D92A835B2072B
:1000E000E1F710E0C8E5D0E004C02197FE010E94CE
:1000F0004E06C735D107C9F70E94A0030C945906D4
:100100000C94000090E0FC01E656FF4F2491FC01A6
:10011000EA57FF4F3491FC01EE58FF4FE491EE2374
:1001200009F43CC0222339F1233091F038F4213016
:10013000A9F0223001F584B58F7D12C0273091F0EF
:100140002830A1F02430B9F4809180008F7D03C065
:10015000809180008F77809380000DC084B58F7769
:1001600084BD09C08091B0008F7703C08091B0003A
:100170008F7D8093B000F0E0EE0FFF1FE859FF4F36
:10018000A591B4919FB7F894611104C08C913095FA
:10019000382302C0EC913E2B3C939FBF08953FB79C
:1001A000F8948091A7019091A801A091A901B09124
:1001B000AA0126B5A89B05C02F3F19F00196A11DE5
:1001C000B11D3FBFBA2FA92F982F8827820F911DED
:1001D000A11DB11DBC01CD0142E0660F771F881F34
:1001E000991F4A95D1F70895CF92DF92EF92FF922F
:1001F0000F931F93CF93DF936C017A018B01C0E0C3
:10020000D0E0CE15DF0581F0D8016D918D01D601CA
:10021000ED91FC910190F081E02DC6010995892BAB
:1002200011F02196EECF7E01C701DF91CF911F9192
:100230000F91FF90EF90DF90CF900895089580E0A8
:1002400090E00895FC01538D448D252F30E0842FDC
:1002500090E0821B930B541710F0CF9608950197EE
:100260000895FC01918D828D981761F0828DDF01D8
:10027000A80FB11D5D968C91928D9F5F9F73928F99
:1002800090E008958FEF9FEF0895FC01918D828D8E
:10029000981731F0828DE80FF11D858D90E008955B
:1002A0008FEF9FEF0895FC01918D228D892F90E0B3
:1002B000805C9F4F821B91098F73992708958BEA69
:1002C00091E00E94530121E0892B09F420E0822F64
:1002D0000895FC01848DDF01A80FB11DA35ABF4F03
:1002E0002C91848D90E001968F739927848FA68935
:1002F000B7892C93A089B1898C91837080648C9389
:10030000938D848D981306C00288F389E02D808137
:100310008F7D80830895EF92FF920F931F93CF9369
:10032000DF93EC0181E0888F9B8D8C8D981305C045
:10033000E889F989808185FD26C0F62E0B8D10E0B5
:100340000F5F1F4F0F731127E02E8C8DE8120CC02A
:100350000FB607FCFACFE889F989808185FFF5CFD0
:10036000CE010E946901F1CF8B8DFE01E80FF11DD6
:10037000E35AFF4FF0829FB7F8940B8FEA89FB890D
:10038000808180620AC09FB7F894EE89FF896083FC
:10039000E889F98980818370806480839FBF81E0D0
:1003A00090E0DF91CF911F910F91FF90EF90089512
:1003B000CF93DF93EC01888D8823C9F0EA89FB890C
:1003C000808185FD05C0A889B9898C9186FD0FC003
:1003D0000FB607FCF5CF808185FFF2CFA889B989D8
:1003E0008C9185FFEDCFCE010E946901E7CFDF91AF
:1003F000CF91089580E090E0892B29F00E945F0161
:1004000081110C9400000895009769F0FC0101909F
:100410000020E9F73197AF01481B590BBC018BEA6B
:1004200091E00C94F40080E090E00895CF93DF9386
:10043000CDB7DEB760970FB6F894DEBF0FBECDBF65
:10044000FE01319620E1DF011D922A95E9F78F3FE9
:10045000910589F084F082E191E00E9404028CE52C
:1004600091E060960FB6F894DEBF0FBECDBFDF916E
:10047000CF910C9404021816190644F49C012170C3
:1004800033272193319395958795F5CF89819A816B
:10049000019711F461E001C060E0809148020E9480
:1004A00082008B819C81019711F461E001C060E0C2
:1004B00080914A020E9482008D819E81019711F4F1
:1004C00061E001C060E080914C020E9482008F8157
:1004D0009885019711F461E001C060E080914E02BF
:1004E0000E94820089859A85019711F461E001C01C
:1004F00060E0809150020E9482008B859C8501976C
:1005000011F461E001C060E0809152020E9482001B
:100510008D859E85019711F461E001C060E08091B6
:1005200054020E9482008F859889019711F461E03E
:1005300001C060E08091560260960FB6F894DEBF6D
:100540000FBECDBFDF91CF910C9482000E94540664
:100550001F920F920FB60F9211242F933F938F93F8
:100560009F93AF93BF938091A3019091A401A09119
:10057000A501B091A6013091A20123E0230F2D37F0
:1005800020F40196A11DB11D05C026E8230F029697
:10059000A11DB11D2093A2018093A3019093A401FA
:1005A000A093A501B093A6018091A7019091A80105
:1005B000A091A901B091AA010196A11DB11D80933E
:1005C000A7019093A801A093A901B093AA01BF919C
:1005D000AF919F918F913F912F910F900FBE0F90F0
:1005E0001F9018951F920F920FB60F9211242F9300
:1005F0003F934F935F936F937F938F939F93AF93AB
:10060000BF93EF93FF938BEA91E00E946901FF9102
:10061000EF91BF91AF919F918F917F916F915F917A
:100620004F913F912F910F900FBE0F901F901895F3
:100630001F920F920FB60F9211242F938F939F93B7
:10064000EF93FF93E091BB01F091BC018081E091B9
:10065000C101F091C20182FD12C090818091C4015C
:100660008F5F8F732091C501821751F0E091C40113
:10067000F0E0E555FE4F958F8093C40101C0808165
:10068000FF91EF919F918F912F910F900FBE0F903F
:100690001F901895EBEAF1E01382128288EE93E046
:1006A000A0E0B0E084839583A683B78384E091E0E3
:1006B0009183808385EC90E09587848784EC90E03B
:1006C0009787868780EC90E0918B808B81EC90E01F
:1006D000938B828B82EC90E0958B848B86EC90E000
:1006E000978B868B118E128E138E148EE8E4F2E0B7
:1006F00082E090E09183808383E090E09383828323
:1007000084E090E09583848385E090E097838683FE
:1007100086E090E09187808787E090E093878287EA
:1007200088E090E09587848789E090E097878687C6
:100730008FE591E00E9404028CE591E00C940402A4
:10074000CF93DF93CDB7DEB7A3970FB6F894DEBF94
:100750000FBECDBF789484B5826084BD84B58160BE
:1007600084BD85B5826085BD85B5816085BD80917C
:100770006E00816080936E001092810080918100F4
:1007800082608093810080918100816080938100EC
:10079000809180008160809380008091B1008460AE
:1007A0008093B1008091B00081608093B00080910F
:1007B0007A00846080937A0080917A0082608093CE
:1007C0007A0080917A00816080937A0080917A002B
:1007D000806880937A001092C100E091BB01F09193
:1007E000BC0182E08083E091B701F091B8011082F2
:1007F000E091B901F091BA018FEC80831092C301AE
:10080000E091BF01F091C00186E08083E091BD01DD
:10081000F091BE01808180618083E091BD01F09103
:10082000BE01808188608083E091BD01F091BE01AE
:10083000808180688083E091BD01F091BE0180815C
:100840008F7D80838FEF90E00E9416020E94CF0080
:100850002B013C0124EFC22EDD24D394E12CF12C9A
:100860000E94CF00DC01CB0184199509A609B709C4
:10087000883E9340A105B10598F321E0C21AD10842
:10088000E108F10888EE480E83E0581E611C711CD7
:10089000C114D104E104F10419F780E090E00E9452
:1008A000160280E4382E9AE0492E512C612C712CCE
:1008B00030927C0080917A00806480937A008091ED
:1008C0007A0086FDFCCF609178008091790070E01D
:1008D000782B072E000C880B990B0E9433052CEE09
:1008E00031E548E75FE30E9497050E94FB046B0136
:1008F0007C017BA36AA34B01770FAA08BB08B7FE54
:1009000020C06DE28BEA91E00E948B012227332701
:10091000A901281939094A095B0919A28E010F5D3D
:100920001F4FCA01B901A30192010E942C06605D0C
:10093000F80162938F01211531054105510589F7B1
:1009400015C0A501940119A28E010F5D1F4FCA01A8
:10095000B901A30192010E942C06605DF801629327
:100960008F01211531054105510589F7C8010E9404
:1009700004028CE591E00E9404028AA19BA18538C3
:1009800093401CF08FE390E031C0C6018754910979
:10099000099718F48FE790E029C0C601CD978A30F7
:1009A000910580F30A960A9718F48FE190E01EC033
:1009B000C60189970A9718F48FE090E017C0C60126
:1009C0004F970A9718F487E090E010C0C60145974A
:1009D0000A9718F483E090E009C0F1E0CF1AD1083B
:1009E00027E1C216D10420F481E090E00E941602B3
:1009F0000E94FA015DCF0E9402056894B1110C9427
:100A0000910508950E94760588F09F5798F0B92FB8
:100A10009927B751B0F0E1F0660F771F881F991F33
:100A20001AF0BA95C9F714C0B13091F00E94900540
:100A3000B1E008950C949005672F782F8827B85F50
:100A400039F0B93FCCF3869577956795B395D9F78B
:100A50003EF490958095709561957F4F8F4F9F4F95
:100A60000895E89409C097FB3EF4909580957095A1
:100A700061957F4F8F4F9F4F9923A9F0F92F96E9EA
:100A8000BB279395F695879577956795B795F1115F
:100A9000F8CFFAF4BB0F11F460FF1BC06F5F7F4FFC
:100AA0008F4F9F4F16C0882311F096E911C077230E
:100AB00021F09EE8872F762F05C0662371F096E817
:100AC000862F70E060E02AF09A95660F771F881FE6
:100AD000DAF7880F9695879597F9089557FD9058FE
:100AE000440F551F59F05F3F71F04795880F97FBF2
:100AF000991F61F09F3F79F08795089512161306AC
:100B00001406551FF2CF4695F1DF08C016161706DA
:100B10001806991FF1CF869571056105089408950F
:100B2000E894BB2766277727CB0197F908950E94A1
:100B3000AA050C941B060E940D0638F00E941406AC
:100B400020F0952311F00C9404060C940A0611244D
:100B50000C9491050E946E0570F3959FC1F3950F5B
:100B600050E0551F629FF001729FBB27F00DB11D31
:100B7000639FAA27F00DB11DAA1F649F6627B00DC1
:100B8000A11D661F829F2227B00DA11D621F739FAA
:100B9000B00DA11D621F839FA00D611D221F749FB8
:100BA0003327A00D611D231F849F600D211D822FFF
:100BB000762F6A2F11249F5750409AF0F1F0882326
:100BC0004AF0EE0FFF1FBB1F661F771F881F915053
:100BD0005040A9F79E3F510580F00C9404060C94F8
:100BE00091055F3FE4F3983ED4F38695779567953A
:100BF000B795F795E7959F5FC1F7FE2B880F911D7D
:100C00009695879597F9089597F99F6780E870E022
:100C100060E008959FEF80EC089500240A94161672
:100C2000170618060906089500240A9412161306DA
:100C3000140605060895092E0394000C11F4882368
:100C400052F0BB0F40F4BF2B11F460FF04C06F5F84
:100C50007F4F8F4F9F4F0895A1E21A2EAA1BBB1BF7
:100C6000FD010DC0AA1FBB1FEE1FFF1FA217B30778
:100C7000E407F50720F0A21BB30BE40BF50B661F8E
:100C8000771F881F991F1A9469F760957095809552
:100C900090959B01AC01BD01CF010895EE0FFF1FA0
:100CA0000590F491E02D099481E090E0F8940C9483
:060CB0005906F894FFCF85
:100CB600000000008B01F4002201D801530131012C
:100CC60045014572726F722120596F7520617265F8
:100CD60020747279696E6720746F2073656E642064
:100CE6006461746120686176696E672076616C75EF
:100CF600652067726561746572207468616E20385C
:100D06002D62697420283E32353529000D0A0045CA
:100D160072726F7221205468652064617461206468
:100D26006972656374696F6E2028496E7075742FD9
:100D36004F75747075742920666F7220706F7274A7
:100D4600206973206E6F742073656C6563746564C7
:020D560000009B
:00000001FF
