:100000000C9458000C9480000C9480000C94800098
:100010000C9480000C9480000C9480000C94800060
:100020000C9480000C9480000C9480000C94800050
:100030000C9480000C9480000C9480000C94800040
:100040000C948D030C9480000C9480000C94800020
:100050000C9480000C9480000C9480000C94800020
:100060000C94D7030C9480000000000025002800A9
:100070002B00040404040404040402020202020229
:10008000030303030303010204081020408001025C
:1000900004081020010204081020000000080002DB
:1000A0000100000304070000000000000000050537
:1000B00011241FBECFEFD8E0DEBFCDBF11E0A0E01E
:1000C000B1E0E0E5FBE002C005900D92AC34B10771
:1000D000D9F722E0ACE4B1E001C01D92A132B20731
:1000E000E1F710E0C8E5D0E004C02197FE010E94CE
:1000F0009B05C735D107C9F70E9425050C94A605B5
:100100000C94000090E0FC01E656FF4F2491FC01A6
:10011000EA57FF4F3491FC01EE58FF4FE491EE2374
:10012000B1F1222339F1233091F038F42130A9F0D4
:10013000223001F584B58F7D12C0273091F0283030
:10014000A1F02430B9F4809180008F7D03C08091AC
:1001500080008F77809380000DC084B58F7784BD39
:1001600009C08091B0008F7703C08091B0008F7D6F
:100170008093B000F0E0EE0FFF1FE859FF4FA5910C
:10018000B4918FB7F894EC91E32BEC938FBF089563
:10019000089508953FB7F8948091FA019091FB017A
:1001A000A091FC01B091FD0126B5A89B05C02F3F91
:1001B00019F00196A11DB11D3FBFBA2FA92F982F8D
:1001C0008827820F911DA11DB11DBC01CD0142E008
:1001D000660F771F881F991F4A95D1F708958F9250
:1001E0009F92AF92BF92CF92DF92EF92FF926B01FC
:1001F0007C010E94CA004B015C01C114D104E104DE
:10020000F104F1F00E94CA00DC01CB0188199909C0
:10021000AA09BB09883E9340A105B10570F321E00E
:10022000C21AD108E108F10888EE880E83E0981E12
:10023000A11CB11CC114D104E104F10419F7DDCFF4
:10024000FF90EF90DF90CF90BF90AF909F908F90F6
:100250000895CF92DF92EF92FF920F931F93CF9367
:10026000DF936C017A018B01C0E0D0E0CE15DF0591
:1002700081F0D8016D918D01D601ED91FC91019035
:10028000F081E02DC6010995892B11F02196EECF62
:100290007E01C701DF91CF911F910F91FF90EF90E9
:1002A000DF90CF90089585ED8093BC008091BC00D5
:1002B00084FDFCCF10920402089540918C01262FFA
:1002C00030E0240F311D21323105DCF4209104028D
:1002D0002430C9F4FC0180E090E0861758F4309196
:1002E0008C012191DC01A459BE4FA30FB11D2C93A9
:1002F0000196F3CF80918C01680F60938C0180E0B0
:10030000089581E0089582E008950895E09108023B
:1003100080910702E81730F4F0E0E45BFE4F808143
:1003200090E008958FEF9FEF0895909108028091DB
:100330000702981750F4E92FF0E0E45BFE4F2081AC
:1003400030E09F5F9093080202C02FEF3FEFC9019A
:1003500008958091070290E020910802821B910984
:100360000895CF92DF92EF92FF920F931F93CF9356
:10037000DF937C01CB018A012091D301222389F0F4
:10038000EB016B01C40ED51ECC15DD0569F069913A
:10039000D701ED91FC910190F081E02DC701099505
:1003A000F3CF642F0E945D01C801DF91CF911F91AF
:1003B0000F91FF90EF90DF90CF900895CF93DF9350
:1003C0001F92CDB7DEB769832091D3012223D1F0EC
:1003D00020910502203240F021E030E0FC0133831F
:1003E000228380E090E015C080910602E82FF0E0C3
:1003F000EC52FE4F998190838F5F80930602809329
:10040000050205C061E0CE0101960E945D0181E018
:1004100090E00F90DF91CF910895CF93FC01C481BC
:1004200021E02093D301C093F401109206021092B0
:1004300005028385682B89E092E00E94DE0190919D
:100440000502913208F045C0809104028111FCCF71
:1004500082E08093040281E0809303028FEF809317
:10046000D2011092D1019093D001A4EDB1E0E0EB64
:10047000F1E080E0981721F02D9121938F5FFACF62
:100480001092AF018091AF01CC0FC82BC093AF0188
:1004900080910202813061F4109202028091AF01DA
:1004A0008093BB008091BC0083FDF8CF85EC01C038
:1004B00085EE8093BC00809104028230E1F380914C
:1004C000D2018F3F31F08091D201803211F08091C2
:1004D000D20110920602109205021092D301CF9120
:1004E00008950F931F93CF938C01C62F0E940D0286
:1004F0006C2F6460C8010E940D026C2F6B7FC801D5
:100500000E940D0283EC90E00197F1F7CF911F91CB
:100510000F9108950F931F93CF93DF938C01C62FF4
:10052000D42F607F642B0E94710280E1C89FB001CC
:1005300011246D2BC801DF91CF911F910F910C9465
:100540007102CF93DF93CDB7DEB728970FB6F8943B
:10055000DEBF0FBECDBF98E0E0E0F1E0DE01119616
:1005600001900D929A95E1F790911D02961710F463
:100570006FEF690FFE013196E60FF11DE60FF11DD9
:100580006081680F606840E085E192E028960FB6D0
:10059000F894DEBF0FBECDBFDF91CF910C948A02DD
:1005A000CF93DF9310920802109207021092060276
:1005B000109205021092040281E0809303021092CF
:1005C000020282E10E94820083E10E948200809107
:1005D000B9008E7F8093B9008091B9008D7F8093A0
:1005E000B90088E48093B80085E48093BC0088EC6F
:1005F00090E0909301028093000289EC90E0909348
:10060000FF018093FE0110921A0280911F02823036
:1006100018F098E090931A0280931D0262E370E054
:1006200080E090E00E94EF006091200285E192E07E
:100630000E940D0268EE73E080E090E00E94EF00FF
:1006400060E385E192E00E947102CBE4D6E4CE0142
:100650000197F1F760E385E192E00E947102219732
:10066000F1F760E385E192E00E94710283E592E098
:100670000197F1F760E285E192E00E9471026091DA
:100680001A02606240E085E192E00E948A0284E002
:1006900080931B0240E06CE085E192E00E948A02B8
:1006A00040E061E085E192E00E948A02CBE3DFE175
:1006B000CE010197F1F782E080931C0240E066E0F2
:1006C00085E192E00E948A0240E062E085E192E0EA
:1006D0000E948A022197F1F7DF91CF91089541E0BE
:1006E0000E948A0281E090E00895089580E090E001
:1006F0000895009769F0FC0101900020E9F7319717
:10070000AF01481B590BBC0185E192E00C94290113
:1007100080E090E008950E94A1051F920F920FB60D
:100720000F9211242F933F938F939F93AF93BF9377
:100730008091F6019091F701A091F801B091F90133
:100740003091F50123E0230F2D3720F40196A11DF0
:10075000B11D05C026E8230F0296A11DB11D2093EF
:10076000F5018093F6019093F701A093F801B093FF
:10077000F9018091FA019091FB01A091FC01B091E7
:10078000FD010196A11DB11D8093FA019093FB011B
:10079000A093FC01B093FD01BF91AF919F918F9108
:1007A0003F912F910F900FBE0F901F9018951F92A1
:1007B0000F920FB60F9211242F933F934F935F9395
:1007C0006F937F938F939F93AF93BF93EF93FF9319
:1007D0008091B900887F803609F49CC068F5883222
:1007E00009F45BC090F4803109F454C038F48823D4
:1007F00009F4F6C0883009F44DC0F6C0883109F418
:100800004CC0803209F45DC0EFC0803409F468C088
:1008100048F4803309F455C0883309F0E5C080936B
:10082000D201D8C0803509F44FC0883509F45DC0C5
:10083000883409F0D9C0D6C0883909F4C7C0A8F4F3
:10084000883709F467C038F4883609F463C0803704
:1008500009F460C0C9C0883809F4B8C0803909F407
:100860005FC0803809F0C0C05BC0803B09F486C01F
:1008700038F4803A09F466C0883A09F47FC0B4C0FD
:10088000803C09F4A7C0883C09F4A4C0883B09F463
:100890008AC0AAC08091AF0110C09091D10180910F
:1008A000D001981770F5E091D10181E08E0F80930F
:1008B000D101F0E0E055FE4F80818093BB0085ECD4
:1008C00086C08093D2018EC0E091D10181E08E0F6D
:1008D0008093D1018091BB00F0E0E055FE4F808312
:1008E0009091D1018091D0016EC0E091D10181E061
:1008F0008E0F8093D1018091BB00F0E0E055FE4F58
:1009000080838091030281116DC081E08093020297
:1009100084EA61C083E0809304021092AE01CFCFDD
:100920008091AE01803208F051C0E091AE0181E0CB
:100930008E0F8093AE018091BB00F0E0E257FE4F36
:100940008083BDCF85EC8093BC001092040280911F
:10095000AE01803230F4E091AE01F0E0E257FE4F9C
:1009600010826091AE0170E0E091FE01F091FF0114
:100970008EE891E009951092AE0136C084E0809334
:10098000040210928D0110928C01E0910002F0910E
:100990000102099580918C01811105C081E080934D
:1009A0008C0110926C01E0918D0181E08E0F80939B
:1009B0008D01F0E0E459FE4F80818093BB0090915F
:1009C0008D0180918C01981708F479CF85E8809388
:1009D000BC000AC085EC8093BC001092040204C0E5
:1009E0001092D2010E945301FF91EF91BF91AF91FC
:1009F0009F918F917F916F915F914F913F912F9137
:100A00000F900FBE0F901F901895E9E0F2E013824F
:100A1000128288EE93E0A0E0B0E084839583A68301
:100A2000B7838CE091E091838083E5E1F2E013826B
:100A300012828EE191E09183808380E2848384E15D
:100A4000818784E0828713860895789484B58260D4
:100A500084BD84B5816084BD85B5826085BD85B562
:100A6000816085BD80916E00816080936E001092E0
:100A7000810080918100826080938100809181005B
:100A800081608093810080918000816080938000EC
:100A90008091B10084608093B1008091B00081604A
:100AA0008093B00080917A00846080937A00809176
:100AB0007A00826080937A0080917A0081608093CE
:100AC0007A0080917A00806880937A001092C10049
:100AD0000E94D0020E94D00288E08093200260E051
:100AE00085E192E00E940D0260E083E00E94A10295
:100AF00086E291E00E94790361E082E00E94A10217
:100B000088E291E00E94790362E080E00E94A10205
:100B10008DE291E00E94790363E082E00E94A102ED
:100B200081E391E00E947903C0E0D0E02097F1F3E7
:100B30000E940000FBCFEE0FFF1F0590F491E02D07
:100B4000099481E090E0F8940C94A605F894FFCF06
:100B5000000040001400540000000000DE01B1015C
:100B600076038501A90195018601000000006F034D
:100B700029017603750349004C6F766500796F751E
:100B80000046726F6D2074686520626F74746F6DBB
:0C0B9000206F66206D7920736F756C007B
:00000001FF
