:1000000007C1000035C1000033C1000031C100004C
:100010002FC100002DC100002BC1000029C100002C
:1000200027C1000025C1000023C1000021C100003C
:100030001FC100001DC100001BC1000019C100004C
:1000400017C1000015C1000013C1000011C100005C
:100050000FC100000DC100000BC1000075C60000FB
:1000600007C10000E4C60000B9C6000001C10000DD
:10007000FFC00000FDC00000FBC00000F9C0000090
:10008000F7C00000F5C00000F3C00000F1C00000A0
:10009000EFC00000EDC00000EBC00000FEC6000095
:1000A000E7C00000E5C00000E3C00000E1C00000C0
:1000B000DFC00000DDC00000DBC00000D9C00000D0
:1000C000D7C00000D5C00000D3C00000D1C00000E0
:1000D000CFC00000CDC00000CBC00000C9C00000F0
:1000E000C7C000008601890178017C018001C00140
:1000F0008D01910197019B019F01A501A901AD010E
:10010000C001B301B701BB0100000A0B02090C0DCD
:100110000E080703040100000000000000000000BA
:1001200000000000000000000000000000000000CF
:10013000000000001211100000000000000000008C
:1001400000000000000000000000000000000000AF
:100150002200250028002B002E003100340002016F
:100160000000050108010B01000021002400270008
:100170002A002D00300033000101000004010701B6
:100180000A0105050505070508080808020202021C
:100190000A0A080804040404010101010101010123
:1001A0000303030303030303040707070C0C0C0CEE
:1001B0000C0C0C0C020202020606060606060606D7
:1001C0000B0B0B0B0B0B0B0B010210202008081064
:1001D00020401020408002010201080402010102B7
:1001E0000408102040808040201008040201800490
:1001F00002018040201008040201080402010102EB
:1002000004081020408001020408102040807E086D
:1002100011241FBECFEFD1E2DEBFCDBF00E00CBF87
:1002200012E0A0E0B2E0E8E2F9E100E00BBF02C0BA
:1002300007900D92AE34B107D9F723E0AEE4B2E0F7
:1002400001C01D92AE3CB207E1F711E0C8E0D1E079
:1002500000E006C021970109802FFE010E94860C54
:10026000C730D10780E00807A9F790D70C94920C0B
:10027000C7CE08950895E7EEF1E02491E1EAF1E0B8
:100280008491882399F090E0880F991FFC01E85928
:10029000FE4FA591B491FC01E25BFE4F85919491D4
:1002A0008FB7F894EC91E22BEC938FBF0895362F23
:1002B00090E0FC01E85FFE4F4491FC01E853FE4FE3
:1002C0002491FC01EE57FE4F9491992309F46CC0E0
:1002D000442309F455C050E0FA013197E231F105A9
:1002E00008F04EC08827EE58FF4F8F4F0C94860CB5
:1002F000809180008F7707C0809180008F7D03C040
:1003000080918000877F809380003AC084B58F778A
:1003100002C084B58F7D84BD33C08091B0008F77DB
:1003200003C08091B0008F7D8093B00029C0809180
:1003300090008F7707C0809190008F7D03C08091DF
:100340009000877F809390001BC08091A0008F77E2
:1003500007C08091A0008F7D03C08091A000877F9F
:100360008093A0000DC0809120018F7707C08091FD
:1003700020018F7D03C080912001877F8093200121
:10038000E92FF0E0EE0FFF1FE25BFE4FA591B49165
:100390009FB7F894311104C08C912095282302C096
:1003A000EC912E2B2C939FBF08953FB7F89480912A
:1003B0000A0390910B03A0910C03B0910D0326B595
:1003C000A89B05C02F3F19F00196A11DB11D3FBF8D
:1003D000BA2FA92F982F8827820F911DA11DB11D1B
:1003E000BC01CD0142E0660F771F881F991F4A9517
:1003F000D1F708958F929F92AF92BF92CF92DF92E2
:10040000EF92FF926B017C01D0DF4B015C01C114C4
:10041000D104E104F104E9F0C8DFDC01CB01881963
:100420009909AA09BB09883E9340A105B10578F353
:1004300021E0C21AD108E108F10888EE880E83E0B5
:10044000981EA11CB11CC114D104E104F10421F7D0
:10045000DECFFF90EF90DF90CF90BF90AF909F9056
:100460008F900895CF92DF92EF92FF920F931F9398
:10047000CF93DF936C017A018B01C0E0D0E0CE1501
:10048000DF0581F0D8016D918D01D601ED91FC91D0
:100490000190F081E02DC6011995892B11F021966C
:1004A000EECF7E01C701DF91CF911F910F91FF9099
:1004B000EF90DF90CF900895FC01538D448D252F50
:1004C00030E0842F90E0821B930B541710F0CF96EE
:1004D000089501970895FC01918D828D981761F020
:1004E000828DDF01A80FB11D5D968C91928D9F5F6B
:1004F0009F73928F90E008958FEF9FEF0895FC0116
:10050000918D828D981731F0828DE80FF11D858DC8
:1005100090E008958FEF9FEF0895FC01918D228D5B
:10052000892F90E0805C9F4F821B91098F739927E0
:10053000089589E193E0F1DF21E0892B09F420E0BF
:10054000822F0895FC01848DDF01A80FB11DA35AED
:10055000BF4F2C91848D90E001968F739927848FE3
:10056000A689B7892C93A089B1898C918370806406
:100570008C93938D848D981306C00288F389E02DA7
:1005800080818F7D80830895EF92FF920F931F9358
:10059000CF93DF93EC0181E0888F9B8D8C8D981336
:1005A00005C0E889F989808185FD25C0F62E0B8D6F
:1005B00010E00F5F1F4F0F731127E02E8C8DE81294
:1005C0000BC00FB607FCFACFE889F989808185FF57
:1005D000F5CFCE01B7DFF2CF8B8DFE01E80FF11D15
:1005E000E35AFF4FF0829FB7F8940B8FEA89FB899B
:1005F000808180620AC09FB7F894EE89FF8960838A
:10060000E889F98980818370806480839FBF81E05D
:1006100090E0DF91CF911F910F91FF90EF9008959F
:10062000CF93DF93EC01888D8823C1F0EA89FB89A1
:10063000808185FD05C0A889B9898C9186FD0EC091
:100640000FB607FCF5CF808185FFF2CFA889B98965
:100650008C9185FFEDCFCE0175DFE8CFDF91CF9193
:10066000089580E090E0892B19F063DF811125C0A7
:1006700080E090E0892B41F080E090E0892B21F030
:100680000E94000081111CC080E090E0892B41F0A5
:1006900080E090E0892B21F00E940000811113C0BE
:1006A00080E090E0892BA1F080E090E0892B81F040
:1006B0000E94000081110AC008950E940000D8CF56
:1006C0000E940000E1CF0E940000EACF0C940000DD
:1006D000089585ED8093BC008091BC0084FDFCCF23
:1006E00010921403089540918E02262F30E0240FBB
:1006F000311D21323105DCF4209114032430C9F47A
:10070000FC0180E090E0861758F430918E02219130
:10071000DC01A259BD4FA30FB11D2C930196F3CF5D
:1007200080918E02680F60938E0280E0089581E0D0
:10073000089582E008950895E091180380911703C9
:10074000E81730F4F0E0E25BFD4F808190E008951F
:100750008FEF9FEF089590911803809117039817DA
:1007600050F4E92FF0E0E25BFD4F208130E09F5F25
:100770009093180302C02FEF3FEFC90108958091B5
:10078000170390E020911803821B91090895CF92DE
:10079000DF92EF92FF920F931F93CF93DF937C0131
:1007A000CB018A012091D502222389F0EB016B0154
:1007B000C40ED51ECC15DD0561F06991D701ED9110
:1007C000FC910190F081E02DC7011995F3CF642FC2
:1007D0008ADFC801DF91CF911F910F91FF90EF90B9
:1007E000DF90CF900895CF93DF931F92CDB7DEB700
:1007F00069832091D5022223D1F020911503203264
:1008000040F021E030E0FC013383228380E090E07F
:1008100014C080911603E82FF0E0EA52FD4F998151
:1008200090838F5F809316038093150304C061E06B
:10083000CE01019658DF81E090E00F90DF91CF91DB
:100840000895CF93FC01C48121E02093D502C09389
:10085000F60210921603109215038385682B86EB1F
:1008600093E0C1DF90911503913208F045C080916B
:1008700014038111FCCF82E08093140381E0809304
:1008800013038FEF8093D4021092D3029093D2027D
:10089000A6EDB2E0E2EBF2E080E0981721F02D91B6
:1008A00021938F5FFACF1092B1028091B102CC0FE9
:1008B000C82BC093B10280911203813061F4109271
:1008C00012038091B1028093BB008091BC0083FD34
:1008D000F8CF85EC01C085EE8093BC0080911403B5
:1008E0008230E1F38091D4028F3F31F08091D402C5
:1008F000803211F08091D4021092160310921503E9
:100900001092D502CF9108950F931F93CF938C012E
:10091000C62F97DF6C2F6460C80193DF6C2F6B7F4D
:10092000C8018FDF83EC90E00197F1F7CF911F9121
:100930000F9108950F931F93CF93DF938C01C62FD0
:10094000D42F607F642BE0DF80E1C89FB0011124C9
:100950006D2BC801DF91CF911F910F91D5CFCF9310
:10096000DF93CDB7DEB728970FB6F894DEBF0FBE82
:10097000CDBF98E0E0E0F2E0DE01119601900D922B
:100980009A95E1F79091CA03981710F48FEF890FA9
:10099000FE013196E80FF11DE80FF11D60816068DE
:1009A00040E082EC93E028960FB6F894DEBF0FBECD
:1009B000CDBFDF91CF91BECFCF93DF9310921803BD
:1009C000109217031092160310921503109214033D
:1009D00081E0809313031092120361E084E167DCED
:1009E00061E085E164DC8091B9008E7F8093B9007D
:1009F0008091B9008D7F8093B90088E48093B8001E
:100A000085E48093BC0089E391E090931103809387
:100A100010038AE391E090930F0380930E031092EA
:100A2000C7038091CC03823018F098E09093C703FD
:100A30008093CA0362E370E080E090E0DBDC6091C9
:100A4000CD0382EC93E0FDDE68EE73E080E090E0A1
:100A5000D1DC60E382EC93E057DFCBE4D6E4CE0157
:100A60000197F1F760E382EC93E04EDF2197F1F715
:100A700060E382EC93E048DF83E592E00197F1F7D1
:100A800060E282EC93E040DF6091C703606240E087
:100A900082EC93E04FDF84E08093C80340E06CE099
:100AA00082EC93E047DF40E061E082EC93E042DFDC
:100AB000CBE3DFE1CE010197F1F782E08093C90338
:100AC00040E066E082EC93E035DF40E062E082ECFB
:100AD00093E030DF2197F1F7DF91CF91089541E066
:100AE00029DF81E090E00895089580E090E0089586
:100AF00015D76115710579F0FB0101900020E9F728
:100B00003197AF01461B570BDC01ED91FC91028040
:100B1000F381E02D199480E090E008952F923F92A8
:100B20004F925F926F927F928F929F92AF92BF92FD
:100B3000CF92DF92EF92FF920F931F93CF93DF93A9
:100B4000CDB7DEB7A2970FB6F894DEBF0FBECDBF0C
:100B50008C014A015B01D22E9A01AB01C501B4019F
:100B6000AFD6882319F068E372E024C02401350170
:100B7000E89477F82FEF3FEF4FE75FE7C301B2014B
:100B80009FD681110CC02FEF3FEF4FE75FE7C30106
:100B9000B201E5D418161CF46CE372E00BC02FEF21
:100BA0003FEF4FE75FE4C501B40123D618162CF4DC
:100BB00060E472E0C8019DDFAEC02FEF3FEF4FE76A
:100BC0005FECC501B401CBD487FDF2CF20E030E06B
:100BD000A901C501B401C3D487FF0FC0D801ED91AD
:100BE000FC910190F081E02D6DE2C80119951C0186
:100BF000B7FAB094B7F8B09402C0212C312CF12C84
:100C000060E070E080E09FE3DF1439F020E030E046
:100C100040E251E4A8D4F394F7CFA50194013BD46A
:100C20004B015C0108D5562E672E782EC92E19A2CD
:100C3000262F372F482F592F7E01B1E2EB0EF11CE2
:100C4000EAA24F2CCA01B9012AE030E040E050E0AE
:100C50003BD6605DF70162937F01211531054105A7
:100C6000510581F7BF01C80144DF7101E80EF91E8B
:100C7000DD2009F44FC0652D762D872D9C2D07D5DD
:100C80009B01AC01C501B40105D44B015C01D80145
:100C9000ED91FC910190F081E02D6EE2C801199573
:100CA000E80EF91E20E030E040E251E4C501B40155
:100CB000A4D54B015C01BFD49B0140E050E019A2D8
:100CC0002AA0342C562E632E742EC52ECA01B901CB
:100CD0002AE030E040E050E0F7D5605DF10162933A
:100CE0001F01211531054105510581F7BF01C801DB
:100CF00000DFE80EF91E652D762D872D9C2DC7D4BB
:100D00009B01AC01C501B401C5D34B015C01DA9470
:100D1000D110C8CFC701A2960FB6F894DEBF0FBEA0
:100D2000CDBFDF91CF911F910F91FF90EF90DF909A
:100D3000CF90BF90AF909F908F907F906F905F907B
:100D40004F903F902F9008951F920F920FB60F92E1
:100D500011242F933F938F939F93AF93BF938091D1
:100D6000060390910703A0910803B0910903309105
:100D7000050323E0230F2D3720F40196A11DB11D9B
:100D800005C026E8230F0296A11DB11D209305037F
:100D90008093060390930703A0930803B09309037D
:100DA00080910A0390910B03A0910C03B0910D0365
:100DB0000196A11DB11D80930A0390930B03A0938C
:100DC0000C03B0930D03BF91AF919F918F913F9111
:100DD0002F910F900FBE0F901F9018951F920F929A
:100DE0000FB60F9211240BB60F922F933F934F9390
:100DF0005F936F937F938F939F93AF93BF93EF9383
:100E0000FF9389E193E09EDBFF91EF91BF91AF915A
:100E10009F918F917F916F915F914F913F912F9112
:100E20000F900BBE0F900FBE0F901F9018951F9242
:100E30000F920FB60F9211240BB60F922F938F9330
:100E40009F93EF93FF93E0912903F0912A03808110
:100E5000E0912F03F091300382FD12C090818091C8
:100E600032038F5F8F7320913303821751F0E0912B
:100E70003203F0E0E75EFC4F958F8093320301C0B0
:100E80008081FF91EF919F918F912F910F900BBED9
:100E90000F900FBE0F901F9018951F920F920FB6D4
:100EA0000F9211240BB60F922F933F934F935F93A2
:100EB0006F937F938F939F93AF93BF93EF93FF9322
:100EC0008091B900887F803609F49CC068F588322B
:100ED00009F45BC090F4803109F454C038F48823DD
:100EE00009F4F6C0883009F44DC0F5C0883109F422
:100EF0004CC0803209F45DC0EEC0803409F468C093
:100F000048F4803309F455C0883309F0E4C0809375
:100F1000D402D8C0803509F44FC0883509F45DC0CB
:100F2000883409F0D8C0D6C0883909F4C7C0A8F4FD
:100F3000883709F467C038F4883609F463C080370D
:100F400009F460C0C8C0883809F4B8C0803909F411
:100F50005FC0803809F0BFC05BC0803B09F486C029
:100F600038F4803A09F466C0883A09F47FC0B3C007
:100F7000803C09F4A7C0883C09F4A4C0883B09F46C
:100F80008AC0A9C08091B10210C09091D302809113
:100F9000D202981770F5E091D30281E08E0F809312
:100FA000D302F0E0EE54FD4F80818093BB0085ECCE
:100FB00086C08093D4028EC0E091D30281E08E0F70
:100FC0008093D3028091BB00F0E0EE54FD4F80830C
:100FD0009091D3028091D2026EC0E091D30281E061
:100FE0008E0F8093D3028091BB00F0E0EE54FD4F52
:100FF00080838091130381116DC081E0809312037F
:1010000084EA61C083E0809314031092B002CFCFD2
:101010008091B002803208F051C0E091B00281E0CE
:101020008E0F8093B0028091BB00F0E0E057FD4F3F
:101030008083BDCF85EC8093BC0010921403809117
:10104000B002803230F4E091B002F0E0E057FD4FA2
:1010500010826091B00270E0E0910E03F0910F03F6
:1010600080E992E019951092B00235C084E0809337
:10107000140310928F0210928E02E0911003F091EF
:101080001103199580918E02811105C081E0809332
:101090008E0210926E02E0918F0281E08E0F80939B
:1010A0008F02F0E0E259FD4F80818093BB00909168
:1010B0008F0280918E02981708F479CF85E880938B
:1010C000BC0009C085EC8093BC001092140303C0DF
:1010D0001092D402FEDAFF91EF91BF91AF919F91F0
:1010E0008F917F916F915F914F913F912F910F90D1
:1010F0000BBE0F900FBE0F901F901895E9E1F3E023
:101100001382128288EE93E0A0E0B0E0848395839E
:10111000A683B7832CE032E03183208325EC30E0D6
:101120003587248724EC30E03787268720EC30E0B1
:10113000318B208B21EC30E0338B228B22EC30E0A2
:10114000358B248B26EC30E0378B268B118E128E5C
:10115000138E148EE6EBF3E0138212828483958360
:10116000A683B7838EE192E091838083E2ECF3E083
:101170001382128280E392E09183808380E28483F1
:1011800084E1818784E0828713860895789484B50A
:10119000826084BD84B5816084BD85B5826085BD73
:1011A00085B5816085BD80916E00816080936E0001
:1011B00010928100809181008260809381008091F3
:1011C00081008160809381008091800081608093A4
:1011D00080008091B10084608093B1008091B00064
:1011E00081608093B0008091910082608093910033
:1011F0008091910081608093910080919000816046
:10120000809390008091A10082608093A1008091E2
:10121000A10081608093A1008091A00081608093F3
:10122000A0008091210182608093210180912101A1
:101230008160809321018091200181608093200151
:1012400080917A00846080937A0080917A00826035
:1012500080937A0080917A00816080937A008091F7
:101260007A00806880937A001092C100E09129038F
:10127000F0912A0382E08083E0912503F091260318
:101280001082E0912703F09128038FEC8083109265
:101290003103E0912D03F0912E0386E08083E091ED
:1012A0002B03F0912C03808180618083E0912B03DC
:1012B000F0912C03808188608083E0912B03F09172
:1012C0002C03808180688083E0912B03F0912C03B4
:1012D00080818F7D808370DB6FDB88E08093CD031E
:1012E00060E082EC93E0ADDA80E039DB64E472E048
:1012F00082EC93E0FEDB10E4C1E0D0E05DDB8091A6
:10130000010390910203A0910303B0910403809321
:10131000FD029093FE02A093FF02B093000364E6E7
:1013200070E080E090E066D880917B00877F8093BA
:101330007B0010937C0080917A00806480937A0017
:1013400080917A0086FDFCCF6091780080917900D1
:1013500070E0782B072E000C880B990B9AD16B014B
:101360007C016093010370930203809303039093C5
:1013700004038090FD029090FE02A090FF02B090C6
:101380000003A501940135D218160CF05BC020E0D3
:1013900030E84FEF53E4C701B6012BD218160CF01A
:1013A00051C0D093FC02C093FB02A5019401C70178
:1013B000B601D5D087FF54C01092FC021092FB02F8
:1013C00023EF34E045EB5FE3C501B401CCD028E462
:1013D00031E642ED53E45ED021EE3AE744EB52ECC5
:1013E000C2D023E333E342E553EC07D223E333E3F4
:1013F00042E553E450D0AB01BC014093F702509357
:10140000F8026093F9027093FA0222E089E193E016
:1014100085DB6AE472E089E193E06BDB82E09FDACE
:101420004091F7025091F8026091F9027091FA022E
:1014300022E082EC93E072DB6AE472E082EC93E0FB
:1014400058DB0EC0A5019401C701B60188D087FF03
:1014500007C08091FB029091FC02019709F4ACCF88
:101460000E943B0160E08FE10E94570168EE73E04B
:1014700080E090E00E94FA010E943B0161E08FE170
:101480000E94570168EE73E080E090E00E94FA014C
:10149000E8D834CF5058BB27AA270ED070C161D1ED
:1014A00030F066D120F031F49F3F11F41EF456C1A4
:1014B0000EF4E095E7FB4CC1E92F72D180F3BA1727
:1014C000620773078407950718F071F49EF58AC1C7
:1014D0000EF4E0950B2EBA2FA02D0B01B90190014F
:1014E0000C01CA01A0011124FF27591B99F0593F93
:1014F00050F4503E68F11A16F040A22F232F342FDB
:101500004427585FF3CF469537952795A795F04028
:101510005395C9F77EF41F16BA0B620B730B840B3D
:10152000BAF09150A1F0FF0FBB1F661F771F881FF5
:10153000C2F70EC0BA0F621F731F841F48F487954D
:1015400077956795B795F7959E3F08F0B3CF93953C
:10155000880F08F09927EE0F979587950895D4D0B6
:1015600008F481E008950CD00AC102D140F0F9D00E
:1015700030F021F45F3F19F0EBC0511134C1EEC0DF
:101580000FD198F39923C9F35523B1F3951B550B4C
:10159000BB27AA2762177307840738F09F5F5F4F46
:1015A000220F331F441FAA1FA9F333D00E2E3AF087
:1015B000E0E830D091505040E695001CCAF729D0A1
:1015C000FE2F27D0660F771F881FBB1F26173707F0
:1015D0004807AB07B0E809F0BB0B802DBF01FF2720
:1015E00093585F4F2AF09E3F510568F0B1C0FBC091
:1015F0005F3FECF3983EDCF3869577956795B7955A
:10160000F7959F5FC9F7880F911D9695879597F974
:101610000895E1E0660F771F881FBB1F62177307ED
:101620008407BA0720F0621B730B840BBA0BEE1F02
:1016300088F7E0950895BCD088F09F5790F0B92FB7
:101640009927B751A0F0D1F0660F771F881F991F17
:101650001AF0BA95C9F712C0B13081F0C3D0B1E029
:101660000895C0C0672F782F8827B85F39F0B93F39
:10167000CCF3869577956795B395D9F73EF4909519
:101680008095709561957F4F8F4F9F4F0895E89497
:1016900009C097FB3EF490958095709561957F4FBA
:1016A0008F4F9F4F9923A9F0F92F96E9BB27939568
:1016B000F695879577956795B795F111F8CFFAF478
:1016C000BB0F11F460FF1BC06F5F7F4F8F4F9F4FA9
:1016D00016C0882311F096E911C0772321F09EE807
:1016E000872F762F05C0662371F096E8862F70E06D
:1016F00060E02AF09A95660F771F881FDAF7880F47
:101700009695879597F90895990F0008550FAA0B9C
:10171000E0E8FEEF16161706E807F907C0F0121604
:101720001306E407F50798F0621B730B840B950B07
:1017300039F40A2661F0232B242B252B21F408955C
:101740000A2609F4A140A6958FEF811D811D0895F9
:1017500097F99F6780E870E060E008959FEF80EC64
:10176000089500240A941616170618060906089507
:1017700000240A9412161306140605060895092E6D
:101780000394000C11F4882352F0BB0F40F4BF2BDC
:1017900011F460FF04C06F5F7F4F8F4F9F4F08951C
:1017A00057FD9058440F551F59F05F3F71F0479512
:1017B000880F97FB991F61F09F3F79F087950895F7
:1017C000121613061406551FF2CF4695F1DF08C016
:1017D000161617061806991FF1CF86957105610533
:1017E00008940895E894BB2766277727CB0197F9DB
:1017F00008958ADF08F48FEF08950BD0C0CFB1DFD2
:1018000028F0B6DF18F0952309F0A2CFA7CF112456
:10181000EACFC6DFA0F3959FD1F3950F50E0551F97
:10182000629FF001729FBB27F00DB11D639FAA2735
:10183000F00DB11DAA1F649F6627B00DA11D661F84
:10184000829F2227B00DA11D621F739FB00DA11DA5
:10185000621F839FA00D611D221F749F3327A00D5F
:10186000611D231F849F600D211D822F762F6A2FFB
:1018700011249F5750408AF0E1F088234AF0EE0F80
:10188000FF1FBB1F661F771F881F91505040A9F78D
:101890009E3F510570F05CCFA6CF5F3FECF3983EC2
:1018A000DCF3869577956795B795F795E7959F5FF4
:1018B000C1F7FE2B880F911D9695879597F908958E
:1018C00023DF880B990B0895A1E21A2EAA1BBB1BDC
:1018D000FD010DC0AA1FBB1FEE1FFF1FA217B307FC
:1018E000E407F50720F0A21BB30BE40BF50B661F12
:1018F000771F881F991F1A9469F7609570958095D6
:1019000090959B01AC01BD01CF010895EE0FFF1F23
:10191000881F8BBF0790F691E02D199481E090E02D
:08192000F89400C0F894FFCF19
:10192800000040001400540000000000C40232020D
:101938005C0210038D026B027F0200000000F303BB
:10194800C70375059B03BF03AB039C03000000009E
:101958006F053202750574056E616E00696E66006A
:0E1968006F766600506F776572000D0A000002
:00000001FF
