:10000000FAC0000028C1000026C1000024C1000081
:1000100022C1000020C100001EC100001CC1000060
:100020001AC1000018C1000016C1000014C1000070
:1000300012C1000010C100000EC100000CC1000080
:100040000AC1000008C1000006C1000004C1000090
:1000500002C1000000C10000FEC00000A2C50000F7
:10006000FAC0000011C60000E6C50000F4C00000A0
:10007000F2C00000F0C00000EEC00000ECC00000C4
:10008000EAC00000E8C00000E6C00000E4C00000D4
:10009000E2C00000E0C00000DEC000002BC600008F
:1000A000DAC00000D8C00000D6C00000D4C00000F4
:1000B000D2C00000D0C00000CEC00000CCC0000004
:1000C000CAC00000C8C00000C6C00000C4C0000014
:1000D000C2C00000C0C00000BEC00000BCC0000024
:1000E000BAC000005A015D014C0150015401940155
:1000F000610165016B016F01730179017D0181016E
:10010000940187018B018F01000022002500280047
:100110002B002E003100340002010000050108010F
:100120000B0105050505070508080808020202027B
:100130000A0A080804040404010101010101010183
:100140000303030303030303040707070C0C0C0C4E
:100150000C0C0C0C02020202060606060606060637
:100160000B0B0B0B0B0B0B0B0102102020080810C4
:100170002040102040800201020108040201010217
:1001800004081020408080402010080402018004F0
:10019000020180402010080402010804020101024B
:1001A0000408102040800102040810204080000054
:1001B0000A0B02090C0D0E080703040100000000E1
:1001C000000000000000000000000000000000002F
:1001D00000000000000000000000121110000000EC
:1001E000000000000000000000000000000000000F
:1001F00000000000AB0711241FBECFEFD1E2DEBF2D
:10020000CDBF00E00CBF12E0A0E0B2E0EEE6F8E106
:1002100000E00BBF02C007900D92A834B107D9F7D8
:1002200023E0A8E4B2E001C01D92A83CB207E1F7C8
:1002300010E0CBEFD0E000E006C021970109802F4D
:10024000FE010E94290CCA3FD10780E00807A9F7E8
:10025000CAD60C94350CD4CE90E0FC01E255FE4F8A
:100260004491FC01E859FE4F2491FC01EE5DFE4FE4
:100270009491992309F466C0442309F455C050E0D1
:10028000FA013197E231F10508F04EC08827EE58A7
:10029000FF4F8F4F0C94290C809180008F7707C0FF
:1002A000809180008F7D03C080918000877F809344
:1002B00080003AC084B58F7702C084B58F7D84BD3D
:1002C00033C08091B0008F7703C08091B0008F7DE4
:1002D0008093B00029C0809190008F7707C08091F3
:1002E00090008F7D03C080919000877F8093900065
:1002F0001BC08091A0008F7707C08091A0008F7DE8
:1003000003C08091A000877F8093A0000DC08091E2
:1003100020018F7707C0809120018F7D03C08091DD
:100320002001877F80932001E92FF0E0EE0FFF1F6F
:10033000E85FFE4FA591B4918FB7F894EC91E22B52
:10034000EC938FBF08953FB7F89480910F0390917D
:100350001003A0911103B091120326B5A89B05C00C
:100360002F3F19F00196A11DB11D3FBFBA2FA92F34
:10037000982F8827820F911DA11DB11DBC01CD01B1
:1003800042E0660F771F881F991F4A95D1F708959D
:100390008F929F92AF92BF92CF92DF92EF92FF9295
:1003A0006B017C01D0DF4B015C01C114D104E1047D
:1003B000F104E9F0C8DFDC01CB0188199909AA0929
:1003C000BB09883E9340A105B10578F321E0C21A2C
:1003D000D108E108F10888EE880E83E0981EA11C80
:1003E000B11CC114D104E104F10421F7DECFFF9068
:1003F000EF90DF90CF90BF90AF909F908F90089537
:1004000008950895CF92DF92EF92FF920F931F937A
:10041000CF93DF936C017A018B01C0E0D0E0CE1561
:10042000DF0581F0D8016D918D01D601ED91FC9130
:100430000190F081E02DC6011995892B11F02196CC
:10044000EECF7E01C701DF91CF911F910F91FF90F9
:10045000EF90DF90CF900895FC01538D448D252FB0
:1004600030E0842F90E0821B930B541710F0CF964E
:10047000089501970895FC01918D828D981761F080
:10048000828DDF01A80FB11D5D968C91928D9F5FCB
:100490009F73928F90E008958FEF9FEF0895FC0176
:1004A000918D828D981731F0828DE80FF11D858D29
:1004B00090E008958FEF9FEF0895FC01918D228DBC
:1004C000892F90E0805C9F4F821B91098F73992741
:1004D000089583E193E0F1DF21E0892B09F420E026
:1004E000822F0895FC01848DDF01A80FB11DA35A4E
:1004F000BF4F2C91848D90E001968F739927848F44
:10050000A689B7892C93A089B1898C918370806466
:100510008C93938D848D981306C00288F389E02D07
:1005200080818F7D80830895EF92FF920F931F93B8
:10053000CF93DF93EC0181E0888F9B8D8C8D981396
:1005400005C0E889F989808185FD25C0F62E0B8DCF
:1005500010E00F5F1F4F0F731127E02E8C8DE812F4
:100560000BC00FB607FCFACFE889F989808185FFB7
:10057000F5CFCE01B7DFF2CF8B8DFE01E80FF11D75
:10058000E35AFF4FF0829FB7F8940B8FEA89FB89FB
:10059000808180620AC09FB7F894EE89FF896083EA
:1005A000E889F98980818370806480839FBF81E0BE
:1005B00090E0DF91CF911F910F91FF90EF90089500
:1005C000CF93DF93EC01888D8823C1F0EA89FB8902
:1005D000808185FD05C0A889B9898C9186FD0EC0F2
:1005E0000FB607FCF5CF808185FFF2CFA889B989C6
:1005F0008C9185FFEDCFCE0175DFE8CFDF91CF91F4
:10060000089580E090E0892B19F063DF811125C007
:1006100080E090E0892B41F080E090E0892B21F090
:100620000E94000081111CC080E090E0892B41F005
:1006300080E090E0892B21F00E940000811113C01E
:1006400080E090E0892BA1F080E090E0892B81F0A0
:100650000E94000081110AC008950E940000D8CFB6
:100660000E940000E1CF0E940000EACF0C9400003D
:10067000089585ED8093BC008091BC0084FDFCCF83
:100680001092F702089540918802262F30E0240F3F
:10069000311D21323105DCF42091F7022430C9F4F8
:1006A000FC0180E090E0861758F430918802219197
:1006B000DC01A859BD4FA30FB11D2C930196F3CFB8
:1006C00080918802680F6093880280E0089581E03D
:1006D000089582E008950895E091FB028091FA0266
:1006E000E81730F4F0E0E85BFD4F808190E008957A
:1006F0008FEF9FEF08959091FB028091FA02981777
:1007000050F4E92FF0E0E85BFD4F208130E09F5F7F
:100710009093FB0202C02FEF3FEFC9010895809133
:10072000FA0290E02091FB02821B91090895CF927A
:10073000DF92EF92FF920F931F93CF93DF937C0191
:10074000CB018A012091CF02222389F0EB016B01BA
:10075000C40ED51ECC15DD0561F06991D701ED9170
:10076000FC910190F081E02DC7011995F3CF642F22
:100770008ADFC801DF91CF911F910F91FF90EF9019
:10078000DF90CF900895CF93DF931F92CDB7DEB760
:1007900069832091CF022223D1F02091F8022032E8
:1007A00040F021E030E0FC013383228380E090E0E0
:1007B00014C08091F902E82FF0E0E053FD4F9981D9
:1007C00090838F5F8093F9028093F80204C061E008
:1007D000CE01019658DF81E090E00F90DF91CF913C
:1007E0000895CF93FC01C48121E02093CF02C093F0
:1007F000F0021092F9021092F8028385682B80EBC8
:1008000093E0C1DF9091F802913208F045C08091E9
:10081000F7028111FCCF82E08093F70281E08093A0
:10082000F6028FEF8093CE021092CD029093CC020D
:10083000A0EDB2E0ECEAF2E080E0981721F02D9113
:1008400021938F5FFACF1092AB028091AB02CC0F55
:10085000C82BC093AB028091F502813061F41092F5
:10086000F5028091AB028093BB008091BC0083FDB8
:10087000F8CF85EC01C085EE8093BC008091F70233
:100880008230E1F38091CE028F3F31F08091CE0231
:10089000803211F08091CE021092F9021092F8028B
:1008A0001092CF02CF9108950F931F93CF938C0195
:1008B000C62F97DF6C2F6460C80193DF6C2F6B7FAE
:1008C000C8018FDF83EC90E00197F1F7CF911F9182
:1008D0000F9108950F931F93CF93DF938C01C62F31
:1008E000D42F607F642BE0DF80E1C89FB00111242A
:1008F0006D2BC801DF91CF911F910F91D5CFCF9371
:10090000DF93CDB7DEB728970FB6F894DEBF0FBEE2
:10091000CDBF98E0E0E0F2E0DE01119601900D928B
:100920009A95E1F79091C403981710F48FEF890F0F
:10093000FE013196E80FF11DE80FF11D608160683E
:1009400040E08CEB93E028960FB6F894DEBF0FBE24
:10095000CDBFDF91CF91BECF41E0BCDF81E090E021
:100960000895089580E090E008957BD761157105A2
:1009700079F0FB0101900020E9F73197AF01461BA8
:10098000570BDC01ED91FC910280F381E02D19946D
:1009900080E090E008952F923F924F925F926F9285
:1009A0007F928F929F92AF92BF92CF92DF92EF92FF
:1009B000FF920F931F93CF93DF93CDB7DEB7A3972B
:1009C0000FB6F894DEBF0FBECDBF1C014A015B011C
:1009D0009A01AB01C501B40116D7882319F068E369
:1009E00072E018C075016401E894F7F82FEF3FEF4B
:1009F0004FE75FE7C701B60106D781110FC02FEFA0
:100A00003FEF4FE75FE7C701B6014CD5181634F446
:100A10006CE372E0C101AADF6C01A4C02FEF3FEFCD
:100A20004FE75FE4C501B40187D618161CF460E4F3
:100A300072E0F0CF2FEF3FEF4FE75FECC501B4015D
:100A400031D587FDF4CF20E030E0A901C501B40124
:100A500029D587FF0FC0D101ED91FC910190F08164
:100A6000E02D6DE2C10119956C01B7FAB094B7F8A9
:100A7000B09402C0C12CD12C2AE037ED43EA5BE3ED
:100A8000C501B401ABD42B013C0178D54B015C010D
:100A9000A1D59B01AC01C301B2019FD42B013C0144
:100AA00019A27E01B1E2EB0EF11CEAA2FBA2C50184
:100AB000B4012AE030E040E050E0A9D649015A01F3
:100AC000605DF70162937F01232B242B252B79F79F
:100AD000BF01C1014BDF8C01D101ED91FC9101906F
:100AE000F081E02D6EE2C1011995800F911FC80EB3
:100AF000D91E13E01150B1F120E030E040E251E4A2
:100B0000C301B2011DD64B015C0138D59B0140E009
:100B100050E019A24AA05BA0762EE32EF42E052FFA
:100B2000CA01B9012AE030E040E050E070D6605DD3
:100B3000F20162932F01211531054105510581F71D
:100B4000BF01C10113DFC80ED91E672D7E2D8F2D69
:100B5000902F40D59B01AC01C501B4013ED42B01BF
:100B60003C01C8CF64E472E0C10100DF8C0D9D1D23
:100B7000A3960FB6F894DEBF0FBECDBFDF91CF9125
:100B80001F910F91FF90EF90DF90CF90BF90AF90AB
:100B90009F908F907F906F905F904F903F902F909D
:100BA00008951F920F920FB60F9211242F933F9327
:100BB0008F939F93AF93BF9380910B0390910C03FE
:100BC000A0910D03B0910E0330910A0323E0230F8F
:100BD0002D3720F40196A11DB11D05C026E8230F75
:100BE0000296A11DB11D20930A0380930B039093DD
:100BF0000C03A0930D03B0930E0380910F0390910B
:100C00001003A0911103B09112030196A11DB11D13
:100C100080930F0390931003A0931103B0931203DA
:100C2000BF91AF919F918F913F912F910F900FBEE8
:100C30000F901F9018951F920F920FB60F921124CC
:100C40000BB60F922F933F934F935F936F937F93C6
:100C50008F939F93AF93BF93EF93FF9383E193E0C1
:100C600041DCFF91EF91BF91AF919F918F917F9167
:100C70006F915F914F913F912F910F900BBE0F900D
:100C80000FBE0F901F9018951F920F920FB60F92E4
:100C900011240BB60F922F938F939F93EF93FF9393
:100CA000E0912303F09124038081E0912903F091E6
:100CB0002A0382FD12C0908180912C038F5F8F7375
:100CC00020912D03821751F0E0912C03F0E0ED5EAE
:100CD000FC4F958F80932C0301C08081FF91EF9191
:100CE0009F918F912F910F900BBE0F900FBE0F9081
:100CF0001F9018951F920F920FB60F9211240BB6EA
:100D00000F922F933F934F935F936F937F938F93A4
:100D10009F93AF93BF93EF93FF938091B900887F28
:100D2000803609F49CC068F5883209F45BC090F401
:100D3000803109F454C038F4882309F4F6C08830AF
:100D400009F44DC0F5C0883109F44CC0803209F473
:100D50005DC0EEC0803409F468C048F4803309F403
:100D600055C0883309F0E4C08093CE02D8C08035E6
:100D700009F44FC0883509F45DC0883409F0D8C043
:100D8000D6C0883909F4C7C0A8F4883709F467C009
:100D900038F4883609F463C0803709F460C0C8C0ED
:100DA000883809F4B8C0803909F45FC0803809F088
:100DB000BFC05BC0803B09F486C038F4803A09F4B8
:100DC00066C0883A09F47FC0B3C0803C09F4A7C06C
:100DD000883C09F4A4C0883B09F48AC0A9C080916A
:100DE000AB0210C09091CD028091CC02981770F5A3
:100DF000E091CD0281E08E0F8093CD02F0E0E455CA
:100E0000FD4F80818093BB0085EC86C08093CE022D
:100E10008EC0E091CD0281E08E0F8093CD02809153
:100E2000BB00F0E0E455FD4F80839091CD028091AE
:100E3000CC026EC0E091CD0281E08E0F8093CD0296
:100E40008091BB00F0E0E455FD4F80838091F60275
:100E500081116DC081E08093F50284EA61C083E076
:100E60008093F7021092AA02CFCF8091AA0280321B
:100E700008F051C0E091AA0281E08E0F8093AA028F
:100E80008091BB00F0E0E657FD4F8083BDCF85EC3D
:100E90008093BC001092F7028091AA02803230F455
:100EA000E091AA02F0E0E657FD4F10826091AA029D
:100EB00070E0E091F102F091F2028AE892E0199577
:100EC0001092AA0235C084E08093F7021092890242
:100ED00010928802E091F302F091F402199580914A
:100EE0008802811105C081E0809388021092680217
:100EF000E091890281E08E0F80938902F0E0E85949
:100F0000FD4F80818093BB0090918902809188027F
:100F1000981708F479CF85E88093BC0009C085EC68
:100F20008093BC001092F70203C01092CE02A1DBA6
:100F3000FF91EF91BF91AF919F918F917F916F91B1
:100F40005F914F913F912F910F900BBE0F900FBE6D
:100F50000F901F901895E3E1F3E01382128288EE60
:100F600093E0A0E0B0E084839583A683B7832CE070
:100F700032E03183208325EC30E03587248724EC70
:100F800030E03787268720EC30E0318B208B21EC56
:100F900030E0338B228B22EC30E0358B248B26EC37
:100FA00030E0378B268B118E128E138E148EE0EB71
:100FB000F3E01382128284839583A683B7838EE144
:100FC00092E091838083ECEBF3E01382128280E362
:100FD00092E09183808380E2848384E1818784E04E
:100FE000828713860895789484B5826084BD84B521
:100FF000816084BD85B5826085BD85B5816085BD14
:1010000080916E00816080936E00109281008091CB
:101010008100826080938100809181008160809353
:101020008100809180008160809380008091B10078
:1010300084608093B1008091B00081608093B000A3
:1010400080919100826080939100809191008160F5
:1010500080939100809190008160809390008091B6
:10106000A10082608093A1008091A10081608093A3
:10107000A1008091A00081608093A0008091210157
:101080008260809321018091210181608093210100
:101090008091200181608093200180917A0084609A
:1010A00080937A0080917A00826080937A008091A8
:1010B0007A00816080937A0080917A0080688093C2
:1010C0007A001092C100E0912303F091240382E0A2
:1010D0008083E0911F03F09120031082E0912103AF
:1010E000F091220380E1808310922B03E09127038B
:1010F000F091280386E08083E0912503F091260398
:10110000808180618083E0912503F09126038081B6
:1011100088608083E0912503F091260380818068B8
:101120008083E0912503F091260380818F7D808369
:101130001092FB021092FA021092F9021092F80239
:101140001092F70281E08093F6021092F50284E19A
:1011500083D885E181D88091B9008E7F8093B900D2
:101160008091B9008D7F8093B90088E48093B800A6
:1011700085E48093BC0080E092E09093F402809339
:10118000F30281E092E09093F2028093F1021092D8
:10119000C1038091C603823018F098E09093C10398
:1011A0008093C40362E370E080E090E0F1D8609146
:1011B000C7038CEB93E015DB68EE73E080E090E012
:1011C000E7D860E38CEB93E06FDBCBE4D6E4CE01B1
:1011D0000197F1F760E38CEB93E066DB2197F1F781
:1011E00060E38CEB93E060DB83E592E00197F1F73D
:1011F00060E28CEB93E058DB6091C103606240E0F9
:101200008CEB93E067DB84E08093C20340E06CE00A
:101210008CEB93E05FDB40E061E08CEB93E05ADB2A
:10122000CBE3DFE1CE010197F1F782E08093C303C6
:1012300040E066E08CEB93E04DDB40E062E08CEB5D
:1012400093E048DB2197F1F788E08093C70360E0E3
:101250008CEB93E0C6DA80E4B82E01E010E0CBE33B
:10126000DFE18091060390910703A0910803B091FC
:1012700009038093020390930303A0930403B093A4
:10128000050364E670E080E090E082D880917B0006
:10129000877F80937B00B0927C0080917A0080648D
:1012A00080937A0080917A0086FDFCCF609178006F
:1012B0008091790070E0782B072E000C880B990B39
:1012C0008BD16B017C0160930603709307038093BD
:1012D0000803909309034090020350900303609029
:1012E000040370900503A301920126D218160CF096
:1012F00042C020E030E84FEF53E4C701B6011CD2F2
:1013000018160CF038C01093010300930003A301DA
:101310009201C701B601C6D087FF3BC010920103FE
:101320001092000323EF34E045EB5FE3C301B20109
:10133000BDD028E431E642ED53E44FD021EE3AE748
:1013400044EB52ECB3D023E333E342E553ECF8D162
:1013500023E333E342E553E441D0AB01BC014093C6
:10136000FC025093FD026093FE027093FF0283E142
:1013700093E011DB0EC0A3019201C701B60192D028
:1013800087FF07C08091000390910103019709F442
:10139000C5CF40E061E08CEB93E09CDACE01019791
:1013A000F1F780E0ACDA4091FC025091FD026091CF
:1013B000FE027091FF028CEB93E0EDDA81E09FDAA0
:1013C000409106035091070360910803709109034F
:1013D0008CEB93E0E0DA15D944CF5058BB27AA270D
:1013E0000ED070C161D130F066D120F031F49F3F52
:1013F00011F41EF456C10EF4E095E7FB4CC1E92F41
:1014000072D180F3BA17620773078407950718F043
:1014100071F49EF58AC10EF4E0950B2EBA2FA02D23
:101420000B01B90190010C01CA01A0011124FF2791
:10143000591B99F0593F50F4503E68F11A16F0408C
:10144000A22F232F342F4427585FF3CF469537958B
:101450002795A795F0405395C9F77EF41F16BA0B50
:10146000620B730B840BBAF09150A1F0FF0FBB1FFE
:10147000661F771F881FC2F70EC0BA0F621F731F47
:10148000841F48F4879577956795B795F7959E3FA4
:1014900008F0B3CF9395880F08F09927EE0F979532
:1014A00087950895D4D008F481E008950CD00AC13E
:1014B00002D140F0F9D030F021F45F3F19F0EBC0D9
:1014C000511134C1EEC00FD198F39923C9F35523BC
:1014D000B1F3951B550BBB27AA2762177307840727
:1014E00038F09F5F5F4F220F331F441FAA1FA9F3DD
:1014F00033D00E2E3AF0E0E830D091505040E695CF
:10150000001CCAF729D0FE2F27D0660F771F881F2F
:10151000BB1F261737074807AB07B0E809F0BB0B1E
:10152000802DBF01FF2793585F4F2AF09E3F510542
:1015300068F0B1C0FBC05F3FECF3983EDCF38695EA
:1015400077956795B795F7959F5FC9F7880F911DB8
:101550009695879597F90895E1E0660F771F881FA4
:10156000BB1F621773078407BA0720F0621B730B57
:10157000840BBA0BEE1F88F7E0950895BCD088F075
:101580009F5790F0B92F9927B751A0F0D1F0660F6F
:10159000771F881F991F1AF0BA95C9F712C0B1308A
:1015A00081F0C3D0B1E00895C0C0672F782F88279D
:1015B000B85F39F0B93FCCF3869577956795B395C9
:1015C000D9F73EF490958095709561957F4F8F4F38
:1015D0009F4F0895E89409C097FB3EF4909580953D
:1015E000709561957F4F8F4F9F4F9923A9F0F92FE9
:1015F00096E9BB279395F695879577956795B79567
:10160000F111F8CFFAF4BB0F11F460FF1BC06F5F4C
:101610007F4F8F4F9F4F16C0882311F096E911C05E
:10162000772321F09EE8872F762F05C0662371F07F
:1016300096E8862F70E060E02AF09A95660F771F93
:10164000881FDAF7880F9695879597F90895990F6F
:101650000008550FAA0BE0E8FEEF16161706E8077C
:10166000F907C0F012161306E407F50798F0621B9D
:10167000730B840B950B39F40A2661F0232B242B72
:10168000252B21F408950A2609F4A140A6958FEF91
:10169000811D811D089597F99F6780E870E060E0E3
:1016A00008959FEF80EC089500240A9416161706FB
:1016B00018060906089500240A9412161306140643
:1016C00005060895092E0394000C11F4882352F0A6
:1016D000BB0F40F4BF2B11F460FF04C06F5F7F4F5E
:1016E0008F4F9F4F089557FD9058440F551F59F045
:1016F0005F3F71F04795880F97FB991F61F09F3FFF
:1017000079F087950895121613061406551FF2CF27
:101710004695F1DF08C0161617061806991FF1CF77
:1017200086957105610508940895E894BB2766279E
:101730007727CB0197F908958ADF08F48FEF089592
:101740000BD0C0CFB1DF28F0B6DF18F0952309F039
:10175000A2CFA7CF1124EACFC6DFA0F3959FD1F384
:10176000950F50E0551F629FF001729FBB27F00D4F
:10177000B11D639FAA27F00DB11DAA1F649F6627A4
:10178000B00DA11D661F829F2227B00DA11D621FF3
:10179000739FB00DA11D621F839FA00D611D221FAD
:1017A000749F3327A00D611D231F849F600D211D91
:1017B000822F762F6A2F11249F5750408AF0E1F034
:1017C00088234AF0EE0FFF1FBB1F661F771F881F7D
:1017D00091505040A9F79E3F510570F05CCFA6CFC5
:1017E0005F3FECF3983EDCF3869577956795B79568
:1017F000F795E7959F5FC1F7FE2B880F911D969592
:10180000879597F9089523DF880B990B0895A1E236
:101810001A2EAA1BBB1BFD010DC0AA1FBB1FEE1F6A
:10182000FF1FA217B307E407F50720F0A21BB30BB5
:10183000E40BF50B661F771F881F991F1A9469F731
:1018400060957095809590959B01AC01BD01CF018D
:101850000895EE0FFF1F881F8BBF0790F691E02DB4
:0E186000199481E090E0F89400C0F894FFCF56
:10186E000000400014005400000000009402020228
:10187E002C02E0025D023B024F0200000000C30397
:10188E009703B2046B038F037B036C03000000000D
:10189E00AC040202B204B1046E616E00696E6600A1
:0818AE006F7666000D0A0000D0
:00000001FF
