:10000000D4C0000002C1000000C10000FEC000001A
:10001000FCC00000FAC00000F8C00000F6C00000FC
:10002000F4C00000F2C00000F0C00000EEC000000C
:10003000ECC00000EAC00000E8C00000E6C000001C
:10004000E4C00000E2C00000E0C00000DEC000002C
:10005000DCC00000DAC00000D8C00000B2C300005D
:10006000D4C0000021C40000F6C30000CEC00000D0
:10007000CCC00000CAC00000C8C00000C6C000005C
:10008000C4C00000C2C00000C0C00000BEC000006C
:10009000BCC00000BAC00000B8C00000B6C000007C
:1000A000B4C00000B2C00000B0C00000AEC000008C
:1000B000ACC00000AAC00000A8C00000A6C000009C
:1000C000A4C00000A2C00000A0C000009EC00000AC
:1000D0009CC000009AC0000098C0000096C00000BC
:1000E00094C0000005A84CCDB2D44EB93836A90250
:1000F0000C50B9918688083CA6AAAA2ABE00000026
:10010000803F000020002300260029002C002F0043
:100110003200000100000301060109010505050583
:10012000070508080808020202020A0A080804046F
:10013000040401010101010101010303030303039D
:100140000303040707070C0C0C0C0C0C0C0C02022C
:10015000020206060606060606060B0B0B0B0B0B29
:100160000B0B0102102020080810204010204080B6
:10017000020102010804020101020408102040806B
:1001800080402010080402018004020180402010F9
:100190000804020108040201010204081020408042
:1001A0000102040810204080970911241FBECFEFE0
:1001B000D1E2DEBFCDBF00E00CBF12E0A0E0B2E0B4
:1001C000E6EEF9E100E00BBF02C007900D92AA3401
:1001D000B107D9F723E0AAE4B2E001C01D92A63529
:1001E000B207E1F710E0C5EDD0E000E006C02197CE
:1001F0000109802FFE010E94E50CC43DD10780E07B
:100200000807A9F7CCD30C94F10CFACE863308F08A
:10021000865390917B00282F2870977F922B909384
:100220007B008770806480937C0080917A0080647A
:1002300080937A0080917A0086FDFCCF80917800CF
:100240002091790090E0922B08953FB7F894809127
:10025000B5029091B602A091B702B091B80226B54E
:10026000A89B05C02F3F19F00196A11DB11D3FBFEE
:10027000BA2FA92F982F8827820F911DA11DB11D7C
:10028000BC01CD0142E0660F771F881F991F4A9578
:10029000D1F708958F929F92AF92BF92CF92DF9243
:1002A000EF92FF926B017C01D0DF4B015C01C11426
:1002B000D104E104F104E9F0C8DFDC01CB018819C5
:1002C0009909AA09BB09883E9340A105B10578F3B5
:1002D00021E0C21AD108E108F10888EE880E83E017
:1002E000981EA11CB11CC114D104E104F10421F732
:1002F000DECFFF90EF90DF90CF90BF90AF909F90B8
:100300008F900895CF92DF92EF92FF920F931F93F9
:10031000CF93DF936C017A018B01C0E0D0E0CE1562
:10032000DF0581F0D8016D918D01D601ED91FC9131
:100330000190F081E02DC6011995892B11F02196CD
:10034000EECF7E01C701DF91CF911F910F91FF90FA
:10035000EF90DF90CF900895089580E090E00895A9
:10036000FC01538D448D252F30E0842F90E0821BBB
:10037000930B541710F0CF96089501970895FC0140
:10038000918D828D981761F0828DDF01A80FB11DCC
:100390005D968C91928D9F5F9F73928F90E00895F0
:1003A0008FEF9FEF0895FC01918D828D981731F0AA
:1003B000828DE80FF11D858D90E008958FEF9FEFFE
:1003C0000895FC01918D228D892F90E0805C9F4FD4
:1003D000821B91098F739927089589EB92E0F1DFD1
:1003E00021E0892B09F420E0822F0895FC01848DFF
:1003F000DF01A80FB11DA35ABF4F2C91848D90E04F
:1004000001968F739927848FA689B7892C93A08929
:10041000B1898C91837080648C93938D848D9813B3
:1004200006C00288F389E02D80818F7D8083089546
:10043000EF92FF920F931F93CF93DF93EC0181E034
:10044000888F9B8D8C8D981305C0E889F9898081F0
:1004500085FD25C0F62E0B8D10E00F5F1F4F0F732B
:100460001127E02E8C8DE8120BC00FB607FCFACFD7
:10047000E889F989808185FFF5CFCE01B7DFF2CF1A
:100480008B8DFE01E80FF11DE35AFF4FF0829FB7FD
:10049000F8940B8FEA89FB89808180620AC09FB73C
:1004A000F894EE89FF896083E889F98980818370F7
:1004B000806480839FBF81E090E0DF91CF911F91A6
:1004C0000F91FF90EF900895682F89EB92E0B0CFE5
:1004D000CF93DF93EC01888D8823C1F0EA89FB89F3
:1004E000808185FD05C0A889B9898C9186FD0EC0E3
:1004F0000FB607FCF5CF808185FFF2CFA889B989B7
:100500008C9185FFEDCFCE0171DFE8CFDF91CF91E8
:10051000089580E090E0892B19F05FDF811125C0FC
:1005200080E090E0892B41F080E090E0892B21F081
:100530000E94000081111CC080E090E0892B41F0F6
:1005400080E090E0892B21F00E940000811113C00F
:1005500080E090E0892BA1F080E090E0892B81F091
:100560000E94000081110AC008950E940000D8CFA7
:100570000E940000E1CF0E940000EACF0C9400002E
:100580000895009761F0FC0101900020E9F7319790
:10059000AF01481B590BBC0189EB92E0B3CE80E060
:1005A00090E008952F923F924F925F926F927F92C8
:1005B0008F929F92AF92BF92CF92DF92EF92FF9273
:1005C0000F931F93CF93DF93CDB7DEB7A4970FB6EA
:1005D000F894DEBF0FBECDBF4B015C01F42E9B0132
:1005E000AC010E94580C882319F082E192E026C0E9
:1005F00024013501E89477F82FEF3FEF4FE75FE7ED
:10060000C301B2010E94580C81110CC02FEF3FEFC3
:100610004FE75FE7C301B2011CD718161CF486E14F
:1006200092E00CC02FEF3FEF4FE75FE4C501B4014C
:100630000E94AF0B181624F48AE192E0A2DFA6C054
:100640002FEF3FEF4FE75FECC501B40102D787FD05
:10065000F3CF20E030E0A901C501B401FAD687FF4D
:1006600008C08DE231DF3C01B7FAB094B7F8B0941E
:1006700002C0612C712C10E060E070E080E09FE32C
:10068000F11639F020E030E040E251E4E9D61F5F96
:10069000F7CFA501940179D64B015C0149D76AA334
:1006A000C72ED82EE92E19A2262F372F482F592FC3
:1006B0008E010F5D1F4F0BA31CA39AE0292E312C36
:1006C000412C512CCA01B901A20191010E94A70C31
:1006D000605DF80162938F012115310541055105D7
:1006E00089F7CF014EDF8301080F191FFF2009F49E
:1006F0004CC06AA17C2D8D2D9E2D46D79B01AC014F
:10070000C501B40141D64B015C018EE2DDDE080F6C
:10071000191F8AE0282E312C412C512C20E030E08A
:1007200040E251E4C501B4010E94B30B4B015C01EE
:10073000FFD69B0140E050E019A2CBA0DCA0762EB2
:100740003AA3642EE52ECA01B901A20191010E94CB
:10075000A70C605DF60162936F012115310541051B
:10076000510589F7CF010DDF080F191F672D7AA1F9
:10077000862D9E2D09D79B01AC01C501B40104D67D
:100780004B015C01FA94F110C9CFC801A4960FB6D1
:10079000F894DEBF0FBECDBFDF91CF911F910F91B7
:1007A000FF90EF90DF90CF90BF90AF909F908F9091
:1007B0007F906F905F904F903F902F9008950E9490
:1007C000ED0C1F920F920FB60F9211242F933F93AF
:1007D0008F939F93AF93BF938091B1029091B20298
:1007E000A091B302B091B4023091B00223E0230F84
:1007F0002D3720F40196A11DB11D05C026E8230F59
:100800000296A11DB11D2093B0028093B102909376
:10081000B202A093B302B093B4028091B50290915A
:10082000B602A091B702B091B8020196A11DB11D08
:100830008093B5029093B602A093B702B093B8022A
:10084000BF91AF919F918F913F912F910F900FBECC
:100850000F901F9018951F920F920FB60F921124B0
:100860000BB60F922F933F934F935F936F937F93AA
:100870008F939F93AF93BF93EF93FF9389EB92E096
:10088000B5DDFF91EF91BF91AF919F918F917F91D6
:100890006F915F914F913F912F910F900BBE0F90F1
:1008A0000FBE0F901F9018951F920F920FB60F92C8
:1008B00011240BB60F922F938F939F93EF93FF9377
:1008C000E091C902F091CA028081E091CF02F091DB
:1008D000D00282FD12C090818091D2028F5F8F730F
:1008E0002091D302821751F0E091D202F0E0E75458
:1008F000FD4F958F8093D20201C08081FF91EF91CF
:100900009F918F912F910F900BBE0F900FBE0F9064
:100910001F901895CF92DF92EF92FF920F931F9343
:10092000E82FF92F05C0015011092109310961F1A2
:10093000908196239417B9F305C00150110921093C
:10094000310911F1908196239413F7CFC12CD12C4A
:10095000E12CF12C0AC08FEFC81AD80AE80AF80A6D
:100960000C151D052E053F0579F08081862384171F
:1009700091F36C2D7D2D8E2D9F2D1F910F91FF904A
:10098000EF90DF90CF90089560E070E080E090E01D
:100990001F910F91FF90EF90DF90CF900895CF932C
:1009A000DF93CDB7DEB72A970FB6F894DEBF0FBE40
:1009B000CDBF789484B5826084BD84B5816084BDE8
:1009C00085B5826085BD85B5816085BD80916E00ED
:1009D000816080936E00109281008091810082601E
:1009E000809381008091810081608093810080915B
:1009F00080008160809380008091B100846080934A
:100A0000B1008091B00081608093B000809191002E
:100A10008260809391008091910081608093910029
:100A2000809190008160809390008091A10082600D
:100A30008093A1008091A10081608093A1008091AA
:100A4000A00081608093A00080912101826080934A
:100A500021018091210181608093210180912001F9
:100A600081608093200180917A00846080937A0075
:100A700080917A00826080937A0080917A00816010
:100A800080937A0080917A00806880937A00109237
:100A9000C100E091C902F091CA0282E08083E09136
:100AA000C502F091C6021082E091C702F091C8021F
:100AB0008FEC80831092D102E091CD02F091CE02B2
:100AC00086E08083E091CB02F091CC02808180614E
:100AD0008083E091CB02F091CC028081886080839A
:100AE000E091CB02F091CC02808180688083E0911C
:100AF000CB02F091CC0280818F7D808387E390E0F0
:100B0000909369028093680280E090E0A3ECB3E4E4
:100B100080936C0290936D02A0936E02B0936F026B
:100B20008AE999E9A9EDBFE3809374029093750275
:100B3000A0937602B093770280E090E0A0E0B4E466
:100B40008093880290938902A0938A02B0938B02CB
:100B500026E330E030936B0220936A0240E050E0DD
:100B600064E771E4409370025093710260937202E3
:100B70007093730280938C0290938D02A0938E02E7
:100B8000B0938F022EE520937C0080917B00877FBD
:100B900080937B0062E070E080E090E07BDB8091FE
:100BA0007A00806480937A0080917A0086FDFCCF81
:100BB000809178002091790030E0322F2227A9011E
:100BC000330F660B770B9A01AB01282B60E070E3C3
:100BD00081E190E0DED62D833E834F8358878FB727
:100BE000F8948090B1029090B202A090B302B090BD
:100BF000B4028FBF8091680209DB9093AD028093AD
:100C0000AC02BC01990F880B990BC0D46B017C011D
:100C10002DEC3CEC4CE054E41CD487FF0BC041E0CD
:100C2000498326E636E646EE53E4C701B60197D57A
:100C300018160CF019822FB7F8948091B102909198
:100C4000B202A091B302B091B4022FBF88199909E2
:100C5000AA09BB09813D9740A105B10518F4398166
:100C6000332341F28FB7F8942091B1023091B20250
:100C70004091B3025091B40229833A834B835C8341
:100C80008FBF1A86198600E010E02FB7F894809184
:100C9000B1029091B202A091B302B091B4022FBF01
:100CA00029813A814B815C81821B930BA40BB50B8C
:100CB000803D9740A105B10508F030C1A985BA85EE
:100CC0001196BA87A9878091800290918102A091A4
:100CD0008202B091830280937C0290937D02A09364
:100CE0007E02B0937F028091680290DA909379023D
:100CF0008093780280916A0289DA7C0190937B026A
:100D000080937A022090780230907902B101032C0E
:100D1000000C880B990B3AD44B015C01409088027F
:100D20005090890260908A0270908B02A301920118
:100D30002BD320E030E040E85AE315D5A30192011F
:100D400024D39B01AC016093880270938902809345
:100D50008A0290938B02C501B40116D34B015C014A
:100D60006093800270938102809382029093830249
:100D7000B701FF0C880B990B09D46B017C014090E3
:100D80008C0250908D0260908E0270908F02A301B1
:100D90009201FAD220E030E040E85AE3E4D4A30123
:100DA0009201F3D29B01AC0160938C0270938D028F
:100DB00080938E0290938F02C701B601E5D26B013A
:100DC0007C016093840270938502809386029093E5
:100DD0008702A5019401C501B401C5D49B01AC01F2
:100DE0006093940270939502809396029093970279
:100DF000609198027091990280919A0290919B0261
:100E0000C4D2609398027093990280939A0290934F
:100E10009B02A7019601C701B601A5D49B01AC01B5
:100E200060939C0270939D0280939E0290939F0218
:100E30006091A0027091A1028091A2029091A30200
:100E4000A4D26093A0027093A1028093A202909317
:100E5000A30240907C0250907D0260907E027090D0
:100E60007F02A3019201C501B4018ED220917402C8
:100E700030917502409176025091770274D4A301AB
:100E8000920183D29B01AC01609390027093910216
:100E90008093920290939302C701B60164D49B01A0
:100EA000AC016093A4027093A5028093A602909374
:100EB000A7026091A8027091A9028091AA02909164
:100EC000AB0263D26093A8027093A9028093AA0236
:100ED0009093AB028091AF028093AE028091AC02FE
:100EE0009091AD028215930524F441E04093AF0246
:100EF00002C01092AF028091AF02A985BA85119706
:100F000011F48093AE029091AE02981304C00431A4
:100F1000110520F4BACE0F5F1F4FF9CFED81FE818E
:100F2000BF01FF0F880B990B31D320E030E04AE777
:100F300054E496D220E030E040E85AE314D46B0148
:100F40007C0120916C0230916D0240916E025091B3
:100F50006F0209D469837A838B839C8329853A85C0
:100F6000B90180E090E010D34B015C019B01AC0122
:100F7000609198027091990280919A0290919B02DF
:100F80006FD258D49B01AC0169817A818B819C819D
:100F9000EAD36D837E838F8398876093600270931A
:100FA00061028093620290936302209170023091FB
:100FB00071024091720250917302C701B601D3D3FE
:100FC0002B013C01A50194016091A0027091A10246
:100FD0008091A2029091A30243D22CD49B01AC0138
:100FE000C301B201C0D36B017C01609364027093B2
:100FF00065028093660290936702A3019201698162
:101000007A818B819C81AFD32091A8023091A90273
:101010004091AA025091AB02A6D3A501940120D21F
:101020004B015C0160935402709355028093560209
:1010300090935702A70196016D817E818F819885DB
:1010400092D39B01AC016093580270935902809334
:101050005A0290935B02C501B40102D260935C0214
:1010600070935D0280935E0290935F0210929802EB
:101070001092990210929A0210929B021092A00272
:101080001092A1021092A2021092A3021092A80242
:101090001092A9021092AA021092AB0242E0C5017E
:1010A000B40180DA80E210DA60915802709159023E
:1010B00080915A0290915B0242E074DA80E204DA95
:1010C000609160027091610280916202909163026E
:1010D00042E068DA80E2F8D96091640270916502BA
:1010E000809166029091670242E05CDA80E2ECD97E
:1010F00060915C0270915D0280915E0290915F024E
:1011000042E050DA80E2E0D984E292E03ADA64E642
:1011100070E080E090E0BED8809060029090610224
:10112000A0906202B0906302C0906402D090650209
:10113000E0906602F090670282E292E022DA84E2B6
:1011400092E01FDA85E392E01CDA42E0C501B401C7
:1011500029DA84E292E015DA82E492E012DA42E0DF
:10116000C701B6011FDA84E292E00BDA1092530253
:1011700010925202809152029091530205970CF006
:1011800064C0E4E6F1E06491EEE1F1E08491E82FDF
:10119000F0E0EE0FFF1FEE5FFE4F8591949100E4AB
:1011A00012E42FE030E0462FB5DB611571058105B3
:1011B000910549F0DC01CB010196A11DB11DBC01D7
:1011C000CD019F7003C060E070E0CB01DDD12DEB5D
:1011D00037E346E855E3C7D220E030E044EB53E480
:1011E000C2D220E030E048E452E4BDD26B017C0181
:1011F00020914E0230914F02409150025091510285
:10120000AED21816C4F4C0924E02D0924F02E092B1
:101210005002F092510221EE3EE245E652E4C7014F
:10122000B6011ED11AD160934A0270934B0280938B
:101230004C0290934D02809152029091530201967C
:10124000909353028093520295CF20E030E044EB1C
:1012500053E460914E0270914F0280915002909140
:1012600051027DD21816A4F410924E0210924F0231
:10127000109250021092510220E030E040E85FE30B
:1012800020934A0230934B0240934C0250934D02FC
:1012900020E030E0A90160914E0270914F028091F0
:1012A000500290915102D5D0811114C010924E027B
:1012B00010924F02109250021092510280E090E082
:1012C000A0E8BFE380934A0290934B02A0934C02A4
:1012D000B0934D028EE192E054D960914A02709130
:1012E0004B0280914C0290914D0242E05BD982E228
:1012F00092E047D984E292E044D987E292E041D972
:1013000060914E0270914F02809150029091510273
:1013100042E048D982E292E034D910924E02109213
:101320004F021092500210925102F3D82BCCE9EBED
:10133000F2E01382128288EE93E0A0E0B0E08483B2
:101340009583A683B78384E092E09183808385ECC4
:1013500090E09587848784EC90E09787868780EC7F
:1013600090E0918B808B81EC90E0938B828B82EC70
:1013700090E0958B848B86EC90E0978B868B118E1A
:10138000128E138E148E08955058BB27AA270ED0A4
:101390009BC164D130F069D120F031F49F3F11F44A
:1013A0001EF459C10EF4E095E7FB4FC1E92FAED111
:1013B00080F3BA17620773078407950718F071F472
:1013C0009EF5C6C10EF4E0950B2EBA2FA02D0B0191
:1013D000B90190010C01CA01A0011124FF27591B7A
:1013E00099F0593F50F4503E68F11A16F040A22F80
:1013F000232F342F4427585FF3CF469537952795F1
:10140000A795F0405395C9F77EF41F16BA0B620BEF
:10141000730B840BBAF09150A1F0FF0FBB1F661F36
:10142000771F881FC2F70EC0BA0F621F731F841F79
:1014300048F4879577956795B795F7959E3F08F09F
:10144000B3CF9395880F08F09927EE0F979587955E
:101450000895D7D008F481E008950FD1E39545C1F0
:101460000CD032C102D140F0F9D030F021F45F3F0E
:1014700019F0EBC051116DC1EEC048D198F399231A
:10148000C9F35523B1F3951B550BBB27AA27621748
:101490007307840738F09F5F5F4F220F331F441F8D
:1014A000AA1FA9F333D00E2E3AF0E0E830D09150C5
:1014B0005040E695001CCAF729D0FE2F27D0660FB2
:1014C000771F881FBB1F261737074807AB07B0E8F1
:1014D00009F0BB0B802DBF01FF2793585F4F2AF007
:1014E0009E3F510568F0B1C034C15F3FECF3983EB8
:1014F000DCF3869577956795B795F7959F5FC9F764
:10150000880F911D9695879597F90895E1E0660FEC
:10151000771F881FBB1F621773078407BA0720F065
:10152000621B730B840BBA0BEE1F88F7E0950895CE
:10153000F5D088F09F5790F0B92F9927B751A0F0B8
:10154000D1F0660F771F881F991F1AF0BA95C9F757
:1015500012C0B13081F0FCD0B1E00895F9C0672F1E
:10156000782F8827B85F39F0B93FCCF38695779507
:101570006795B395D9F73EF49095809570956195F0
:101580007F4F8F4F9F4F0895E89409C097FB3EF41B
:1015900090958095709561957F4F8F4F9F4F9923C0
:1015A000A9F0F92F96E9BB279395F695879577953E
:1015B0006795B795F111F8CFFAF4BB0F11F460FFFE
:1015C0001BC06F5F7F4F8F4F9F4F16C0882311F056
:1015D00096E911C0772321F09EE8872F762F05C06A
:1015E000662371F096E8862F70E060E02AF09A9505
:1015F000660F771F881FDAF7880F9695879597F9FA
:101600000895990F0008550FAA0BE0E8FEEF161693
:101610001706E807F907C0F012161306E407F507E6
:1016200098F0621B730B840B950B39F40A2661F05A
:10163000232B242B252B21F408950A2609F4A140FD
:10164000A6958FEF811D811D089597F99F6780E80A
:1016500070E060E008959FEF80EC089500240A9404
:101660001616170618060906089500240A9412167D
:101670001306140605060895EECF50D0E8F3E8945B
:10168000E0E0BB279F57F0F02AED3FE049EC06C0B1
:10169000EE0FBB0F661F771F881F28F0B23A620754
:1016A0007307840728F0B25A620B730B840BE3951F
:1016B0009A9572F7803830F49A95BB0F661F771FA2
:1016C000881FD2F79048FAC0092E0394000C11F439
:1016D000882352F0BB0F40F4BF2B11F460FF04C00D
:1016E0006F5F7F4F8F4F9F4F0895EF93E0FF06C0CE
:1016F000A2EA2AED3FE049EC5FEB58DEE5DF0F9010
:10170000039401FC9058E4EEF0E0EBC057FD9058D4
:10171000440F551F59F05F3F71F04795880F97FBB5
:10172000991F61F09F3F79F087950895121613066F
:101730001406551FF2CF4695F1DF08C0161617069E
:101740001806991FF1CF86957105610508940895D3
:10175000E894BB2766277727CB0197F9089551DFD7
:1017600008F48FEF08950BD0AFCF78DF28F07DDF3E
:1017700018F0952309F069CF6ECF1124EACFC6DFA8
:10178000A0F3959FD1F3950F50E0551F629FF00194
:10179000729FBB27F00DB11D639FAA27F00DB11DED
:1017A000AA1F649F6627B00DA11D661F829F222776
:1017B000B00DA11D621F739FB00DA11D621F839FFD
:1017C000A00D611D221F749F3327A00D611D231FD3
:1017D000849F600D211D822F762F6A2F11249F5721
:1017E00050408AF0E1F088234AF0EE0FFF1FBB1F44
:1017F000661F771F881F91505040A9F79E3F5105E3
:1018000070F023CFA6CF5F3FECF3983EDCF38695D4
:1018100077956795B795F795E7959F5FC1F7FE2B8D
:10182000880F911D9695879597F9089511F40EF4F8
:1018300012CF42C073DFD0F39923D9F3CEF39F5771
:10184000550B87FF47D00024A0E640EA900180585E
:101850005695979528F4805C660F771F881F20F0B7
:1018600026173707480730F4621B730B840B2029B7
:1018700031294A2BA69517940794202531254A270C
:1018800058F7660F771F881F20F02617370748077D
:1018900030F4620B730B840B200D311D411DA0959C
:1018A00081F7B901842F9158880F969587950895EF
:1018B000A8DE880B990B08959F3F31F0915020F4DA
:1018C000879577956795B795880F911D969587951C
:1018D00097F9089591505040660F771F881FD2F7EF
:1018E00008959F938F937F936F93FF93EF939B0143
:1018F000AC0139DFEF91FF9105D02F913F914F91CE
:101900005F9131CFDF93CF931F930F93FF92EF92AD
:10191000DF927B018C01689405C0DA2EEF012FDF86
:10192000FE01E894A5912591359145915591AEF32D
:10193000EF013CDDFE019701A801DA9479F7DF9011
:10194000EF90FF900F911F91CF91DF910895A1E249
:101950001A2EAA1BBB1BFD010DC0AA1FBB1FEE1F29
:10196000FF1FA217B307E407F50720F0A21BB30B74
:10197000E40BF50B661F771F881F991F1A9469F7F0
:1019800060957095809590959B01AC01BD01CF014C
:101990000895052E97FB16F400940FD057FD05D03F
:1019A000D6DF07FC02D046F408C05095409530952C
:1019B00021953F4F4F4F5F4F0895909580957095BB
:1019C00061957F4F8F4F9F4F0895EE0FFF1F881F28
:1019D0008BBF0790F691E02D199481E090E0F89488
:0619E00000C0F894FFCFE7
:1019E6000000000018028201B0016802E101BF0197
:1019F600D3016E616E00696E66006F7666005046B2
:101A06003D0020000D0A0042454441204641534115
:101A16004E59413D00746567616E67616E672020AF
:0A1A26003D006172757320203D0041
:00000001FF
