:100000000C9467000C948F000C948F000C948F005C
:100010000C948F000C948F000C948F000C948F0024
:100020000C948F000C948F000C948F000C948F0014
:100030000C948F000C948F000C948F000C948F0004
:100040000C94D6020C948F000C9446030C9420035D
:100050000C948F000C948F000C948F000C948F00E4
:100060000C948F000C948F0005A84CCDB2D44EB9DF
:100070003836A9020C50B9918688083CA6AAAA2A4B
:10008000BE000000803F00000000250028002B007B
:1000900000000000240027002A00000000002300C8
:1000A00026002900040404040404040402020202D9
:1000B000020203030303030301020408102040802B
:1000C0000102040810200102040810206605112412
:1000D0001FBECFEFD8E0DEBFCDBF11E0A0E0B1E0A2
:1000E000E6E1F1E102C005900D92AC33B107D9F71A
:1000F00021E0ACE3B1E001C01D92AC3EB207E1F7F4
:1001000010E0C7E6D0E004C02197FE010E947E08FF
:10011000C636D107C9F70E94BD030C9489080C9418
:100120000000CF92DF92EF92FF920F931F93CF9335
:10013000DF936C017A018B01C0E0D0E0CE15DF05C2
:1001400081F0D8016D918D01D601ED91FC91019066
:10015000F081E02DC6010995892B11F02196EECF93
:100160007E01C701DF91CF911F910F91FF90EF901A
:10017000DF90CF900895089580E090E00895FC010D
:10018000538D448D252F30E0842F90E0821B930BFC
:10019000541710F0CF96089501970895FC01918DA2
:1001A000828D981761F0828DDF01A80FB11D5D96D9
:1001B0008C91928D9F5F9F73928F90E008958FEF47
:1001C0009FEF0895FC01918D828D981731F0828DFB
:1001D000E80FF11D858D90E008958FEF9FEF089552
:1001E000FC01918D228D892F90E0805C9F4F821BB6
:1001F00091098F73992708958FE491E00E94F00090
:1002000021E0892B09F420E0822F0895FC01848DE0
:10021000DF01A80FB11DA35ABF4F2C91848D90E030
:1002200001968F739927848FA689B7892C93A0890B
:10023000B1898C91837080648C93938D848D981395
:1002400006C00288F389E02D80818F7D8083089528
:10025000EF92FF920F931F93CF93DF93EC0181E016
:10026000888F9B8D8C8D981305C0E889F9898081D2
:1002700085FD26C0F62E0B8D10E00F5F1F4F0F730C
:100280001127E02E8C8DE8120CC00FB607FCFACFB8
:10029000E889F989808185FFF5CFCE010E940601AA
:1002A000F1CF8B8DFE01E80FF11DE35AFF4FF08275
:1002B0009FB7F8940B8FEA89FB89808180620AC01E
:1002C0009FB7F894EE89FF896083E889F989808176
:1002D0008370806480839FBF81E090E0DF91CF9145
:1002E0001F910F91FF90EF900895CF93DF93EC0152
:1002F000888D8823C9F0EA89FB89808185FD05C046
:10030000A889B9898C9186FD0FC00FB607FCF5CF7F
:10031000808185FFF2CFA889B9898C9185FFEDCFC7
:10032000CE010E940601E7CFDF91CF91089580E0D2
:1003300090E0892B29F00E94FC0081110C940000B0
:100340000895009769F0FC0101900020E9F73197CA
:10035000AF01481B590BBC018FE491E00C94910054
:1003600080E090E008952F923F924F925F926F92BB
:100370007F928F929F92AF92BF92CF92DF92EF9235
:10038000FF920F931F93CF93DF93CDB7DEB7A49760
:100390000FB6F894DEBF0FBECDBF4B015C01F42E4B
:1003A0009B01AC010E940E08882319F082E191E0C4
:1003B00027C024013501E89477F82FEF3FEF4FE78E
:1003C0005FE7C301B2010E940E0881110DC02FEF3B
:1003D0003FEF4FE75FE7C301B2010E940006181626
:1003E0001CF486E191E00CC02FEF3FEF4FE75FE494
:1003F000C501B4010E949C0718162CF48AE191E013
:100400000E94A101B8C02FEF3FEF4FE75FECC5019D
:10041000B4010E94000687FDF1CF20E030E0A90181
:10042000C501B4010E94000687FF0BC06DE28FE496
:1004300091E00E9428013C01B7FAB094B7F8B0945B
:1004400002C0612C712C10E060E070E080E09FE35E
:10045000F11641F020E030E040E251E40E940A064B
:100460001F5FF6CFA50194010E9494054B015C012A
:100470000E947C066AA3C72ED82EE92E19A2262F29
:10048000372F482F592F8E010F5D1F4F0BA31CA331
:100490009AE0292E312C412C512CCA01B901A2011C
:1004A00091010E945C08605DF80162938F01211543
:1004B00031054105510589F7CF010E94A101830152
:1004C000080F191FFF2009F455C06AA17C2D8D2D3E
:1004D0009E2D0E94AB069B01AC01C501B4010E9498
:1004E00093054B015C016EE28FE491E00E942801CC
:1004F000080F191F8AE0282E312C412C512C20E0A6
:1005000030E040E251E4C501B4010E94A1074B0173
:100510005C010E947C069B0140E050E019A2CBA048
:10052000DCA0762E3AA3642EE52ECA01B901A20101
:1005300091010E945C08605DF60162936F012115D4
:1005400031054105510589F7CF010E94A101080F2E
:10055000191F672D7AA1862D9E2D0E94AB069B0147
:10056000AC01C501B4010E9493054B015C01FA94F2
:10057000F110C5CFC801A4960FB6F894DEBF0FBE28
:10058000CDBFDF91CF911F910F91FF90EF90DF9042
:10059000CF90BF90AF909F908F907F906F905F9023
:1005A0004F903F902F9008950E9484081F920F92C1
:1005B0000FB60F9211242F933F938F939F93AF9376
:1005C000BF9380914B0190914C01A0914D01B0914E
:1005D0004E0130914A0123E0230F2D3720F401967C
:1005E000A11DB11D05C026E8230F0296A11DB11D56
:1005F00020934A0180934B0190934C01A0934D01AD
:10060000B0934E018091460190914701A09148011D
:10061000B09149010196A11DB11D809346019093AF
:100620004701A0934801B0934901BF91AF919F91B9
:100630008F913F912F910F900FBE0F901F901895A3
:100640001F920F920FB60F9211242F933F934F9347
:100650005F936F937F938F939F93AF93BF93EF932A
:10066000FF938FE491E00E940601FF91EF91BF910B
:10067000AF919F918F917F916F915F914F913F913A
:100680002F910F900FBE0F901F9018951F920F92F1
:100690000FB60F9211242F938F939F93EF93FF9395
:1006A000E0915F01F09160018081E0916501F0913E
:1006B000660182FD12C09081809168018F5F8F7307
:1006C00020916901821751F0E0916801F0E0E15B4F
:1006D000FE4F958F8093680101C08081FF91EF915B
:1006E0009F918F912F910F900FBE0F901F90189593
:1006F000CF92DF92EF92FF920F931F93E82FF92F83
:1007000005C0015011092109310961F19081962339
:100710009417B9F305C0015011092109310911F1EC
:10072000908196239413F7CFC12CD12CE12CF12C7E
:100730000AC08FEFC81AD80AE80AF80A0C151D0576
:100740002E053F0579F080818623841791F36C2D67
:100750007D2D8E2D9F2D1F910F91FF90EF90DF909B
:10076000CF90089560E070E080E090E01F910F91DD
:10077000FF90EF90DF90CF900895789484B58260D9
:1007800084BD84B5816084BD85B5826085BD85B535
:10079000816085BD80916E00816080936E001092B3
:1007A000810080918100826080938100809181002E
:1007B00081608093810080918000816080938000BF
:1007C0008091B10084608093B1008091B00081601D
:1007D0008093B00080917A00846080937A00809149
:1007E0007A00826080937A0080917A0081608093A1
:1007F0007A0080917A00806880937A001092C1001C
:10080000E5ECF0E02491E1EBF0E084918823C1F085
:1008100090E0880F991FFC01E057FF4FC591D491DC
:10082000FC01EA57FF4FA591B4919FB7F8948881D6
:10083000322F309583238883EC91E22BEC939FBF7A
:10084000E0915F01F091600182E08083E0915B01C3
:10085000F0915C011082E0915D01F0915E018FECFE
:10086000808310926701E0916301F091640186E05A
:100870008083E0916101F0916201808180618083D9
:10088000E0916101F0916201808188608083E09154
:100890006101F0916201808180688083E091610153
:1008A000F091620180818F7D808395EC292E90E00C
:1008B000392EC1EBD0E0812C912C20E8A22E2FE321
:1008C000B22E109245011092440180914401909102
:1008D000450103970CF06CC0F1016491FE01849115
:1008E000E82FF0E0EE0FFF1FE656FF4F8591949141
:1008F00000E412E42FE030E0462F0E9478036115F7
:1009000071058105910549F0DC01CB010196A11D1E
:10091000B11DBC01CD019F7003C060E070E0CB0150
:100920000E94AB062DEB37E346E855E30E94A10792
:1009300020E030E044EB53E40E94A10720E030E0E7
:1009400048E452E40E94A1076B017C0121EE3EE2E3
:1009500045E652E40E940A060E9405062B013C016E
:100960002091400130914101409142015091430159
:10097000C701B6010E949C07181684F4C09240017A
:10098000D0924101E0924201F092430140923C0139
:1009900050923D0160923E0170923F01809144016E
:1009A00090914501019690934501809344018DCF2C
:1009B00020E030E044EB53E460914001709141014C
:1009C00080914201909143010E949C07181684F483
:1009D0001092400110924101109242011092430185
:1009E00080923C0190923D01A0923E01B0923F0165
:1009F00020E030E0A90160914001709141018091B7
:100A00004201909143010E940006811110C0109292
:100A100040011092410110924201109243018092D4
:100A20003C0190923D01A0923E01B0923F01609145
:100A3000400170914101809142019091430142E057
:100A40000E94B3018EE191E00E94A10160913C01FE
:100A500070913D0180913E0190913F0142E00E94E2
:100A6000B30180E291E00E94A10183E291E00E9443
:100A7000A10160913C0170913D0180913E019091F6
:100A80003F0142E00E94B30180E391E00E94A10196
:100A900082E391E00E94A1016091400170914101C7
:100AA000809142019091430142E00E94B30180E3B2
:100AB00091E00E94A1011092400110924101109218
:100AC0004201109243010E949701FBCEEFE4F1E056
:100AD0001382128288EE93E0A0E0B0E084839583D5
:100AE000A683B78384E091E09183808385EC90E0D6
:100AF0009587848784EC90E09787868780EC90E0E8
:100B0000918B808B81EC90E0938B828B82EC90E0D8
:100B1000958B848B86EC90E0978B868B118E128E52
:100B2000138E148E08955058BB27AA270E94AB0538
:100B30000C944E070E94150738F00E941C0720F005
:100B400039F49F3F19F426F40C9412070EF4E09543
:100B5000E7FB0C940C07E92F0E94730758F3BA17B0
:100B6000620773078407950720F079F4A6F50C94C3
:100B700095070EF4E0950B2EBA2FA02D0B01B901AD
:100B800090010C01CA01A0011124FF27591B99F003
:100B9000593F50F4503E68F11A16F040A22F232F0F
:100BA000342F4427585FF3CF469537952795A7955F
:100BB000F0405395C9F77EF41F16BA0B620B730B06
:100BC000840BBAF09150A1F0FF0FBB1F661F771F77
:100BD000881FC2F70EC0BA0F621F731F841F48F42C
:100BE000879577956795B795F7959E3F08F0B0CFB5
:100BF0009395880F08F09927EE0F9795879508959C
:100C00000E94E80608F481E008950E942507E39514
:100C10000C945F070E941E060C944E070E941C074E
:100C200058F00E94150740F029F45F3F29F00C941A
:100C30000C0751110C9496070C9412070E9473072D
:100C400068F39923B1F3552391F3951B550BBB27FB
:100C5000AA2762177307840738F09F5F5F4F220F40
:100C6000331F441FAA1FA9F335D00E2E3AF0E0E837
:100C700032D091505040E695001CCAF72BD0FE2F81
:100C800029D0660F771F881FBB1F26173707480715
:100C9000AB07B0E809F0BB0B802DBF01FF279358CD
:100CA0005F4F3AF09E3F510578F00C940C070C947E
:100CB00096075F3FE4F3983ED4F386957795679562
:100CC000B795F7959F5FC9F7880F911D9695879502
:100CD00097F90895E1E0660F771F881FBB1F621721
:100CE00073078407BA0720F0621B730B840BBA0BDF
:100CF000EE1F88F7E09508950E947B0788F09F57C4
:100D000098F0B92F9927B751B0F0E1F0660F771F2F
:100D1000881F991F1AF0BA95C9F714C0B13091F025
:100D20000E949507B1E008950C949507672F782FDE
:100D30008827B85F39F0B93FCCF3869577956795EA
:100D4000B395D9F73EF490958095709561957F4F56
:100D50008F4F9F4F0895E89409C097FB3EF49095FC
:100D60008095709561957F4F8F4F9F4F9923A9F084
:100D7000F92F96E9BB279395F69587957795679513
:100D8000B795F111F8CFFAF4BB0F11F460FF1BC057
:100D90006F5F7F4F8F4F9F4F16C0882311F096E9EA
:100DA00011C0772321F09EE8872F762F05C0662398
:100DB00071F096E8862F70E060E02AF09A95660F51
:100DC000771F881FDAF7880F9695879597F908950A
:100DD000990F0008550FAA0BE0E8FEEF161617064C
:100DE000E807F907C0F012161306E407F50798F0B4
:100DF000621B730B840B950B39F40A2661F0232BCD
:100E0000242B252B21F408950A2609F4A140A69548
:100E10008FEF811D811D089597F99F6780E870E02D
:100E200060E008959FEF80EC089500240A94161660
:100E3000170618060906089500240A9412161306C8
:100E40001406050608950C9412070E947B07D8F338
:100E5000E894E0E0BB279F57F0F02AED3FE049EC33
:100E600006C0EE0FBB0F661F771F881F28F0B23A2F
:100E700062077307840728F0B25A620B730B840B66
:100E8000E3959A9572F7803830F49A95BB0F661FF8
:100E9000771F881FD2F790480C941508092E0394E9
:100EA000000C11F4882352F0BB0F40F4BF2B11F457
:100EB00060FF04C06F5F7F4F8F4F9F4F0895EF9388
:100EC000E0FF07C0A2EA2AED3FE049EC5FEB0E9499
:100ED000AB050E944E070F90039401FC9058E8E682
:100EE000F0E00C94210857FD9058440F551F59F01D
:100EF0005F3F71F04795880F97FB991F61F09F3F07
:100F000079F087950895121613061406551FF2CF2F
:100F10004695F1DF08C0161617061806991FF1CF7F
:100F200086957105610508940895E894BB276627A6
:100F30007727CB0197F908950E94E80608F48FEF10
:100F400008950E94B4070C944E070E94150738F0CC
:100F50000E941C0720F0952311F00C940C070C94B0
:100F6000120711240C9496070E94730770F3959F43
:100F7000C1F3950F50E0551F629FF001729FBB2790
:100F8000F00DB11D639FAA27F00DB11DAA1F649F2C
:100F90006627B00DA11D661F829F2227B00DA11DDF
:100FA000621F739FB00DA11D621F839FA00D611D65
:100FB000221F749F3327A00D611D231F849F600D86
:100FC000211D822F762F6A2F11249F5750409AF0AF
:100FD000F1F088234AF0EE0FFF1FBB1F661F771F3B
:100FE000881F91505040A9F79E3F510580F00C9406
:100FF0000C070C9496075F3FE4F3983ED4F3869574
:1010000077956795B795F795E7959F5FC1F7FE2BA5
:10101000880F911D9695879597F908950E94E80687
:10102000880B990B08959F3F31F0915020F48795DC
:1010300077956795B795880F911D9695879597F940
:1010400008959F938F937F936F93FF93EF939B01EB
:10105000AC010E94A107EF91FF910E9435082F91EA
:101060003F914F915F910C94A107DF93CF931F9312
:101070000F93FF92EF92DF927B018C01689406C080
:10108000DA2EEF010E94B407FE01E894A5912591A4
:10109000359145915591A6F3EF010E94AB05FE01F4
:1010A0009701A801DA9469F7DF90EF90FF900F9114
:1010B0001F91CF91DF910895A1E21A2EAA1BBB1BAD
:1010C000FD010DC0AA1FBB1FEE1FFF1FA217B30714
:1010D000E407F50720F0A21BB30BE40BF50B661F2A
:1010E000771F881F991F1A9469F7609570958095EE
:1010F00090959B01AC01BD01CF010895EE0FFF1F3C
:101100000590F491E02D099481E090E0F8940C941E
:061110008908F894FFCFEE
:101116000000000028019100BF007501F000CE001C
:10112600E2006E616E00696E66006F7666002C00E6
:101136000D0A0046616B746F7220646179613D002F
:0C114600200050682D53686966743D005D
:00000001FF
